:020000040800F2
:1000000000A00020613B0008293A00082B3A0008B4
:100010002D3A00082F3A0008313A0008000000008D
:10002000000000000000000000000000333A00085B
:10003000353A000800000000373A0008393A000855
:10004000B13B0008B13B0008B13B0008B13B0008E0
:10005000B13B0008B13B0008B13B0008B13B0008D0
:10006000B13B0008B13B0008B13B0008B13B0008C0
:10007000B13B0008B13B0008B13B0008B13B0008B0
:10008000B13B0008B13B0008B13B0008B13B0008A0
:10009000B13B0008B13B0008B13B0008B13B000890
:1000A000B13B0008B13B0008B13B0008B13B000880
:1000B000B13B0008B13B0008B13B0008B13B000870
:1000C000B13B0008B13B0008B13B0008B13B000860
:1000D000B13B0008B13B0008B13B0008B13B000850
:1000E000453A0008B13B0008B13B0008B13B0008AD
:1000F000B13B0008B13B0008B13B0008B13B000830
:10010000000000000000000000000000B13B0008FB
:10011000B13B0008B13B0008513A0008B13B000870
:10012000B13B0008B13B0008B13B0008B13B0008FF
:10013000B13B0008B13B00080000000000000000D7
:10014000B13B0008B13B0008B13B000800000000D3
:10015000000000000000000000000000000000009F
:100160000000000000000000B13B0008B13B0008A7
:10017000B13B00080000000000000000000000008B
:0801800000000000B13B000883
:1001C00010B5054C237833B9044B13B10448AFF391
:1001D00000800123237010BDCC0900200000000026
:1001E0001C90000808B5034B1BB103490348AFF34B
:1001F000008008BD00000000D00900201C9000080D
:1002000081F0004102E000BF83F0004330B54FEAC7
:1002100041044FEA430594EA050F08BF90EA020F34
:100220001FBF54EA000C55EA020C7FEA645C7FEAC7
:10023000655C00F0E2804FEA5454D4EB5555B8BFEA
:100240006D420CDD2C4480EA020281EA030382EA5B
:10025000000083EA010180EA020281EA0303362DED
:1002600088BF30BD11F0004F4FEA01314FF4801CC0
:100270004CEA113102D0404261EB410113F0004FD2
:100280004FEA03334CEA133302D0524263EB430389
:1002900094EA050F00F0A780A4F10104D5F1200E27
:1002A0000DDB02FA0EFC22FA05F2801841F1000182
:1002B00003FA0EF2801843FA05F359410EE0A5F156
:1002C00020050EF1200E012A03FA0EFC28BF4CF087
:1002D000020C43FA05F3C01851EBE37101F000453D
:1002E00007D54FF0000EDCF1000C7EEB00006EEB4A
:1002F0000101B1F5801F1BD3B1F5001F0CD34908D4
:100300005FEA30004FEA3C0C04F101044FEA44522A
:1003100012F5800F80F09A80BCF1004F08BF5FEAB1
:10032000500C50F1000041EB045141EA050130BD91
:100330005FEA4C0C404141EB010111F4801FA4F134
:100340000104E9D191F0000F04BF01460020B1FA89
:1003500081F308BF2033A3F10B03B3F120020CDAC1
:100360000C3208DD02F1140CC2F10C0201FA0CF09F
:1003700021FA02F10CE002F11402D8BFC2F1200C04
:1003800001FA02F120FA0CFCDCBF41EA0C019040BA
:10039000E41AA2BF01EB0451294330BD6FEA040403
:1003A0001F3C1CDA0C340EDC04F11404C4F12002EE
:1003B00020FA04F001FA02F340EA030021FA04F300
:1003C00045EA030130BDC4F10C04C4F1200220FA57
:1003D00002F001FA04F340EA0300294630BD21FA95
:1003E00004F0294630BD94F0000F83F4801306BF5B
:1003F00081F480110134013D4EE77FEA645C18BF4F
:100400007FEA655C29D094EA050F08BF90EA020FE5
:1004100005D054EA000C04BF1946104630BD91EADD
:10042000030F1EBF0021002030BD5FEA545C05D1E0
:100430004000494128BF41F0004130BD14F580041F
:100440003CBF01F5801130BD01F0004545F0FE4193
:1004500041F470014FF0000030BD7FEA645C1ABFC8
:10046000194610467FEA655C1CBF0B46024650EAFF
:10047000013406BF52EA033591EA030F41F400212B
:1004800030BD00BF90F0000F04BF0021704730B5B1
:100490004FF4806404F132044FF000054FF0000186
:1004A00050E700BF90F0000F04BF0021704730B547
:1004B0004FF4806404F1320410F0004548BF40421C
:1004C0004FF000013EE700BF42004FEAE2014FEA71
:1004D00031014FEA02701FBF12F07F4393F07F4F4C
:1004E00081F06051704732F07F4208BF704793F04F
:1004F0007F4F04BF41F40021704730B54FF4607462
:1005000001F0004521F000411CE700BF50EA010264
:1005100008BF704730B54FF000050AE050EA01020D
:1005200008BF704730B511F0004502D5404261EB7D
:1005300041014FF4806404F132045FEA915C3FF4BE
:10054000D8AE4FF003025FEADC0C18BF03325FEA5B
:10055000DC0C18BF033202EBDC02C2F1200300FA0C
:1005600003FC20FA02F001FA03FE40EA0E0021FA31
:1005700002F11444BDE600BF844641EA000313F0D3
:1005800003036DD1403A41D351F8043B40F8043B9A
:1005900051F8043B40F8043B51F8043B40F8043B5D
:1005A00051F8043B40F8043B51F8043B40F8043B4D
:1005B00051F8043B40F8043B51F8043B40F8043B3D
:1005C00051F8043B40F8043B51F8043B40F8043B2D
:1005D00051F8043B40F8043B51F8043B40F8043B1D
:1005E00051F8043B40F8043B51F8043B40F8043B0D
:1005F00051F8043B40F8043B51F8043B40F8043BFD
:1006000051F8043B40F8043B403ABDD2303211D39C
:1006100051F8043B40F8043B51F8043B40F8043BDC
:1006200051F8043B40F8043B51F8043B40F8043BCC
:10063000103AEDD20C3205D351F8043B40F8043B9C
:10064000043AF9D2043208D0D2071CBF11F8013B9A
:1006500000F8013B01D30B8803806046704700BF60
:10066000082A13D38B078DD010F003038AD0C3F16F
:100670000403D21ADB071CBF11F8013B00F8013B51
:1006800080D331F8023B20F8023B7BE7043AD9D310
:10069000013A11F8013B00F8013BF9D20B780370E5
:1006A0004B7843708B788370604670470000000081
:1006B000000000000000000000000000000000003A
:1006C00090F800F06DE9024520F007016FF0000C92
:1006D00010F0070491F820F040F049804FF000043A
:1006E0006FF00700D1E9002391F840F000F1080015
:1006F00082FA4CF2A4FA8CF283FA4CF3A2FA8CF34D
:100700004BBBD1E9022382FA4CF200F10800A4FAB3
:100710008CF283FA4CF3A2FA8CF3E3B9D1E9042307
:1007200082FA4CF200F10800A4FA8CF283FA4CF33E
:10073000A2FA8CF37BB9D1E9062301F1200182FAF8
:100740004CF200F10800A4FA8CF283FA4CF3A2FAFE
:100750008CF3002BC6D0002A04BF04301A4612BA0C
:10076000B2FA82F2FDE8024500EBD2007047D1E90F
:10077000002304F00305C4F100004FEAC50514F09E
:10078000040F91F840F00CFA05F562EA05021CBF6F
:1007900063EA050362464FF00004A9E70000000089
:1007A00001F0FF01102A2BDB10F0070F08D010F822
:1007B000013B013A8B422DD010F0070F42B3F6D126
:1007C000F0B441EA012141EA014122F007047FF03F
:1007D00000070023F0E80256083C85EA010586EA96
:1007E000010685FA47F5A3FA87F586FA47F6A5FAD2
:1007F00087F68EB9EED1F0BC01F0FF0102F00702DE
:1008000032B110F8013B013A83EA010313B1F8D188
:100810000020704701387047002D06BF3546033869
:10082000073815F0010F07D1013015F4807F02BFA2
:10083000013015F4C03F0130F0BC0138704700BFF3
:1008400070B54FF0FF0C4CF4E06C1CEA11541DBF66
:100850001CEA135594EA0C0F95EA0C0F00F0DEF831
:100860002C4481EA030621EA4C5123EA4C5350EA16
:10087000013518BF52EA033541F4801143F4801367
:1008800038D0A0FB02CE4FF00005E1FB02E506F0F8
:100890000042E0FB03E54FF00006E1FB03569CF04D
:1008A000000F18BF4EF0010EA4F1FF04B6F5007F53
:1008B00064F5407404D25FEA4E0E6D4146EB0606C5
:1008C00042EAC62141EA55514FEAC52040EA5E504E
:1008D0004FEACE2EB4F1FD0C88BFBCF5E06F1ED8F8
:1008E000BEF1004F08BF5FEA500E50F1000041EB2F
:1008F000045170BD06F0004646EA010140EA0200DC
:1009000081EA0301B4EB5C04C2BFD4EB0C0541EAFD
:10091000045170BD41F480114FF0000E013C00F312
:10092000AB8014F1360FDEBF002001F0004170BD36
:10093000C4F10004203C35DA0C341BDC04F114044F
:10094000C4F1200500FA05F320FA04F001FA05F2DB
:1009500040EA020001F0004221F0004110EBD370A8
:1009600021FA04F642EB06015EEA430E08BF20EAD4
:10097000D37070BDC4F10C04C4F1200500FA04F377
:1009800020FA05F001FA04F240EA020001F0004109
:1009900010EBD37041F100015EEA430E08BF20EA7C
:1009A000D37070BDC4F1200500FA05F24EEA020EC4
:1009B00020FA04F301FA05F243EA020321FA04F0F3
:1009C00001F0004121FA04F220EA020000EBD370AA
:1009D0005EEA430E08BF20EAD37070BD94F0000FAA
:1009E0000FD101F00046400041EB010111F4801FDE
:1009F00008BF013CF7D041EA060195F0000F18BF8F
:100A0000704703F00046520043EB030313F4801FCA
:100A100008BF013DF7D043EA0603704794EA0C0F84
:100A20000CEA135518BF95EA0C0F0CD050EA41069A
:100A300018BF52EA4306D1D181EA030101F0004117
:100A40004FF0000070BD50EA410606BF104619463F
:100A500052EA430619D094EA0C0F02D150EA01364B
:100A600013D195EA0C0F05D152EA03361CBF10468C
:100A700019460AD181EA030101F0004141F0FE412B
:100A800041F470014FF0000070BD41F0FE4141F4AF
:100A9000780170BD70B54FF0FF0C4CF4E06C1CEAAF
:100AA00011541DBF1CEA135594EA0C0F95EA0C0F64
:100AB00000F0A7F8A4EB050481EA030E52EA03351F
:100AC0004FEA013100F088804FEA03334FF0805540
:100AD00045EA131343EA12634FEA022245EA11156D
:100AE00045EA10654FEA00260EF000419D4208BF1E
:100AF000964244F1FD0404F5407402D25B084FEACB
:100B00003202B61A65EB03055B084FEA32024FF476
:100B100080104FF4002CB6EB020E75EB030E22BFD3
:100B2000B61A754640EA0C005B084FEA3202B6EB93
:100B3000020E75EB030E22BFB61A754640EA5C0042
:100B40005B084FEA3202B6EB020E75EB030E22BFD2
:100B5000B61A754640EA9C005B084FEA3202B6EBD3
:100B6000020E75EB030E22BFB61A754640EADC0092
:100B700055EA060E18D04FEA051545EA16754FEAF4
:100B800006164FEAC30343EA52734FEAC2025FEA12
:100B90001C1CC0D111F4801F0BD141EA00014FF0A1
:100BA00000004FF0004CB6E711F4801F04BF014372
:100BB0000020B4F1FD0C88BFBCF5E06F3FF6AFAE8E
:100BC000B5EB030C04BFB6EB020C5FEA500C50F11E
:100BD000000041EB045170BD0EF0004E4EEA1131A1
:100BE00014EB5C04C2BFD4EB0C0541EA045170BDA8
:100BF00041F480114FF0000E013C90E645EA060EEC
:100C00008DE60CEA135594EA0C0F08BF95EA0C0F19
:100C10003FF43BAF94EA0C0F0AD150EA01347FF461
:100C200034AF95EA0C0F7FF425AF104619462CE738
:100C300095EA0C0F06D152EA03353FF4FDAE10469B
:100C4000194622E750EA410618BF52EA43067FF4EC
:100C5000C5AE50EA41047FF40DAF52EA43057FF47C
:100C6000EBAE12E74FF0FF3C06E000BF4FF0010C87
:100C700002E000BF4FF0010C4DF804CD4FEA410CEB
:100C80007FEA6C5C4FEA430C18BF7FEA6C5C1BD0B8
:100C900001B050EA410C0CBF52EA430C91EA030F39
:100CA00002BF90EA020F0020704710F1000F91EA96
:100CB000030F58BF994208BF90422CBFD8176FEA64
:100CC000E37040F0010070474FEA410C7FEA6C5C32
:100CD00002D150EA013C07D14FEA430C7FEA6C5C39
:100CE000D6D152EA033CD3D05DF8040B704700BF65
:100CF0008446104662468C461946634600E000BFB3
:100D000001B5FFF7B7FF002848BF10F1000F01BD84
:100D10004DF808EDFFF7F4FF0CBF012000205DF84F
:100D200008FB00BF4DF808EDFFF7EAFF34BF0120D4
:100D300000205DF808FB00BF4DF808EDFFF7E0FF6D
:100D400094BF012000205DF808FB00BF4DF808EDBE
:100D5000FFF7CEFF94BF012000205DF808FB00BF25
:100D60004DF808EDFFF7C4FF34BF012000205DF807
:100D700008FB00BF4FEA410C7FEA6C5C02D150EAED
:100D8000013C0AD14FEA430C7FEA6C5C02D152EA83
:100D9000033C02D14FF0000070474FF00100704754
:100DA0004FEA410212F5001215D211D56FF4787393
:100DB000B3EB625212D94FEAC12343F0004343EA36
:100DC000505311F0004F23FA02F018BF4042704711
:100DD0004FF00000704750EA013005D111F000409B
:100DE00008BF6FF0004070474FF00000704700BF31
:100DF00053B94AB9002908BF00281CBF4FF0FF3182
:100E00004FF0FF3000F072B9ADF1080C6DE904CE7F
:100E100000F006F8DDF804E0DDE9022304B07047D5
:100E20002DE9F047089E04468846002B4BD18A42A4
:100E3000154667D9B2FA82F24AB1C2F1200701FA27
:100E400002F320FA07F7954047EA030894404FEA77
:100E5000154E230CB8FBFEF71FFA85FC0EFB178816
:100E600043EA084307FB0CF1994209D9EB1807F153
:100E7000FF3080F01B81994240F21881023F2B44E1
:100E80005B1AA4B2B3FBFEF00EFB103344EA03443A
:100E900000FB0CFCA44509D92C1900F1FF3380F0AC
:100EA0000781A44540F2048102382C4440EA0740FF
:100EB000A4EB0C0400271EB1D4400023C6E9004374
:100EC0003946BDE8F0878B4209D9002E00F0EB804F
:100ED0000027C6E9000138463946BDE8F087B3FA75
:100EE00083F7002F47D18B4202D3824200F2FA806F
:100EF000841A61EB030301209846002EE0D0C6E976
:100F00000048DDE702B9FFDEB2FA82F2002A40F0C3
:100F10008F80491B4FEA154E1FFA85F80127B1FB58
:100F2000FEFC230C0EFB1C1143EA014308FB0CF1F1
:100F3000994207D9EB180CF1FF3002D2994200F226
:100F4000CD808446591AA3B2B1FBFEF00EFB1014FB
:100F500043EA044408FB00F8A04507D92C1900F126
:100F6000FF3302D2A04500F2B6801846A4EB080475
:100F700040EA0C409FE7C7F1200CBB4022FA0CFE70
:100F80004EEA030E01FA07F420FA0CF521FA0CF3ED
:100F90004FEA1E482543B3FBF8F92C0C08FB193324
:100FA0001FFA8EFA44EA034309FB0AF49C4202FA50
:100FB00007F200FA07F10BD91EEB030309F1FF302A
:100FC00080F087809C4240F28480A9F1020973443A
:100FD0001B1BADB2B3FBF8F008FB103345EA03442A
:100FE00000FB0AFAA24508D91EEB040400F1FF3306
:100FF0006BD2A24569D90238744440EA0940A0FB8B
:101000000289A4EB0A044C45C2464B4654D351D046
:10101000002E69D0B1EB0A0564EB030404FA0CFC62
:10102000FD40FC404CEA0505C6E90054002747E7AF
:10103000C2F1200320FA03F7954001FA02F021FAE9
:1010400003F34FEA154E3843010CB3FBFEF71FFACA
:1010500085F80EFB173341EA034107FB08F38B4287
:1010600004FA02F407D9691807F1FF3C2FD28B422A
:101070002DD9023F2944CB1A81B2B3FBFEF00EFBFF
:10108000103341EA034100FB08F38B4207D969188A
:1010900000F1FF3C17D28B4215D902382944C91AF6
:1010A00040EA07473BE73746304609E70746E7E6A9
:1010B0001846FBE64145ABD2B8EB020A69EB0E02DB
:1010C00001381346A4E76046E9E7184695E7674606
:1010D000D1E781467CE702382C4447E7ACF1020CAB
:1010E0002B442FE7384608E73746E9E6704700BF4C
:1010F00010B504460E4B18784FF47A73B3FBF0F337
:101100000C4A1068B0FBF3F000F0C8F868B90F2C77
:1011100001D901200AE0002221464FF0FF3000F003
:1011200061F8034B5C60002000E0012010BD00BFAF
:10113000000000200C00002008B5074A136843F0A7
:1011400010031360032000F02FF80020FFF7D0FFFA
:1011500002F022FC002008BD00200240034A116872
:10116000034B1B780B441360704700BFD40A002068
:1011700000000020014B1868704700BFD40A00200F
:1011800038B50446FFF7F6FF0546B4F1FF3F02D03D
:10119000044B1B781C44FFF7EDFF401BA042FAD321
:1011A00038BD00BF0000002010B50446C31E042B4C
:1011B0000FD80A4AD36823F4E0631B041B0C2402F3
:1011C00004F4E064234343F0BF6343F40033D3608B
:1011D00010BDBC21024802F0DDFBEAE700ED00E0B3
:1011E0007090000870B505460C4616460F2A25D8A3
:1011F0000F2C28D81B4BDB68C3F30223C3F1070273
:10120000042A28BF0422191D062921D9033B4FF0C7
:10121000FF3101FA02F224EA02049C4001FA03F3CE
:1012200026EA03063443002D14DB2401E4B205F161
:10123000604505F5614585F8004370BDD4210A4835
:1012400002F0A8FBD4E7D521074802F0A3FBD1E7C1
:101250000023DCE705F00F052401E4B2034B5C55E5
:10126000EBE700BF00ED00E07090000814ED00E037
:1012700010B5041E08DB04F01F026409012393402B
:10128000044A42F8243010BDE821034802F082FBF2
:10129000F1E700BF00E100E0709000080138B0F114
:1012A000807F0AD2064B5860064AF02182F823104C
:1012B0000020986007221A6070470120704700BF25
:1012C00010E000E000ED00E010B50446042800D076
:1012D00038B9042C0BD0094A136823F004031360B7
:1012E00010BD40F2E111064802F054FBF1E7034A59
:1012F000136843F004031360F2E700BF10E000E05E
:1013000070900008704708B5FFF7FCFF08BD0000AB
:101310002DE9F04782B006460C46B0F1904F16D04A
:10132000A44B984213D003F5806398420FD003F585
:10133000806398420BD003F58063984207D003F591
:101340008063984203D0C3219B4802F023FB2368AB
:101350009AB212B11B0C1B041BB1C421964802F0B7
:1013600019FB6368012B1ED9112B1CD0022B1AD03C
:10137000122B18D0914A934215D002F58012934255
:1013800011D002F5801293420DD0A2F5F8129342CB
:1013900009D002F58012934205D002F580129342E3
:1013A00001D0032B04D1A368022B06D800254AE004
:1013B000C521814802F0EEFAF5E7C6217E4802F029
:1013C000E9FAF3E7D6217C4802F0E4FA6DE0EA217D
:1013D000794802F0DFFA98E0042300E000238B4014
:1013E00003430232764941F82230764B1A68FB43B8
:1013F00003EA0201606810F4803F01D047EA02016D
:10140000704A1160526803EA0201606810F4003FFC
:1014100001D047EA02016B4A5160926803EA020177
:10142000606810F4801F01D047EA0201654A9160AC
:10143000D2681340616811F4001F01D047EA02032B
:10144000604AD3600135276837FA05F300F0AF80B2
:101450004FF0010808FA05F818EA0707F2D06368A8
:10146000022B01D0122B30D1B6F1904F16D0514B38
:101470009E4213D003F580639E420FD003F5806334
:101480009E420BD003F580639E4207D003F5806334
:101490009E4203D0D521484802F07CFA23690C2BE8
:1014A00003D90E2B01D00F2B8CD1EA08083256F845
:1014B000220005F0070399000F238B4020EA030068
:1014C00023698B40034346F8223032684FEA450ACD
:1014D0004FF0030909FA0AF96FEA090909EA020259
:1014E000636803F0030303FA0AF31343336063688A
:1014F0005A1E012A03D9112B01D0122B17D1E368F0
:10150000012B02D9032B7FF462AFB26809EA020211
:10151000E36803FA0AF31343B360736823EA080825
:101520006368C3F30013AB4043EA08037360F368D6
:1015300009EA0309A36803FA0AF343EA0903F3601B
:10154000636813F0805F3FF47DAF1F4B9A6942F0F0
:1015500001029A619B6903F001030193019BAA08B0
:10156000911C174B53F8210005F0030399000F233A
:101570008B4020EA0300B6F1904F3FF42FAF0D4BA4
:101580009E420ED003F580639E420CD003F580632B
:101590009E420AD003F580639E423FF41DAF0523AF
:1015A0001DE701231BE7022319E7032317E702B016
:1015B000BDE8F08700040048AC900008000011105E
:1015C00000000140000401400010024070B50546D3
:1015D00014460E4621B1012C08D86CB9AE6270BD1C
:1015E0004FF4D871054802F0D5F9F4E740F2B11193
:1015F000024802F0CFF9F0E7AE61F0E7AC900008E6
:1016000008B5054B5B69034200D108BD024B586128
:1016100002F000F8F9E700BF0004014003689A698E
:1016200012F0020F01D000229A6203689A6912F048
:10163000010F03D19A6942F001029A6170470000DC
:101640002DE9F04180460C4617461E46069D03686C
:10165000224A934208D002F58062934204D041F2BC
:1016600068211F4802F096F9B6F1807F03D0B6F1E9
:10167000007F00D02EBB1B4B9D4208D0A3F5E0534A
:101680009D4204D0A3F580639D4200D0FDB9D8F8F7
:1016900000104B686A0D02F4806242F07F7242F4DF
:1016A000583242F47F7242F0030223EA0203C4F389
:1016B000090444EA074434432C431C434C60BDE80E
:1016C000F08141F26921064802F064F9D3E741F262
:1016D0006A21034802F05EF9D9E700BF00540040D8
:1016E000E89000080040008070B504460D4616469C
:1016F00003689B6913F0100F17D023689A6912F0E2
:10170000200F14D1B5F1FF3FF7D025B1FFF732FD1F
:10171000801BA842F1D9202384F84130002384F8AB
:10172000423084F8403003201EE000201CE01022EC
:10173000DA6123682025DD612046FFF76FFF22680C
:10174000536823F0FF7323F48B3323F4FF7323F0E8
:10175000010353600423636484F84150002384F838
:10176000423084F84030012070BD70B504460D460B
:10177000164623689B6913F0020F1CD13246294696
:101780002046FFF7B1FFC0B9B5F1FF3FF1D025B159
:10179000FFF7F0FC801BA842EBD9636C43F02003F9
:1017A0006364202384F84130002384F8423084F8B5
:1017B0004030032000E0002070BD0120FCE7F8B5B8
:1017C00005460F4616461C462B689B6937EA0303FD
:1017D0000CBF01230023B34213D1B4F1FF3FF3D078
:1017E0002CB1FFF7C7FC069BC01AA042ECD92023FE
:1017F00085F84130002385F8423085F840300320D9
:1018000000E00020F8BD70B505460C4616462B6872
:101810009B6913F0200F19D1324621462846FFF765
:1018200063FFA8B924B1FFF7A5FC801BA042EED945
:101830006B6C43F020036B64202385F84130002358
:1018400085F8423085F84030032070BD0020FCE769
:101850000120FAE7002800F0AF8010B504460368C5
:10186000564A934208D002F58062934204D040F277
:10187000A311534802F08EF8A368B3F5806F60D2CD
:10188000E368013B012B62D8236913B1B3F5004F24
:1018900063D16369FF2B66D8A369072B69D8E36915
:1018A00013B1B3F5002F6AD1236A13B1B3F5003F2A
:1018B0006BD194F84130002B6DD0242384F8413053
:1018C0002268136823F0010313606368226823F021
:1018D000706313612268936823F400439360E368A4
:1018E000012B5ED0A368226843F404439360E3684D
:1018F000022B5CD02268536843F0007343F400432A
:1019000053602268D36823F40043D360236962697B
:101910001343A169226843EA0123D360E369216A82
:1019200022680B4313602268136843F001031360BD
:1019300000206064202384F84130206384F8420052
:1019400010BD4FF4D2711E4802F024F898E740F21F
:10195000A5111B4802F01EF896E74FF4D371184802
:1019600002F018F895E740F2A711154802F012F8B6
:1019700092E74FF4D471124802F00CF88FE740F26E
:10198000A9110F4802F006F88EE74FF4D5710C4804
:1019900002F000F88DE784F84030204601F0D8FDD1
:1019A0008BE7A368226843F4004393609FE72368B2
:1019B0004FF400625A609DE70120704700540040D8
:1019C000E89000082DE9F04383B090F84150EDB263
:1019D000202D40F0AD8090F84040012C00F0AD800B
:1019E000984617460E4604464FF0010980F840908D
:1019F000FFF7C0FB0546009019234A464FF400410B
:101A00002046FFF7DCFE002840F09980212384F86F
:101A10004130102384F84230002363646762A4F8E5
:101A20002A806363638D9BB2FF2B0AD9FF22228534
:101A3000474B00934FF0807331462046FFF700FE7E
:101A40001DE0628D92B22285414B00934FF00073EE
:101A5000D2B231462046FFF7F3FD10E0636C042B51
:101A60006FD1012365E0628D92B22285002300933D
:101A70004FF00073D2B231462046FFF7E1FD638D8F
:101A80009BB2002B32D02A460A992046FFF76DFE02
:101A90000028E3D1636A5A1C626222681B78936251
:101AA000638D013B9BB26385238D013B9BB22385F4
:101AB000002BE4D1638D9BB2002BE0D000950A9BF4
:101AC000002280212046FFF77AFE00283BD1638D5B
:101AD0009BB2FF2BC7D9FF222285002300934FF032
:101AE000807331462046FFF7ABFDC8E72A460A99C6
:101AF0002046FFF788FE034620B1636C042B24D1F7
:101B0000012316E022682021D1612068426822F07A
:101B1000FF7222F48B3222F4FF7222F00102426043
:101B200084F84110002284F8422084F8402000E02C
:101B30000223184603B0BDE8F0830223F9E703232C
:101B4000F7E70323F5E70323F3E70323F1E700BFF8
:101B5000002000802DE9F04784B00024039490F821
:101B60004140E4B2202C40F094800468A46914F44D
:101B7000004F40F0938090F84040012C00F090809E
:101B80001F4691468A460646012380F840302423AA
:101B900080F841300023436422E0CAF3090343F094
:101BA000007343F4005322E0AB6913F0100F43D0ED
:101BB000CDF800803B46002220213046FFF7FFFD94
:101BC000002871D133681022DA6133682022DA618B
:101BD000039B5A1C03924B4541D0039B4B4550D26B
:101BE000F368012BD9D0CAF3090343F420533268B8
:101BF0005360FFF7BFFA80463568AB6913F0200FDA
:101C0000D2D1AB6913F0100FCED196F84140E4B2B7
:101C1000A02CC9D0B7F1FF3FEED02FB1FFF7AAFA41
:101C2000A0EB0800B842E7D9202386F84130002312
:101C300086F8403003232DE0CDF800803B4600229B
:101C400020213046FFF7BBFD034658BB31682022F8
:101C5000CA6186F84120002286F840201AE03268E6
:101C6000536843F480435360CDF800803B46002224
:101C700020213046FFF7A3FDC0B933682022DA6186
:101C8000ABE7202386F84130002386F84030032359
:101C900000E00223184604B0BDE8F0870223F9E70C
:101CA0000223F7E70323F5E70323F3E70323F1E731
:101CB00038B504460D460368204A934207D002F522
:101CC0008062934203D074211D4801F063FE15B178
:101CD000B5F5805F28D194F84130DBB2202B28D1B4
:101CE00094F84030012B26D0012384F8403024237F
:101CF00084F841302268136823F0010313602268DE
:101D0000136823F480531360226813681D43156021
:101D10002268136843F001031360202384F84130E4
:101D2000002084F8400005E07521054801F032FEEE
:101D3000D1E7022038BD0220FCE700BF005400407C
:101D40002091000838B504460D4603681E4A9342A8
:101D500007D002F58062934203D0A2211B4801F014
:101D600019FE0F2D26D894F84130DBB2202B26D156
:101D700094F84030012B24D0012384F840302423F0
:101D800084F841302268136823F00103136023684C
:101D9000196821F4706141EA05211960226813680D
:101DA00043F001031360202384F84130002084F8BD
:101DB000400005E0A321054801F0ECFDD3E7022037
:101DC00038BD0220FCE700BF00540040209100080D
:101DD000002800F08A8370B582B00446036813B10E
:101DE00013F00F0F2BD0236813F0010F4FD063684F
:101DF0002BB1B3F5803F02D0B3F5A02F25D1B44B62
:101E00005B6803F00C03042B2AD0B14B5B6803F032
:101E10000C03082B1FD06368B3F5803F7CD0002BE8
:101E200040F0A68003F1804303F504331A6822F4DE
:101E300080321A601A6822F480221A6071E040F23F
:101E40005711A44801F0A6FDCDE740F25D11A1486D
:101E500001F0A0FDD3E79E4B5B6813F4803FDAD01E
:101E60004FF4003393FAA3F3994B19684FF40033FE
:101E700093FAA3F3B3FA83F303F01F03012202FAE8
:101E800003F30B4203D06368002B00F03083236818
:101E900013F0020F00F0DA802369012B00F2A0801A
:101EA00063691F2B00F2A280894B5B6813F00C0F53
:101EB00000F0A880864B5B6803F00C03082B00F051
:101EC0009B802369002B00F00981012292FAA2F382
:101ED000B3FA83F303F1845303F584139B001A6070
:101EE000FFF748F90546022393FAA3F3784B1968E4
:101EF000022393FAA3F3B3FA83F303F01F0301223F
:101F000002FA03F30B4240F0D380FFF733F9401B92
:101F10000228E8D90320F1E26D4A136843F48033C4
:101F200013606B4AD36A23F00F03A1680B43D3629B
:101F30006368002B36D0FFF71DF905464FF40033D8
:101F400093FAA3F3624B19684FF4003393FAA3F3A7
:101F5000B3FA83F303F01F03012202FA03F30B42E7
:101F600095D1FFF707F9401B6428E7D90320C5E2A4
:101F7000B3F5A02F09D0564B1A6822F480321A60AC
:101F80001A6822F480221A60CBE703F18043A3F59C
:101F90003C331A6842F480221A601A6842F4803294
:101FA0001A60BEE7FFF7E6F805464FF4003393FAF0
:101FB000A3F3474B19684FF4003393FAA3F3B3FA32
:101FC00083F303F01F03012202FA03F30B423FF4F1
:101FD0005EAFFFF7CFF8401B6428E6D903208DE2FF
:101FE00040F295113B4801F0D5FC59E74FF4CB7115
:101FF000384801F0CFFC57E7354B5B6813F4803F5E
:102000007FF45FAF022393FAA3F3314B19680223E5
:1020100093FAA3F3B3FA83F303F01F03012202FA46
:1020200003F30B4204D02369934201D0012065E2FF
:102030002748036823F0F8036169F82292FAA2F2B4
:10204000B2FA82F201FA02F213430360236813F03A
:10205000080F00F09880A369012B66D8A369002BB4
:1020600069D0012191FAA1F2B2FA82F21A4B13441B
:102070009B001960FFF77EF80546022393FAA3F24E
:1020800093FAA3F293FAA3F2114A516A93FAA3F3D3
:10209000B3FA83F303F01F03012202FA03F30B42A6
:1020A00071D1FFF767F8401B0228E6D9032025E22B
:1020B0000748036823F0F8036169F82292FAA2F254
:1020C000B2FA82F201FA02F213430360BEE700BFE4
:1020D000001002405C91000820819010012393FAC7
:1020E000A3F3B3FA83F303F1845303F584139B0042
:1020F00000221A60FFF73EF80546022393FAA3F385
:10210000B94B1968022393FAA3F3B3FA83F303F0EC
:102110001F03012202FA03F30B4297D0FFF72AF8BC
:10212000401B0228E9D90320E8E14FF4EB71AF48E6
:1021300001F030FC92E7012292FAA2F2B2FA82F2A6
:10214000AB4B13449B0000221A60FFF713F80546BF
:10215000022393FAA3F293FAA3F293FAA3F2A24A08
:10216000516A93FAA3F3B3FA83F303F01F03012236
:1021700002FA03F30B4206D0FEF7FCFF401B0228D5
:10218000E6D90320BAE1236813F0040F00F0C08001
:10219000E368012B01D9052B26D1934BDB6913F0A2
:1021A000805F27D1904BDA6942F08052DA61DB69B7
:1021B00003F080530193019B01258E4B1B6813F4A0
:1021C000807F19D0E368012B2AD0002B34D103F192
:1021D000804303F504331A6A22F001021A621A6A74
:1021E00022F004021A6220E040F202217F4801F04E
:1021F000D1FBD2E70025E0E77E4A136843F4807301
:102200001360FEF7B7FF06467A4B1B6813F4807F16
:10221000D8D1FEF7AFFF801B6428F5D903206DE10C
:10222000714A136A43F001031362E368002B41D043
:10223000FEF7A0FF06462BE0052B09D06A4B1A6A71
:1022400022F001021A621A6A22F004021A62ECE712
:10225000654B1A6A42F004021A621A6A42F00102DD
:102260001A62E2E7604B196A022393FAA3F3B3FA06
:1022700083F303F01F03012202FA03F3194245D14D
:10228000FEF778FF801B41F28833984200F23181DB
:10229000022393FAA3F293FAA3F3B3FA83F35B094D
:1022A00043F00203022BDDD0022393FAA3F34E4B3B
:1022B000596AD9E7FEF75EFF064615E04A4B196AF0
:1022C000022393FAA3F3B3FA83F303F01F0301226B
:1022D00002FA03F3194219D0FEF74CFF801B41F2BA
:1022E0008833984200F20781022393FAA3F293FA0B
:1022F000A3F3B3FA83F35B0943F00203022BDDD0AF
:10230000022393FAA3F3384B596AD9E7002D73D10E
:10231000E369022B76D8E369002B00F0EE80324AA5
:10232000526802F00C02082A00F0EA80022B40F00A
:10233000B080236A13B1B3F5803F69D1636A4BB3B0
:10234000B3F5802F26D0B3F5002F23D0B3F5402F5F
:1023500020D0B3F5801F1DD0B3F5A01F1AD0B3F560
:10236000C01F17D0B3F5E01F14D0B3F5001F11D074
:10237000B3F5101F0ED0B3F5201F0BD0B3F5301FEF
:1023800008D0B3F5401F05D0B3F5501F02D0B3F508
:10239000601F43D14FF0807393FAA3F3B3FA83F332
:1023A00003F1845303F584139B0000221A60FEF7A7
:1023B000E1FE05464FF0007393FAA3F30A4B196848
:1023C0004FF0007393FAA3F3B3FA83F303F01F0300
:1023D000012202FA03F3194226D0FEF7CBFE401B7E
:1023E0000228E7D9032089E0001002405C91000830
:1023F0002081901000700040424AD36923F080533E
:10240000D36185E740F246213F4801F0C3FA82E7F5
:1024100040F24F213C4801F0BDFA8FE74FF41471B0
:10242000394801F0B7FAB5E736494B6823F474131D
:10243000626A206A024313434B604FF0807393FA41
:10244000A3F3B3FA83F303F1845303F584139B00DE
:1024500001221A60FEF78EFE04464FF0007393FAD5
:10246000A3F3284B19684FF0007393FAA3F3B3FA60
:1024700083F303F01F03012202FA03F3194206D18A
:10248000FEF778FE001B0228E7D9032036E0002083
:1024900034E04FF0807393FAA3F3B3FA83F303F1BC
:1024A000845303F584139B0000221A60FEF762FE3A
:1024B00004464FF0007393FAA3F3124B19684FF0E0
:1024C000007393FAA3F3B3FA83F303F01F0301221B
:1024D00002FA03F3194206D0FEF74CFE001B022855
:1024E000E7D903200AE0002008E00120704701201E
:1024F00004E0032002E0032000E0002002B070BDF1
:102500000120FBE7001002405C91000810B4174B5B
:102510005C6804F00C03082B26D104F470124FF40D
:10252000701393FAA3F3B3FA83F322FA03F3104977
:10253000C85C0E4BDB6A03F00F030F2292FAA2F283
:10254000B2FA82F2D3400B441A7C14F4803F05D1D6
:10255000084B03FB00F05DF8044B7047064BB3FBE0
:10256000F2F300FB03F0F6E70348F4E70010024043
:102570003890000800093D0000127A00002800F0A1
:102580001B8170B504460D46036813F00F0F14D07D
:10259000022D18D88A4B1B6803F00703AB4218D2F0
:1025A000874A136823F007032B431360136803F073
:1025B0000703AB420DD0012070BD40F2BA21814823
:1025C00001F0E8F9E4E740F2BB217E4801F0E2F9CE
:1025D000E0E7236813F0020F18D0A3687BB1802BCB
:1025E0000DD0902B0BD0A02B09D0B02B07D0C02B37
:1025F00005D0D02B03D0E02B01D0F02B3ED1724A76
:10260000536823F0F003A1680B435360236813F071
:10261000010F69D06368022B36D86368012B39D06B
:10262000022B4CD0022292FAA2F2674A10680222D0
:1026300092FAA2F2B2FA82F202F01F02012101FA2A
:1026400002F2104200F0BA805F494A6822F00302A9
:1026500013434B60FEF78EFD06465B4B5B6803F051
:102660000C036268B3EB820F3ED0FEF783FD801B44
:1026700041F288339842F0D903209DE740F2D221FD
:10268000504801F087F9BAE740F2D9214D4801F0EE
:1026900081F9C2E74FF4003292FAA2F24A4A106876
:1026A0004FF4003292FAA2F2B2FA82F202F01F0262
:1026B000012101FA02F20242C6D101207CE74FF06B
:1026C000007292FAA2F2404A10684FF0007292FA39
:1026D000A2F2B2FA82F202F01F02012101FA02F222
:1026E0001042B1D1012067E7354B1B6803F00703A7
:1026F000AB420CD9324A136823F007032B43136013
:10270000136803F00703AB4201D0012054E72368AC
:1027100013F0040F14D0E3685BB1B3F5806F08D0F9
:10272000B3F5A06F05D0B3F5C06F02D0B3F5E06F7D
:1027300036D1254A536823F4E063E1680B435360C4
:10274000236813F0080F15D023695BB1B3F5806FD0
:1027500008D0B3F5A06F05D0B3F5C06F02D0B3F5C4
:10276000E06F23D1184A536823F46053216943EA88
:10277000C1035360FFF7CAFE134B5B6803F0F0031D
:10278000F02292FAA2F2B2FA82F2D3400F4AD35C5C
:10279000D8400F4B18600020FEF7AAFC00200BE782
:1027A00040F21531074801F0F5F8C2E74FF44771E0
:1027B000044801F0EFF8D5E7012070470120FBE65F
:1027C000002002405C910008001002405890000870
:1027D0000C000020014B1868704700BF0C0000205F
:1027E000F0B583B004460368B3F54D3F80F0A28195
:1027F000236813F4803F54D063684BB1B3F5807FF6
:1028000006D0B3F5007F03D0B3F5407F40F0978149
:10281000964BDB6913F0805F40F09681934BDA6949
:1028200042F08052DA61DB6903F080530193019B2F
:1028300001258F4B1B6813F4807F00F087818B4B41
:102840001B6A13F4407322D0626802F440729A4209
:102850001DD08648016A21F440764FF4803393FA04
:10286000A3F2B2FA82F2834F3A4492004FF0010C85
:10287000C2F800C093FAA3F3B3FA83F33B449B007E
:1028800000221A60066211F0010F40F07481774A4D
:10289000136A23F4407361680B431362002D40F008
:1028A0009681236813F0010F0AD0A368032B00F26E
:1028B00093816E4A136B23F00303A1680B431363E8
:1028C000236813F0020F12D0E3684BB1B3F5803FD9
:1028D00006D0B3F5003F03D0B3F5403F40F081810F
:1028E000624A136B23F44033E1680B43136323689C
:1028F00013F0040F12D023694BB1B3F5802F06D02B
:10290000B3F5002F03D0B3F5402F40F06F81574A45
:10291000136B23F4402321690B431363236813F0E3
:10292000200F0BD0E36913B1102B40F064814F4AA4
:10293000136B23F01003E1690B431363236813F453
:10294000003F0DD0A36BB3F5800F02D0002B40F0F9
:102950005781464A536823F48003A16B0B435360AD
:10296000236813F0400F0BD0236A13B1202B40F0E3
:102970004C813E4A136B23F02003216A0B431363FF
:10298000236813F0080F12D063694BB1B3F5801FB1
:1029900006D0B3F5001F03D0B3F5401F40F03B81D4
:1029A000324A136B23F4401361690B4313632368AA
:1029B00013F0100F12D0A3694BB1B3F5800F06D0FE
:1029C000B3F5000F03D0B3F5400F40F02A81274A3A
:1029D000136B23F44003A1690B431363236813F4BF
:1029E000007F0CD0E36A1BB1B3F5000F40F01F81EC
:1029F0001E4A536823F40003E16A0B4353602368C3
:102A000013F0800F3AD0636A43B3B3F5807F25D0CB
:102A1000B3F5887F22D0B3F5907F1FD0B3F5987FB0
:102A20001CD0B3F5A07F19D0B3F5A87F16D0B3F5AD
:102A3000B07F13D0B3F5B87F10D0B3F5C07F0DD001
:102A4000B3F5C87F0AD0B3F5D07F07D0B3F5D87FF0
:102A500004D040F26911084800F09CFF034AD36A91
:102A600023F4F873616A0B43D36207E0001002405D
:102A7000007000400081901094910008236813F4C6
:102A8000807F31D0A36A43B3B3F5005F25D0B3F59F
:102A9000085F22D0B3F5105F1FD0B3F5185F1CD0CC
:102AA000B3F5205F19D0B3F5285F16D0B3F5305FCA
:102AB00013D0B3F5385F10D0B3F5405F0DD0B3F548
:102AC000485F0AD0B3F5505F07D0B3F5585F04D024
:102AD0004FF4BD71614800F05DFF614AD36A23F491
:102AE0007853A16A0B43D362236813F4805F0CD040
:102AF000236B1BB1B3F5807F40F09F80584A136B66
:102B000023F48073216B0B431363236813F4005F7A
:102B100000F0A180636B1BB1B3F5007F40F09380A0
:102B20004F4A136B23F40073616B0B431363002054
:102B300003B0F0BD7D21494800F02CFF58E6832109
:102B4000464800F027FF63E6002572E6454A136811
:102B500043F480731360FEF70DFB0646414B1B6880
:102B600013F4807F7FF46BAEFEF704FB801B6428B8
:102B7000F4D90320DCE7FEF7FDFA064615E0384BF2
:102B8000196A022393FAA3F3B3FA83F303F01F0342
:102B9000012202FA03F30B427FF479AEFEF7EAFA60
:102BA000801B41F28833984253D8022393FAA3F250
:102BB00093FAA3F3B3FA83F35B0943F00203022B06
:102BC000DDD0022393FAA3F3254B596AD9E7D369E1
:102BD00023F08053D36164E6CA21204800F0DAFE76
:102BE00067E6D5211D4800F0D5FE79E6E1211B48B6
:102BF00000F0D0FE8BE6EC21184800F0CBFE96E604
:102C0000FA21164800F0C6FEA3E64FF48771134878
:102C100000F0C0FEADE640F22F11104800F0BAFE01
:102C2000BEE640F239110D4800F0B4FECFE640F2A6
:102C300049110A4800F0AEFEDAE64FF4CD710748BC
:102C400000F0A8FE5AE74FF4D671044800F0A2FE47
:102C500066E703206CE700206AE700BF9491000854
:102C6000001002400070004010B504460368214A7D
:102C7000934227D0B3F1804F24D0A2F594329342EF
:102C800020D002F5806293421CD002F5006293428C
:102C900018D002F58062934214D002F5903293422C
:102CA00010D002F5406293420CD002F5806293424C
:102CB00008D002F58062934204D04FF4A4710E480C
:102CC00000F068FE022384F83D302368196A41F25F
:102CD0001112114208D1196A40F24442114203D143
:102CE0001A6822F001021A60012384F83D300020A6
:102CF00010BD00BF002C0140D091000810B5044663
:102D000003681B4A934227D0B3F1804F24D0A2F529
:102D10009432934220D002F5806293421CD002F597
:102D20000062934218D002F58062934214D002F5FB
:102D30009032934210D002F5406293420CD002F5DB
:102D40008062934208D002F58062934204D040F240
:102D50005F11084800F01EFE2268D36843F00103AB
:102D6000D3602268136843F001031360002010BD94
:102D7000002C0140D09100087047704770477047A1
:102D800010B5044603681A6912F0020F11D0DA6810
:102D900012F0020F0DD06FF002021A6101230377C7
:102DA00003689B6913F0030F79D0FFF7E6FF002358
:102DB000237723681A6912F0040F12D0DA6812F030
:102DC000040F0ED06FF004021A61022323772368E8
:102DD0009B6913F4407F68D02046FFF7CEFF0023A5
:102DE000237723681A6912F0080F12D0DA6812F0FC
:102DF000080F0ED06FF008021A61042323772368AE
:102E0000DB6913F0030F57D02046FFF7B6FF00230E
:102E1000237723681A6912F0100F12D0DA6812F0C3
:102E2000100F0ED06FF010021A6108232377236869
:102E3000DB6913F4407F46D02046FFF79EFF002356
:102E4000237723681A6912F0010F03D0DA6812F0B1
:102E5000010F3FD123681A6912F0800F03D0DA689E
:102E600012F0800F3DD123681A6912F4807F03D0DD
:102E7000DA6812F0800F3BD123681A6912F0400F14
:102E800003D0DA6812F0400F39D123681A6912F0C2
:102E9000200F03D0DA6812F0200F37D110BDFFF7F2
:102EA0006BFF2046FFF76AFF81E72046FFF764FFCC
:102EB0002046FFF763FF92E72046FFF75DFF2046BD
:102EC000FFF75CFFA3E72046FFF756FF2046FFF71A
:102ED00055FFB4E76FF001021A61204600F06EFB67
:102EE000B8E76FF080021A61204600F08CF9BAE76B
:102EF0006FF480721A61204600F086F9BCE76FF02B
:102F000040021A612046FFF73AFFBEE76FF0200249
:102F10001A61204600F076F9C0E7000003682C4AE9
:102F200090420ED0B0F1804F0BD0A2F59432904277
:102F300007D002F58062904203D002F596329042AB
:102F400003D123F070034A681343214A90421AD0F8
:102F5000B0F1804F17D0A2F59432904213D002F511
:102F6000806290420FD002F5963290420BD002F56B
:102F70004062904207D002F58062904203D002F591
:102F80008062904203D123F44073CA68134323F054
:102F900080034A69134303608B68C3620B688362D2
:102FA0000B4B98420FD003F5006398420BD003F50A
:102FB0004063984207D003F58063984203D003F53D
:102FC0008063984201D10B69036301234361704719
:102FD000002C0140002866D010B504460368334A2F
:102FE000934226D0B3F1804F23D0A2F5943293427E
:102FF0001FD002F5806293421BD002F5006293421B
:1030000017D002F58062934213D002F590329342BA
:103010000FD002F5406293420BD002F580629342DA
:1030200007D002F58062934203D0D521204800F0FA
:10303000B1FCA3683BB1102B05D0202B03D0402B53
:1030400001D0602B1AD123692BB1B3F5807F02D058
:10305000B3F5007F17D1A3690BB1802B18D194F879
:103060003D30D3B1022384F83D30211D2068FFF7A5
:1030700055FF012384F83D30002010BDD6210C48B7
:1030800000F088FCDFE7D721094800F083FCE2E785
:10309000D821074800F07EFCE1E784F83C30204668
:1030A00000F03EFDDEE70120704700BF002C01402C
:1030B000D0910008F8B504460D4603684F4A934284
:1030C0001FD0B3F1804F1CD0A2F59432934218D098
:1030D00002F58062934214D002F50062934210D050
:1030E00002F5806293420CD002F59032934208D0F0
:1030F00002F54062934204D040F21771404800F05C
:1031000049FC2B686BB1102B0BD0202B09D0302B36
:1031100007D0402B05D0502B03D0602B01D0702B53
:103120005DD1AB68802B01D0002B5ED194F83C3090
:10313000012B60D0012384F83C3023685E689F68CF
:103140002E4A934203D002F50062934237D16B6856
:103150008BB3B3F5801F2ED0B3F5001F2BD0B3F582
:10316000401F28D0B3F5800F25D0B3F5A00F22D093
:10317000B3F5C00F1FD0B3F5E00F1CD0B3F5000FAF
:1031800019D0B3F5100F16D0B3F5200F13D0B3F547
:10319000300F10D0B3F5400F0DD0B3F5500F0AD05B
:1031A000B3F5600F07D0B3F5700F04D04FF4E561AD
:1031B000134800F0EFFB26F470066B681E4326F000
:1031C00070062B681E4327F08007AB683B432268DC
:1031D000566022689360002084F83C00F8BD4FF4EC
:1031E000E361074800F0D6FB9BE740F21971044801
:1031F00000F0D0FB9AE70220F0E700BF002C01406E
:10320000089200087047704770470000F0B585B01D
:1032100006460D461746B4B24FF0FF330122214651
:103220001548FEF797FC0028F5D105F0F0032A01B8
:10323000D2B23B4343F00C018DF80C1043F008036D
:103240008DF80D303A4342F00C038DF80E3042F009
:1032500008028DF80F204FF0FF330093042303AAD8
:1032600021460548FEF7AEFB04460520FDF788FF22
:10327000204605B0F0BD00BFD80A002008B50022E6
:10328000FFF7C4FF08BD08B50122FFF7BFFF08BD67
:1032900084B010B5044603A880E80E004C22014615
:1032A0000B48FDF769F930212046FFF7E7FF0221BF
:1032B0002046FFF7E3FF0C212046FFF7DFFF012147
:1032C0002046FFF7DBFFBDE8104004B0704700BFA9
:1032D000D80A002038B505460C4603E02846FFF71B
:1032E000D2FF013421780029F8D138BD08B5034B4D
:1032F00018780121FFF7C2FF08BD00BF08000020B9
:1033000010B50C4650B9084B18788021FFF7B6FF6E
:10331000054B18782146FFF7DDFF10BD024B1878EA
:10332000C021FFF7ABFFF3E70800002010B51446FB
:1033300060B90A4B187861F07F01C9B2FFF79EFFB0
:10334000064B18782146FFF7C5FF10BD034B1878D0
:1033500061F03F01C9B2FFF791FFF1E708000020DB
:1033600000B585B00A4601A900F064FC034B18784B
:1033700001A9FFF7AFFF05B05DF804FB08000020CE
:1033800030B585B004460D4610461A4601A900F036
:1033900051FC01AA29462046FFF7C8FF05B030BD01
:1033A000F0B58DB0494B5A6942F400125A615A691E
:1033B00002F400120192019A5A6942F400225A6101
:1033C0005A6902F400220292029A5A6942F4800277
:1033D0005A615A6902F480020392039A5A6942F4CC
:1033E00000325A615A6902F400320492049A5A690E
:1033F00042F480225A615A6902F480220592059AA9
:103400005A6942F480125A615B6903F4801306938F
:10341000069B2F4E00224FF480413046FEF7D6F82F
:103420004FF6FF770797032508950024099407A90D
:103430002848FDF76DFF07970895099407A92648C6
:10344000FDF766FF40F2576307930895099407A9B3
:103450002248FDF75DFF41F6FF7307930895099435
:1034600007A94FF09040FDF753FF4FF67F73079386
:103470000895099407A91A48FDF74AFF43F6FF7318
:1034800007930895099407A93046FDF741FF4FF4CB
:10349000804307930123089309940A9407A93046AF
:1034A000FDF736FF4FF4004307930E4B0893099442
:1034B00007A93046FDF72CFF224621462820FDF7BC
:1034C00091FE2820FDF7D4FE0DB0F0BD00100240A3
:1034D000000C004800100048000800480014004894
:1034E000000400480000311008B51548154B036072
:1034F000154B4360002383600122C2600361436176
:103500008361C3610362FEF7A5F950B900210C483D
:10351000FEF7CEFB50B900210948FEF713FC50B965
:1035200008BD4221094800F0C3F8EFE749210748E8
:1035300000F0BEF8EFE75021044800F0B9F8EFE7DB
:10354000D80A0020005400400E09002044920008D0
:103550000268174B9A4200D07047F0B587B04FF41D
:103560000043019312270297012603960325049531
:10357000042405940DEB04014FF09040FDF7C8FEC4
:103580008023019302970396049505940DEB0401A3
:103590000848FDF7BDFE084BDA6942F40012DA6113
:1035A000DB6903F400130093009B07B0F0BD00BF7C
:1035B0000054004000040048001002400268044B20
:1035C0009A4200D07047034A136801331360F9E749
:1035D00000100040E809002010B50A4C2046FFF713
:1035E00043FB094B1B68094AA2FB03239B0C22687F
:1035F000013B936200235362054A13602046FFF7A4
:103600007DFB10BD300B00200C00002083DE1B432F
:10361000E8090020B0F5004F00D0704710B41F4BF0
:103620001B79DBB2022B05D0032B1BD01B4B0822CE
:103630001A7114E01A4B1B68DA6822F00102DA6092
:1036400016480268596A42F2107404FB0212D968E3
:1036500041F00101D960134B1A60032303715DF837
:10366000044B70470E4B1B68DA6822F00102DA60E7
:103670000A480268596A42F2107404FB0212D968BF
:1036800041F00101D960084B1A601B68054A1268B5
:103690009B1A064A136007230371E0E7E80900203C
:1036A000300B00202C0B0020280B0020240B0020C6
:1036B000FEE7000000B59FB0022314930122189288
:1036C000102219921B9300231C934FF460131D9337
:1036D00014A8FEF77DFB48BB0F230F930221109126
:1036E000002311934FF48062129213930FA8FEF7F8
:1036F00045FF00BB20230093002307936846FFF794
:103700006FF8E8B9FFF766F8104BA3FB00308009AB
:10371000FDF7C4FD0420FDF7D7FD002211464FF050
:10372000FF30FDF75FFD1FB05DF804FB4FF49471AF
:103730000748FFF7BDFF4FF49B710548FFF7B8FF3F
:1037400040F23D110248FFF7B3FF00BFD34D6210B6
:103750005492000870B590B005F0BEFBFDF7ECFC8C
:10376000FFF7A8FFFFF71CFEFFF7BEFE00F0ACF965
:10377000FFF732FF00224FF480417348FDF726FF28
:10378000724E6C4606F10C050FCD0FC40FCD0FC461
:103790000FCD0FC495E80F0084E80F0096E80E00E7
:1037A0004E20FFF775FD47E069494E20FFF792FD77
:1037B00068490120FFF7A4FD674800F0E9FA3BE003
:1037C00063494E20FFF786FD64490120FFF798FD0D
:1037D000634800F0DDFA2FE062494E20FFF77AFDE2
:1037E00061490120FFF78CFD604800F0D1FA604B81
:1037F0001B68DA6822F00102DA605E4A14685A6ACD
:1038000042F2107101FB0424DA6842F00102DA602E
:10381000DA6822F00102DA60564A11685A6A42F206
:10382000107000FB0121DA6842F00102DA6004F551
:10383000C332A0329142EBD3FFF758FD01224FF47F
:1038400080414148FDF7C2FE494B1B68DA6822F00F
:103850000102DA60474A14685A6A42F2107101FBA9
:103860000424DA6842F00102DA60DA6822F0010228
:10387000DA60404A1268596A42F2107000FB021284
:10388000D96841F00101D96004F110018A42ECD3FA
:1038900000224FF480412C48FDF798FE354B022260
:1038A0001A71344B1B79DBB2022B04D1314B1B79DB
:1038B000DBB2082BF5D12F4B1B79DBB2082B3FF481
:1038C00073AF2C4B1B79DBB2032B04D1294B1B7933
:1038D000DBB2082BF5D1274B1B79DBB2082B3FF469
:1038E0006FAF254B1C68254BA3FB04346409B4F56A
:1038F000FA7FBFF471AF204B1B68FA2B7FF66CAFD9
:103900001F494E20FFF7E6FC1B4D28680A21FFF7F0
:1039100027FD1C4A0C210020FFF708FD1A49012051
:10392000FFF7EEFC0A23224619460120FFF728FD87
:10393000164A0E210120FFF7F9FC29682246144897
:1039400000F0C4F953E700BF000C0048D80A00207B
:10395000649200087892000890920008C4920008CF
:10396000DC920008109300083093000820930008B0
:10397000300B0020E8090020240B002009CB3D8DEE
:10398000449300084C930008509300085C9300088F
:10399000609300087047000000B583B0214B9A691E
:1039A00042F001029A619A6902F001020092009AC3
:1039B000DA6942F08052DA61DB6903F080530193E7
:1039C000019B0320FDF7F0FB002211466FF00B0076
:1039D000FDF708FC002211466FF00A00FDF702FC1B
:1039E000002211466FF00900FDF7FCFB0022114692
:1039F0006FF00400FDF7F6FB002211466FF00300A4
:103A0000FDF7F0FB002211466FF00100FDF7EAFB25
:103A1000002211464FF0FF30FDF7E4FB03B05DF8E4
:103A200004FB00BF001002407047FEE7FEE7FEE720
:103A3000FEE770477047704708B5FDF78FFBFDF74D
:103A400062FC08BD08B54FF40040FDF7D9FD08BD84
:103A500008B50248FFF794F908BD00BF300B0020FD
:103A60001549D1F8883043F47003C1F88830134BFE
:103A70001A6842F001021A605868114A02405A60FE
:103A80001A6822F0847222F480321A601A6822F4D2
:103A900080221A605A6822F4FE025A60DA6A22F022
:103AA0000F02DA62186B074A02401A6300229A601A
:103AB0004FF000638B60704700ED00E000100240A3
:103AC0000CC07FF8CCFC00FF00B585B01148124B4C
:103AD00003603F2343600023836042F21072C260A0
:103AE0008361FFF777FA50B900230193039301A98B
:103AF0000848FFF7DFFA38B905B05DF804FB3D214F
:103B00000648FFF7D5FDEFE744210448FFF7D0FD55
:103B1000F2E700BF300B0020001000408093000847
:103B200002680E4B9A4200D0704700B583B003F58F
:103B30000033DA6942F01002DA61DB6903F0100346
:103B40000193019B002211463620FDF74BFB3620E6
:103B5000FDF78EFB03B05DF804FB00BF00100040D2
:103B6000DFF834D0002103E00C4B5B5843500431A4
:103B70000B480C4B42189A42F6D30B4A02E0002342
:103B800042F8043B094B9A42F9D3FFF769FF00F072
:103B900011F8FFF7DFFDFEE700A000207496000893
:103BA00000000020CC090020CC090020980B002048
:103BB000FEE7000070B50D4E0D4D761BB61006D019
:103BC0000024013455F8043B9847A642F9D1094E28
:103BD000094D761B05F022FAB61006D000240134F8
:103BE00055F8043B9847A642F9D170BD6896000885
:103BF000689600087096000868960008931E222BAD
:103C000015D80A2A10B50B4605D00C46194600F007
:103C1000C7F8204610BD0028F7DA2D2403F8014B21
:103C200040420C46194600F0BBF8204610BD00206B
:103C300008707047FFF7E2BFF0B4860743D0541E08
:103C4000002A3ED0CAB2034602E014F1FF3438D352
:103C500003F8012B9D07F8D1032C2BD9CDB245EAEF
:103C600005250F2C45EA054516D9A4F110073F0993
:103C700003F1200606EB071603F1100242E9045592
:103C800042E902551032B242F8D104F00F04013774
:103C9000032C03EB07130DD91E462246043A032AD0
:103CA00046F8045BFAD8221F22F0030204321344C0
:103CB00004F003042CB1C9B21C4403F8011B9C425C
:103CC000FBD1F0BC704714460346C5E70FB400B5FE
:103CD000074983B004AB086853F8042B816801934B
:103CE00000F09EF803B05DF804EB04B0704700BF2D
:103CF0001000002070B5054688B008460C46FCF759
:103D0000DFFC224AAB6B04940126441C04A90692F2
:103D1000022203940590AC680796CDE901121BB30B
:103D2000616EB4F90C30CE079AB201D4900525D556
:103D3000910406D4626E43F4005322F40052A3812E
:103D40006266284601AA214603F09EF8636E0028A9
:103D50000CBF0A254FF0FF35DA0702D4A3899B0573
:103D600006D5284608B070BD284602F0F7FED7E712
:103D7000A06D03F045FA284608B070BDA06D03F0B1
:103D80003DFAB4F90C309AB2D2E700BF9493000820
:103D9000024B01461868FFF7ADBF00BF10000020BE
:103DA000F0B4DFF878C0174604460E46BCE80F00B2
:103DB0008AB06D460FC5BCE80F000FC59CE8030034
:103DC000BB1E45F8040B222B297023D8751E2846EC
:103DD000002200E01A46B4FBF7F10AAB07FB1144DE
:103DE00023440C4613F8283C00F8013F531C0029DB
:103DF000F0D1F15452B1334413F8011D15F8010FFD
:103E000029700134111B8C421870F5DB30460AB062
:103E1000F0BC704700203070F9E700BF98930008AD
:103E20002DE9F04FD7B01C4689461746054603904A
:103E300003F0D2F9036816931846FCF741FC089486
:103E400015901DB1AB6B002B00F00781D9F8641001
:103E5000B9F90C20C80793B202D4990540F11F812B
:103E60009E040AD4D9F8641042F4005321F400519E
:103E7000A9F80C30C9F864109BB21D0740F1B2805C
:103E8000D9F81020002A00F0AD8003F01A020A2AA7
:103E900000F0C98000239FED867B1093CDE92B3382
:103EA0001793CDE919331B93189305932DAB2A93E0
:103EB0009B463B78CDF81C908DED127B002B00F0DB
:103EC0005982252B3C4602D11DE0252B03D014F846
:103ED000013F002BF9D1E51B8DB1DDE92B32013318
:103EE0002A44072BCBF80070CBF80450CDE92B32D5
:103EF00000F3CA800BF1080B059B2B440593237834
:103F0000002B00F0378200236678069398468DF8E0
:103F10008B3004F1010A4FF0FF392B250AF1010A19
:103F2000A6F120035A2B00F22A84DFE813F0AA033B
:103F3000280428049C02280428042804A702280432
:103F40002804C602D2022804D702DC022804F602A2
:103F50006D026D026D026D026D026D026D026D02E9
:103F60006D022804280428042804280428042804AE
:103F7000FB0228043C03F303FB02FB02FB022804C0
:103F8000280428042804EE03280428049A0028049E
:103F900028042804500328047903280428049003E3
:103FA00028042804280428042804280428042804B1
:103FB000FB0228043C03C500FB02FB02FB02D10309
:103FC000C50070002804B5032804C2039C00DE036A
:103FD00070002804500372002C02280428047C027C
:103FE000280472004946039801F09AFCA0B1D9F860
:103FF0006430D80704D4B9F80C30990540F1B78380
:104000004FF0FF330593059857B0BDE8F08F48F0A7
:1040100020089AF8006081E7B9F80C3003F01A0222
:104020000A2A7FF437AFB9F90E20002AFFF632AF23
:10403000D9F86420D20705D49B0503D4D9F85800D9
:1040400003F0DEF823463A464946039801F026FC81
:104050000590059857B0BDE8F08F039802F07EFDFB
:10406000F4E648F0100818F0200F00F06C83089C6C
:10407000073424F00703D3E9004503F1080208924E
:1040800028F4806300228CE12AAA0799039804F09F
:10409000F5F9002841F076830DF1B40B2CE7D9F83F
:1040A000580003F0ABF8B9F90C2093B2D8E600BF82
:1040B000000000000000000043469F0640F12F83EF
:1040C000089C073424F00704D4E9000104F1080235
:1040D000089204460D46002871F1000205DA2D22EF
:1040E000644265EB45058DF88B2056AAB9F1FF3F78
:1040F000049200F0B284012254EA050123F0800802
:1041000040F05981B9F1000F40F01986002A40F0C3
:10411000088513F0010356AF099302D0302307F846
:10412000013D00230A930F9314931193099B9DF86B
:104130008B204B45B8BF4B46049312B1049B01330F
:10414000049318F002030B9302D0049B02330493F0
:1041500018F084032C9C0E933FD1069B04995D1AA2
:10416000002D3ADD102D2B9A29DD59462046209648
:104170001023039C079EBB4604E0103D102D01F167
:10418000080118DD0132BA4F1030072ACDE92B2083
:10419000C1E90073F1DD2AAA314620460C9304F0F0
:1041A0006DF9002840F03D84103D102DDDE92B20F5
:1041B0002DA90C9BE6DC209E5F4604468B4601320F
:1041C000AB4B2C44072ACDE92B24CBE9003500F377
:1041D000FF849DF88B200BF1080B72B12B9A0132F2
:1041E00001340DF18B000121072ACDE92B24CBE905
:1041F000000100F318840BF1080B0B9B6BB12B9B98
:104200000133023423A90222072BCDE92B34CBE959
:10421000001200F315840BF1080B0E9B802B00F0AD
:104220003183099BA9EB0305002D37DD102D2B9A57
:10423000904B28DD59462046BB464FF010093746C3
:104240001C46079E04E0103D102D01F1080115DD0C
:1042500001321030072ACDE92B20C1E90049F2DDF7
:104260002AAA3146039804F009F9002840F0D983BE
:10427000103D102DDDE92B202DA9E9DC3E4623461B
:104280005F4604468B4601322C44072ACDE92B2495
:10429000CBE9003500F3EF830BF1080B18F4807FB6
:1042A00040F080822B9B099ACBF8007001331444B4
:1042B000072B2C94CBF804202B9300F392830BF163
:1042C000080B18F0040F3BD0069B049A9D1A002D92
:1042D00036DD102D2B9B21DD1026039FDDF81C8081
:1042E00004E0103D102D0BF1080B17DD0133604A7F
:1042F0001034072BCDE92B34CBE90026F1DD2AAAB7
:104300004146384604F0BAF8002840F06C85103D6C
:10431000102DDDE92B340DF1B40BE7DC0133544AE9
:104320002C44072BCDE92B34CBE9002508DD2AAA44
:104330000799039804F0A2F8002840F0E9822C9C29
:104340000499DDE905328A42ACBF9B185B180593DE
:10435000002C40F0D58200232B930A9B1BB10A99B5
:10436000039802F09DFC0DF1B40B57463B78002BEF
:104370007FF4A7AD2C9BDDF81C90002B41F0E7806B
:1043800000232B93CBE243469A0640F14E81089CD2
:10439000073424F0070202F10801D2E90045089130
:1043A000012200218DF88B10B9F1FF3F56A904912D
:1043B0007FF4A2AE9846012A00F05083022A00F052
:1043C0001B8356A900E03946E20842EA4572E80834
:1043D00004F0070305461446303354EA050201F899
:1043E000013C01F1FF37EED118F0010F00F014830A
:1043F000302B00F01183049A02393023521A07F847
:10440000013C09920F468CE6A6F1300300221AF80F
:10441000016B02EB820203EB4202A6F13003092B8F
:10442000F5D906927CE5144B179318F0200F00F095
:104430001481089C073424F00703D3E9004503F1F5
:104440000802089218F0010F09D054EA050306D0BB
:1044500030238DF88D6048F002088DF88C3028F4F8
:10446000806302229DE748F001089AF8006055E554
:104470000494000814940008D0930008039E30466A
:1044800002F0AAFE436818931846FCF719F91B902E
:104490000446304602F0A0FE83681A93002C3FF4D5
:1044A000B8AD9AF80060002B3FF438AD1B78002BB4
:1044B0003FF434AD48F4806830E5089B9AF800601A
:1044C0001A680692002A03F10403C0F29786089343
:1044D00024E58DF88B509AF800601FE59AF800608B
:1044E00048F004081AE59AF800602A2E0AF1010241
:1044F00001F0B081A6F13003092B92464FF000097C
:104500003FF60EAD1AF8016B09EB890903EB490977
:10451000A6F13003092BF5D902E548F080089AF896
:104520000060FBE4089C073424F0070494ED007B52
:1045300052EC171B22F000431D938DED1C7A0834BA
:10454000DDE91C014FF0FF32BA4B08948DED127B70
:10455000FCF710FC002840F06F844FF0FF32B54BA1
:10456000DDE91C01FCF7E8FB002840F0658400222F
:104570000023DDE91201FCF7D5FB002840F05B8544
:104580009DF88B20AC4FAD4B0020032104910A9085
:1045900028F08008472ED8BF1F46099181460F900A
:1045A00014901190C9E50898002301688DF88B30AC
:1045B0001A468DF8F4100123011D04930A929146C6
:1045C0000F9214921192CDE908133DAFB9E5089B03
:1045D0001F6800258DF88B501C1D002F00F03986B8
:1045E000B9F1FF3F00F011874A4629463846FCF7EB
:1045F000D7F80A90002800F0E7850A9BDB1B099397
:10460000A94623EAE37308940493CDF82890CDF8E3
:104610003C90CDF85090CDF844909DF88B208CE5DF
:1046200048F010039A063FF5B2AE089ADF0602F191
:10463000040100F17E835D06089A00F1E4849C0584
:1046400040F177831478089100250122A9E67C4B7C
:10465000179318F0200F7FF4ECAE089A18F0100FA3
:1046600002F1040340F0548318F0400F089A40F020
:10467000D08418F4007F00F04B8314780893002551
:10468000E0E69DF88B309AF80060002B7FF446AC92
:1046900020238DF88B3041E49AF800606C2E03BF24
:1046A0009AF8016048F020080AF1010A48F0100861
:1046B00034E4089A18F0200F52F8043B089200F0F6
:1046C000A183059A1046D117C3E9000157464DE66C
:1046D0009AF80060682E03BF9AF8016048F40078E9
:1046E0000AF1010A48F0400818E40899554B0C6893
:1046F000179347F630020431ADF88C2048F00203DE
:1047000008910025022278264BE648F008089AF81E
:10471000006003E448F010039F063FF5D1AC089910
:10472000DD0601F1040200F1FD825C06089900F14A
:104730007584980540F1F68291F900400892E517DA
:1047400020462946C7E4089A18F0100F02F1040326
:1047500040F0E38218F0400F089A40F0678418F4A4
:10476000007F00F0DA8214780893002588E4D9F8F5
:10477000580002F045FD4FF0FF33059343E4002E4F
:104780003FF4F8AD002301211A4604918DF8F4603E
:104790008DF88B300A9399460F93149311930991D6
:1047A0003DAFCEE4652E40F3CA8000220023DDE950
:1047B0001201FCF7ADFA002800F069812B9B224A18
:1047C000CBF80020013301340122072BCDE92B3433
:1047D000CBF8042000F306840BF1080B249B109AFD
:1047E0002C9C934203DB18F0010F3FF46AAD2B9B26
:1047F000169ACBF80020159ACBF804200133144404
:10480000072BCDE92B3400F317850BF1080B109B18
:104810005D1E002D7FF755AD102D2B9A0B4B40F3ED
:10482000E782194610262346039FDDF81C900C46AC
:1048300014E000BFFFFFEF7FC4930008C09300089F
:10484000E4930008D0930008009400081494000832
:104850000BF1080B103D102D40F3C78201321033CD
:10486000072ACDE92B23CBE90046F1DD2AAA4946E8
:10487000384603F003FE00284CD1DDE92B230DF16F
:10488000B40BE7E7069B049A9D1A002D7FF7C9AC8D
:10489000102D2B9ABC4B27DD59462046BB461C46A3
:1048A0003746079E04E0103D102D01F1080116DD8A
:1048B000013210301023072ACDE92B200C604B6009
:1048C000F1DD2AAA3146039803F0D8FD002840F014
:1048D000A880103D102DDDE92B202DA9E8DC3E46F7
:1048E00023465F4604468B4601322C44072ACDE915
:1048F0002B24CBE9003500F392820BF1080B90E4F6
:104900002AAA0799039803F0B9FD00283FF423ADC4
:10491000DDF81C900A9911B1039802F0C1F9D9F899
:104920006420B9F80C30D00702D4990540F1D08149
:104930005A063FF565AB059857B0BDE8F08F109A61
:104940002B9B012A04F1010403F101050BF1080678
:1049500040F31C810123072DCBF80070CDE92B54C7
:10496000CBF8043000F3BB81159B169A691C1C44DC
:1049700007290B91CDE92B14C6E9002300F3BB8175
:1049800008360B9A531C1D460995109D0E93002264
:104990000023DDE9120105F1FF3906F1080BFCF7F0
:1049A000B7F9002840F0C280099DC6F8049001378D
:1049B0004C44072D37602C942B9500F3F9800B9A0B
:1049C00006F1100302325E4609929B46199A726004
:1049D0001444099A2C9426AB072A2B9233607FF754
:1049E00070AC2AAA0799039803F048FD00288FD1DC
:1049F0002C9C0DF1B40B64E4179856AF230904F016
:104A00000F0143EA05732A091C461546435C07F863
:104A1000013D54EA0503F1D1049BDB1B0993FFF729
:104A200080BBB14676E72AAA0799039803F026FDD2
:104A300000287FF46DAF2C9C0DF1B40BFFF7DDBBAC
:104A40002AAA0799039803F019FD00287FF460AFA4
:104A50002C9C0DF1B40BFFF7E0BB9846002D08BF6E
:104A60000A2C80F0708156AF3034012307F8014DD5
:104A70000993FFF756BB2AAA0799039803F0FEFC97
:104A800000287FF445AF2C9C0DF1B40B06E4249B69
:104A9000002B40F37382DDE910239342A8BF134635
:104AA000002B1D460DDD2B9BCBF8007001332C44F1
:104AB000072B2C94CBF804502B9300F3C1820BF1FD
:104AC000080B119B002DA8BF5B1B002B1D4640F35C
:104AD0009980102D2B9A2C4B40F3DB8318462146EE
:104AE0005B461026BB46DDF80C90079C074604E0A9
:104AF0000833103D102D40F3C78301321031072ACF
:104B0000CDE92B21C3E90076F2DD2AAA21464846E9
:104B100003F0B4FC002840F0A584DDE92B212DAB87
:104B2000E7E7CDF8249056AFFFF7FBBAB9F1000FD5
:104B30007FF74CAFB9F1100F134B40F3598619466C
:104B4000224633461027DDF80CB0079C0E9D0E461A
:104B500007E00833A9F11009B9F1100F40F35383AE
:104B600001351032072DCDE92B52C3E90067F0DD86
:104B70002AAA2146584603F081FC002840F072849E
:104B8000DDE92B522DABE5E71494000818F0010F76
:104B90007FF4E0AE0122072DCBF80070CDE92B5455
:104BA000CBF8042004DC023309930BF1100B0DE762
:104BB0002AAA0799039803F061FC00287FF4A8AEA5
:104BC000DDE92B34013309930DF1BC0B2DAEFDE66D
:104BD0002AAA0799039803F051FC00287FF498AEA5
:104BE0009DF88B202C9C0DF1B40BFFF7F6BA2AAA86
:104BF0000799039803F042FC00287FF489AE2C9CAF
:104C00000DF1B40B119B18F4806F3B44994640F0B2
:104C10005783249B109A934249DB18F0010F46D129
:104C2000109ABD18A5EB0905D31A9D42A8BF1D46D1
:104C3000002D0DDD2B9ACBF8009001322C44072A71
:104C40002C94CBF804502B9200F362840BF1080BE8
:104C5000002DACBF5D1B1D46002D7FF732AB102D24
:104C60002B9AC54B40F3C480194610262346039F58
:104C7000DDF81C900C4605E00BF1080B103D102DE3
:104C800040F3B38001321033072ACDE92B23CBE95F
:104C90000046F1DD2AAA4946384603F0EFFB00281A
:104CA0007FF438AEDDE92B230DF1B40BE6E72B9A48
:104CB0001699CBF800101599CBF8041001320C446A
:104CC000072A2C942B9200F38C820BF1080BA7E798
:104CD000D9F8580002F094FAB9F80C3028E62AAA5C
:104CE0000799039803F0CAFB00287FF411AEDDE9B1
:104CF0002B542DAE38E62AAA0799039803F0BEFB81
:104D000000287FF405AEDDE92B342DAE0B9338E699
:104D1000146808930025FFF795BB146808930025D5
:104D2000FFF7AEB90C680892E51720462946FFF751
:104D3000D2B91468089101220025FFF732BB012A7D
:104D40007FF43CAB8FE608F480630022CDE909A62E
:104D5000CDF82C8056AF9246DDF868801E460AE0FA
:104D60000023204629460A22FCF742F804460D4655
:104D700054EA050329D00A22002320462946FCF7DD
:104D800037F8303207F8012C0AF1010A013F002EF2
:104D9000E6D098F800309A45E2D1BAF1FF0FDFD0A3
:104DA000002D08BF0A2CDBD31B9B1899FF1A1A464B
:104DB000384603F0F5FA98F80130002B00F096849D
:104DC00008F101084FF0000ACAE7049BCDF868809B
:104DD000DB1BCDF840A00A9EDDF824A0DDF82C8076
:104DE0000993FFF79EB9C14694E521461C460B4640
:104DF00001322C44072ACDE92B24CBE900357FF77B
:104E00005EAAEEE518F0100F40F0F88018F0400FA1
:104E100000F05183059A1A805746FFF7A7BA2AAACD
:104E20000799039803F02AFB00287FF471AD2C9CAE
:104E30000DF1B40BFFF7F5B9DDE9120102460B469F
:104E4000FBF798FF002840F09184612E00F011815B
:104E5000412E00F0778348F4807326F02002B9F1E8
:104E6000FF3F0E930492139B00F02D84472A00F01D
:104E70002484002BC0F2F9829DED127BCDE90A005B
:104E80008DED1E7B662E00F0EB83462E00F07E84B7
:104E9000049B0398452B0CBF09F101054D4628AA38
:104EA00025ABCDE90032022124AB2A469DED1E0B35
:104EB00000F03EFE672E074640F09C8418F0010F7C
:104EC00040F0F983289B4046DB1BDDF838801093C7
:104ED000249B1193049B472B00F0E781049B462BF6
:104EE00000F000830499119BF2B2412908BF0F32F0
:104EF00003F1FF3306BFD2B201210021002B24931E
:104F0000B8BF119B8DF89820BABFC3F101032D22C1
:104F10002B22092B8DF8992000F3F983002940F00A
:104F2000878430228DF89A200DF19B023033137064
:104F3000531C26AA9B1A109A1993012A1344099309
:104F400040F34284099B159A1344099300230F935D
:104F500014931193099B20F4806023EAE37340F4D7
:104F6000807804930B9B002B40F0758299469DF846
:104F70008B20FFF7E2B800BF149400082B9ABD49BC
:104F8000CBF80010013201340121072ACDE92B248E
:104F9000CBF8041060DC0BF1080B2BB9109A1AB98E
:104FA00018F0010F3FF48DA92B9A1699CBF8001039
:104FB0001599CBF8041001320C44072A2C942B923B
:104FC00000F382820BF1080B002BC0F2E782109BEA
:104FD00001321C44072ACDE92B24CBE900737FF76B
:104FE0006EA9FEE42AAA0799039803F047FA00285D
:104FF0007FF48EAC0DF1B40BFFF7F0BB059A1A608D
:105000005746FFF7B3B91488089100250122FFF72E
:10501000C8B9148808930025FFF714BAB1F9004005
:105020000892E51720462946FFF755B814880893DB
:105030000025FFF725B82D228DF88B20FFF7A2BAA7
:105040002AAA0799039803F019FA00287FF460ACA4
:105050002C9C0DF1B40B34E52AAA0799039803F0B0
:105060000DFA00287FF454AC249B2C9C0DF1B40B5A
:1050700093E730238DF88C307823B9F1630F8DF8E6
:105080008D3048F0020400F3B08248F481730E932F
:1050900026F0200304930022139B0A92A0463DAF02
:1050A000002BC0F2E3819DED127B8DED1E7B002372
:1050B0000B93612E00F05582412E7FF4E3AE24A8BD
:1050C0009DED1E0B03F0E2F800224FF07F5351ECF0
:1050D000100BFBF7B5FB00220023CDE90C01FBF719
:1050E00017FE002840F00583634B0993CDE90FA616
:1050F00009F1FF34CDF850902197B946CDF844B06E
:10510000CDF88080DDF824A0DDE90C6703E0FBF733
:10511000FFFD20BBA9460022584B30463946FBF71D
:105120008FFB0F460646FBF73BFE8046FBF7BAF9BE
:1051300002460B4630463946FBF766F84D461AF8EC
:1051400008C005F801CBB4F1FF3FA34606460F4661
:105150004FF000024FF0000304F1FF34D7D1304686
:1051600039460022464BDDF83CA0109ECDF83CB0FD
:105170004446CDF84090DDF88080DDF85090DDF8B1
:1051800044B0219FCDE90C01FBF7EAFD002840F077
:105190007681DDE90C010022394BFBF7B9FD10B136
:1051A000E20700F16C810F9B002B07DB0F9B0133A3
:1051B0002B44302205F8012BAB42FBD1EB1B4046C0
:1051C0001093DDF8388083E6CDF81090CDF8249068
:1051D000089481460F90149011909DF88B20FEF753
:1051E000ACBF2AAA0799039803F048F900287FF476
:1051F0008FAB249B2C9C0DF1B40B11E5524206920F
:105200000893FFF76DB9144632461E4613462A46E8
:105210000132099206F10802C6E90039099B2B9375
:105220004C44072B2C943FF7C3AC0133099302F194
:10523000080B1646FFF7CABB2AAA0799039803F082
:105240001DF900287FF464AB2C9C0DF1B40BFFF723
:10525000DEBA4B46062B28BF0623B9460F97149794
:1052600011970A973A460493CDE90843054FFEF794
:1052700064BF00BF00940008E493000800003040C1
:105280000000E03FF89300080C4639465F469B4615
:105290000B4601322C44072ACDE92B24CBE90035FB
:1052A0003FF7A5AC0BF1080BACE4119BDA1C02DB59
:1052B000994580F2B580023E26F02003049311E662
:1052C000109BCDF838805A46DDE91A8BFB18CDF8D3
:1052D0002CA00C97AF4EDDF81CA009934F46DDF8CB
:1052E0000C902146149B002B5BD00F9B002B54D1BC
:1052F000149B013B08F1FF3814932B9B1898106006
:1053000001335944072B2C91C2F804B02B9368DC6D
:105310000832099898F80030C51B9D42A8BF1D4669
:10532000002D0BDD2B9B176001332944072B2C919B
:1053300055602B935EDC98F800300832002DACBF2E
:105340005D1B1D46002D26DD102D2B983CDD102405
:1053500003E00832103D102D36DD013010310728F2
:10536000CDE92B01C2E90064F3DD2AAA5146484683
:1053700003F084F8002850D1DDE92B012DAAE9E7DC
:105380002AAA5146484603F079F8002845D198F8F2
:1053900000302C992DAA1F44A4E70F9B013B0F93CB
:1053A000ABE70F9B002BF8D1B946109B0C9FCDF8B3
:1053B0006880FB189945DDF82CA0DDF8388093460D
:1053C0000C4628BF994624E4013029440728CDE93A
:1053D0002B01C2E90065D3DC98F8003008321F4485
:1053E00080E72AAA5146484603F048F8A8B92C9904
:1053F0002DAA8EE72AAA5146484603F03FF860B925
:1054000098F800302C992DAA98E73846FBF758F900
:10541000A94603460990FFF7F4B8D146FFF77ABAD8
:10542000109B1946119B994200F38280C40740F1FA
:105430006B81159A13440993410503D5119B002BE9
:1054400000F3E680099B23EAE373049367260023B5
:105450000F93149386E52D228DF88B204FF00009D1
:10546000FEF76CBEA146FFF755BA0A90DDE91212AD
:1054700002F100431F932D231E910B9319E6109BFD
:105480002893099B15F8012CD97B91422B4609D111
:10549000302003F8010C289B5A1E289213F8012C87
:1054A0009142F6D0392A0BBF099A0132927AD2B2D0
:1054B00003F8012C82E618F4007F3FF49FAD059AB3
:1054C0001A705746FEF752BF2AAA0799039802F0AE
:1054D000D5FF00287FF41CAA249BDDE92B240DF1C5
:1054E000B40B71E5119B002B40F36481119BB9F162
:1054F000000F40F00381C60700F100810993662682
:10550000430500F18680099B23EAE37304939EE739
:105510002AAA0799039802F0B1FF00287FF4F8A99E
:10552000249B109A2C9CD31A0DF1B40BFFF790BB5F
:10553000109B159A13440993119B002B40F349814A
:105540006726DDE730238DF88C30582395E50398E6
:105550002AAA494602F092FF00287FF4E0A9FEF74C
:105560000FBF24A89DED1E0B02F090FE00224FF00D
:105570007F5351EC100BFBF763F900220023CDE9B8
:105580000C01FBF7C5FB08B101232493024B0993DF
:10559000ACE500BF14940008D09300085D421033BE
:1055A000B94B80F29780194610262346DDF80C90FF
:1055B0000C4605E00BF1080B103D102D40F38780E1
:1055C00001321033072ACDE92B23CBE90046F1DD68
:1055D0002AAA0799484602F051FF00287FF498A9AB
:1055E000DDE92B230DF1B40BE6E709F10101039886
:1055F00001F080FE0746002800F03B8148F48173EB
:105600000E9326F020030493A046139B0A9047E5CF
:1056100067261A9800220F9214920378119AFF2B92
:105620000CD093420ADA4178D21AA9B1149B013303
:1056300014930B46FF2B00F10100F2D11192149B41
:105640000F9A09991A9013441B9A02FB03130993AA
:1056500023EAE373049385E40F9901310F91DEE7A8
:1056600028AA25ABCDE90032032124AB4A469DEDA3
:105670001E0B039800F05CFA4D46074600EB090448
:105680003B78302B00F0BE80249D2C440022002368
:10569000DDE91E01FBF73CFB08B1234613E4289B20
:1056A000A342BFF410AC30215A1C28921970289BD9
:1056B0009C42F9D807E47C19E8E7B9F1000F00F043
:1056C00092800A90ECE40A904FF00609E8E4214643
:1056D0001C460B4601322C44072ACDE92B24CBE98A
:1056E000003500F3A9800BF1080B70E49A46FFF730
:1056F00037BB01232493654B0993F7E4159A1344B0
:105700004B4409936626FBE6119B099394E60DF141
:10571000A70C64465E4D00E01446A5FB0312D208B8
:1057200002EB8201A3EB410303F130011346092B85
:1057300004F8011C04F1FF32EEDC3033023CDBB232
:10574000A44502F8013C40F290800DF19A04114604
:1057500001E011F8013B04F8013B8C45F9D12AAB7B
:105760009B1A0DF19A021344FFF7E3BB139B494FB9
:10577000002BB6BF2D229DF88B208DF88B20464B39
:10578000FEF702BFDDF81C90FFF7C9B828AA25ABC9
:10579000CDE90032032124AB4A469DED1E0B039850
:1057A00000F0C6F94D460746462E07EB05043FF4C8
:1057B00067AF6BE7B9F1000F31D1C5072FD40123D3
:1057C00004930993662642E6C3077FF5BFABFFF754
:1057D000B9BB099AC3F101031A4422EAE2730992A0
:1057E0000493672633E6CDF828904FF0010957E47B
:1057F0005A4611E5472E7FF45EAF18F0010F3FF4D3
:1058000061ABD1E700220023DDE91E01FBF780FA3E
:1058100000287FF439AFC5F10105249535E7159BC4
:1058200001334B44099323EAE373049366260EE69F
:105830000DF19A02FFF77ABB2AAA0799039802F0A2
:105840001DFE00287FF464A8DDE92B240DF1B40BC4
:10585000FFF7BDBB08999AF801600B6843EAE3794A
:105860000B1D92460893FEF759BB0DF19A03FFF703
:1058700060BBDDF81C90B9F80C3043F04003A9F888
:105880000C30FFF74CB800BF14940008E4930008F4
:10589000CDCCCCCCCC930008C89300082DE9F041C6
:1058A0000C46ADF58D6D8989666EE589199621F0F6
:1058B00002010646E069ADF80C1017464FF480610E
:1058C000626AADF80E5098461AAD0023079016A8EC
:1058D00009920693009504950291059101F08AFCC6
:1058E00043463A4669463046FEF79AFA051E07DBFC
:1058F0003046694601F0D6F8002818BF4FF0FF3552
:10590000BDF80C305B0603D5A38943F04003A381A7
:10591000169801F071FC28460DF58D6DBDE8F081FB
:1059200038B5314B1B6805460C4613B19A6B002AFB
:105930003AD0B4F90C2093B218070CD52069A8B15D
:1059400013F0010220D0636900225B42A361A260D0
:1059500000B3002038BDD9063ED5580728D42069A9
:1059600042F00803A3819BB20028E9D103F420721E
:10597000B2F5007FE4D02846214601F071FCA389EE
:10598000206913F00102DED1990758BF6269A26055
:105990000028DED1B4F90C301A06DBD543F0400301
:1059A000A3814FF0FF3038BD184601F0D7F8C0E7AB
:1059B000216B51B104F14003994204D0284601F013
:1059C0006FF9B4F90C20002323630023206963607E
:1059D00022F024022060C3E742F0400209232B603A
:1059E0004FF0FF30A28138BD10000020024B13B1F0
:1059F000024800F005B8704700000000CD6B0008B9
:105A0000002301461A46184602F0B0BD2DE9F04FBA
:105A100003690F69BB4283B0C0F28680013F01F188
:105A2000140900F1140A59F827205AF82730BC004D
:105A30000132B3FBF2F80AEB0403009409EB040B08
:105A40000193B8F1000F38D000252E46CE46D4463B
:105A50005EF8044BDCF80030A2B208FB0255220CC1
:105A60002C0C08FB0242ADB2751B96B2C6EB134676
:105A700015FA83F306EB23469BB243EA0643F3454C
:105A80004FEA12454CF8043B4FEA2646E0D2009B11
:105A90005AF803308BB9019A131F9A450CD252F869
:105AA000043C4BB9A2F1080302E01A68043B1AB99E
:105AB0009A4507F1FF37F8D30761044602F044F92D
:105AC00000282DDB08F101085546002359F8041B76
:105AD00028688AB29A1A0B0C12FA80F2C3EB1043B0
:105AE00003EB224392B242EA0342CB4545F8042B32
:105AF0004FEA2343EAD25AF827200AEB87037AB900
:105B00001A1F92450BD253F8042C42B9083B02E00D
