:020000040800F2
:100000000000022049260008592400085B2400084B
:100010005D2400085F24000861240008000000003F
:100020000000000000000000000000006324000841
:100030006524000800000000672400086924000807
:100040009926000899260008992600089926000894
:1000500099260008992600087524000899260008AA
:100060009926000899260008992600089926000874
:100070009926000899260008992600089926000864
:10008000992600089926000899260008000000001B
:100090000000000000000000000000009926000899
:1000A0009926000899260008992600089926000834
:1000B000992600089926000881240008992600083E
:1000C0009926000899260008992600089926000814
:1000D00099260008992600089926000800000000CB
:1000E00099260008992600089926000800000000BB
:1000F0000000000000000000000000009926000839
:10010000000000009926000899260008992600089A
:1001100000000000000000000000000000000000DF
:1001200099260008992600089926000899260008B3
:1001300099260008000000000000000000000000F8
:1001400000000000000000000000000099260008E8
:100150009926000899260008992600089926000883
:100160009926000899260008000000000000000001
:10017000000000000000000000000000000000007F
:1001800000000000992600080000000000000000A8
:080190009926000899260008D9
:1001980010B5054C237833B9044B13B10448AFF3B9
:1001A80000800123237010BD7400002000000000AF
:1001B800E827000808B5034B1BB103490348AFF310
:1001C800008008BD0000000078000020E827000833
:1001D80053B94AB9002908BF00281CBF4FF0FF31A6
:1001E8004FF0FF3000F072B9ADF1080C6DE904CEA4
:1001F80000F006F8DDF804E0DDE9022304B07047FA
:100208002DE9F047089E04468846002B4BD18A42C8
:10021800154667D9B2FA82F24AB1C2F1200701FA4B
:1002280002F320FA07F7954047EA030894404FEA9B
:10023800154E230CB8FBFEF71FFA85FC0EFB17883A
:1002480043EA084307FB0CF1994209D9EB1807F177
:10025800FF3080F01B81994240F21881023F2B4405
:100268005B1AA4B2B3FBFEF00EFB103344EA03445E
:1002780000FB0CFCA44509D92C1900F1FF3380F0D0
:100288000781A44540F2048102382C4440EA074023
:10029800A4EB0C0400271EB1D4400023C6E9004398
:1002A8003946BDE8F0878B4209D9002E00F0EB8073
:1002B8000027C6E9000138463946BDE8F087B3FA99
:1002C80083F7002F47D18B4202D3824200F2FA8093
:1002D800841A61EB030301209846002EE0D0C6E99A
:1002E8000048DDE702B9FFDEB2FA82F2002A40F0E8
:1002F8008F80491B4FEA154E1FFA85F80127B1FB7D
:10030800FEFC230C0EFB1C1143EA014308FB0CF115
:10031800994207D9EB180CF1FF3002D2994200F24A
:10032800CD808446591AA3B2B1FBFEF00EFB10141F
:1003380043EA044408FB00F8A04507D92C1900F14A
:10034800FF3302D2A04500F2B6801846A4EB080499
:1003580040EA0C409FE7C7F1200CBB4022FA0CFE94
:100368004EEA030E01FA07F420FA0CF521FA0CF311
:100378004FEA1E482543B3FBF8F92C0C08FB193348
:100388001FFA8EFA44EA034309FB0AF49C4202FA74
:1003980007F200FA07F10BD91EEB030309F1FF304E
:1003A80080F087809C4240F28480A9F1020973445E
:1003B8001B1BADB2B3FBF8F008FB103345EA03444E
:1003C80000FB0AFAA24508D91EEB040400F1FF332A
:1003D8006BD2A24569D90238744440EA0940A0FBAF
:1003E8000289A4EB0A044C45C2464B4654D351D06B
:1003F800002E69D0B1EB0A0564EB030404FA0CFC87
:10040800FD40FC404CEA0505C6E90054002747E7D3
:10041800C2F1200320FA03F7954001FA02F021FA0D
:1004280003F34FEA154E3843010CB3FBFEF71FFAEE
:1004380085F80EFB173341EA034107FB08F38B42AB
:1004480004FA02F407D9691807F1FF3C2FD28B424E
:100458002DD9023F2944CB1A81B2B3FBFEF00EFB23
:10046800103341EA034100FB08F38B4207D96918AE
:1004780000F1FF3C17D28B4215D902382944C91A1A
:1004880040EA07473BE73746304609E70746E7E6CD
:100498001846FBE64145ABD2B8EB020A69EB0E02FF
:1004A80001381346A4E76046E9E7184695E767462A
:1004B800D1E781467CE702382C4447E7ACF1020CCF
:1004C8002B442FE7384608E73746E9E6704700BF70
:1004D80010B504460E4B18784FF47A73B3FBF0F35B
:1004E8000C4A1068B0FBF3F000F0D0F868B90F2C94
:1004F80001D901200AE0002221464FF0FF3000F028
:1005080069F8034B5C60002000E0012010BD00BFCB
:10051800000000200C00002008B50B4B1A6842F4BC
:1005280000721A601A6842F480621A601A6842F40B
:1005380080721A60032000F02FF80020FFF7C8FF30
:1005480001F03CFF002008BD003C0240034A11684E
:10055800034B1B780B441360704700BFA4000020B6
:1005680000000020014B1868704700BFA40000205D
:1005780038B50446FFF7F6FF0546B4F1FF3F02D051
:10058800044B1B781C44FFF7EDFF401BA042FAD335
:1005980038BD00BF0000002010B50446C31E042B60
:1005A8000FD80A4AD36823F4E0631B041B0C240207
:1005B80004F4E064234343F0BF6343F40033D3609F
:1005C80010BDA221024801F0F7FEEAE700ED00E0C5
:1005D8001828000870B505460C4616460F2A25D877
:1005E8000F2C28D81B4BDB68C3F30223C3F1070287
:1005F800042A28BF0422191D062921D9033B4FF0DC
:10060800FF3101FA02F224EA02049C4001FA03F3E2
:1006180026EA03063443002D14DB2401E4B205F175
:10062800604505F5614585F8004370BDBA210A4863
:1006380001F0C2FED4E7BB21074801F0BDFED1E7B7
:100648000023DCE705F00F052401E4B2034B5C55F9
:10065800EBE700BF00ED00E01828000814ED00E00B
:1006680010B5041E08DB04F01F026409012393403F
:10067800044A42F8243010BDCE21034801F09CFE04
:10068800F1E700BF00E100E0182800080138B0F1E8
:10069800807F0AD2064B5860064AF02182F8231060
:1006A8000020986007221A6070470120704700BF39
:1006B80010E000E000ED00E010B50446042800D08A
:1006C80038B9042C0BD0094A136823F004031360CB
:1006D80010BD40F2D911064801F06EFEF1E7034A59
:1006E800136843F004031360F2E700BF10E000E072
:1006F80018280008704708B5FFF7FCFF08BD000080
:100708002DE9F04782B080460E46A44B984217D098
:1007180003F58063984213D003F5806398420FD0A5
:1007280003F5806398420BD003F58063984207D0A5
:1007380003F54063984203D0C321994801F03CFE79
:1007480033689AB212B11B0C1B041BB1C421944824
:1007580001F032FE7368012B1ED9112B1CD0022B1D
:100768001AD0122B18D08F4A934215D002F5801256
:10077800934211D002F5801293420DD0A2F5F812DF
:10078800934209D002F58012934205D002F58012F7
:10079800934201D0032B04D1B368022B06D800245E
:1007A80045E0C5217E4801F007FEF5E7C6217C48F3
:1007B80001F002FEF3E7EA21794801F0FDFD90E03F
:1007C800042300E000238B4003430232764941F8BA
:1007D8002230764B1A68FB4303EA0201706810F472
:1007E800803F01D047EA0201704A1160526803EA6B
:1007F8000201706810F4003F01D047EA02016B4A19
:100808005160926803EA0201706810F4801F01D0F9
:1008180047EA0201654A9160D2681340716811F491
:10082800001F01D047EA0203604AD36001340F2C4D
:1008380000F2B0800125A54037682F40BD42F5D1B0
:100848007368022B01D0122B2BD13369CBB1092B42
:1008580017D0012B15D0022B13D0042B11D0052B48
:100868000FD0062B0DD0072B0BD0082B09D00A2B45
:1008780007D00C2B05D00F2B03D0D721484801F007
:100888009BFDE208083258F8220004F0070399009B
:100898000F238B4020EA030033698B40034348F859
:1008A8002230D8F800204FEA440A4FF0030909FA29
:1008B8000AF96FEA090909EA0202736803F00303F7
:1008C80003FA0AF31343C8F8003073685A1E012A62
:1008D80003D9112B01D0122B18D1F368032B3FF643
:1008E8006AAFD8F8082009EA0202F36803FA0AF3A3
:1008F8001343C8F80830D8F8042022EA05027368C0
:10090800C3F30015A5401543C8F80450D8F80C30B7
:1009180009EA0309B36803FA0AF343EA0903C8F8C2
:100928000C30736813F0805F80D000230193204B54
:100938005A6C42F480425A645B6C03F4804301931E
:10094800019BA208911C184B53F8210004F00303E3
:1009580099000F238B4020EA0300104B98453FF481
:1009680031AF03F5806398450ED003F58063984551
:100978000CD003F5806398450AD003F58063984549
:100988003FF41EAF07231EE701231CE702231AE7E3
:10099800032318E702B0BDE8F08700BF000002405B
:1009A800542800080000111000380140003C0140A4
:1009B8000038024008B5054B5B69034200D108BD09
:1009C800024B586101F03AFCF9E700BF003C0140D6
:1009D800002800F03B8270B582B0044603680F2BF4
:1009E80039D8236813F0010F4DD063682BB1B3F5E4
:1009F800803F02D0B3F5A02F32D1A54B9B6803F0FE
:100A08000C03042B36D0A24B9B6803F00C03082B75
:100A18002BD06368B3F5803F5FD0B3F5A02F62D0C9
:100A28009B4B1A6822F480321A601A6822F48022DA
:100A38001A606368002B60D0FFF794FD0546944B5D
:100A48001B6813F4003F1ED1FFF78CFD401B642880
:100A5800F5D90320FFE1F8218E4801F0ADFCC0E78D
:100A6800FD218C4801F0A8FCC7E7894B5B6813F4AB
:100A7800800FCED0864B1B6813F4003F03D0636809
:100A8800002B00F0E581236813F0020F67D0E368BC
:100A9800012B41D823691F2B44D87D4B9B6813F049
:100AA8000C0F4AD07A4B9B6803F00C03082B3FD0FD
:100AB800E368002B77D0784B01221A60FFF752FDCC
:100AC8000546734B1B6813F0020F63D1FFF74AFD0D
:100AD800401B0228F5D90320BDE16D4A136843F491
:100AE80080331360A5E76A4B1A6842F480221A60C3
:100AF8001A6842F480321A609BE7FFF733FD054617
:100B0800634B1B6813F4003FBDD0FFF72BFD401B60
:100B18006428F5D903209EE140F22F115D4801F0C9
:100B28004BFCB7E74FF498715A4801F045FCB4E71D
:100B3800574B5B6813F4800FBAD1554B1B6813F001
:100B4800020F04D0E368012B01D0012083E1504A51
:100B5800136823F0F803216943EAC103136023688B
:100B680013F0080F49D06369012B2ED8636993B33A
:100B78004A4B01221A60FFF7F5FC0546444B5B6FB0
:100B880013F0020F39D1FFF7EDFC401B0228F5D90D
:100B9800032060E13E4A136823F0F803216943EA21
:100BA800C1031360DBE73C4B00221A60FFF7DAFC55
:100BB8000546374B1B6813F0020FD0D0FFF7D2FC65
:100BC800401B0228F5D9032045E14FF4B87131489C
:100BD80001F0F2FBCAE7314B00221A60FFF7C2FCB2
:100BE80005462B4B5B6F13F0020F06D0FFF7BAFCDC
:100BF800401B0228F5D903202DE1236813F0040FC8
:100C080000F08780A368012B01D9052B38D1204B30
:100C18001B6C13F0805F39D1002301931C4B1A6CB5
:100C280042F080521A641B6C03F080530193019BBD
:100C380001251B4B1B6813F4807F33D0A368012B5D
:100C480044D0052B48D0124B1A6F22F001021A67C4
:100C58001A6F22F004021A67A368002B46D0FFF728
:100C680081FC06460A4B1B6F13F0020F4FD1FFF7AA
:100C780079FC801B41F288339842F3D90320EAE0DB
:100C88004FF4CE71034801F097FBC0E70025D0E789
:100C9800003802409028000800004742800E474272
:100CA800007000406E4A136843F480731360FFF7C6
:100CB80059FC06466A4B1B6813F4807FBED1FFF7C8
:100CC80051FC801B0228F5D90320C4E0654A136F44
:100CD80043F001031367BFE7624B1A6F42F0040247
:100CE8001A671A6F42F001021A67B5E7FFF73AFC74
:100CF80006465C4B1B6F13F0020F08D0FFF732FC5F
:100D0800801B41F288339842F3D90320A3E0002DD9
:100D18003AD1A369022B3DD8A369002B00F09A8031
:100D2800504A926802F00C02082A00F09680022BC2
:100D380078D1E36913B1B3F5800F31D1236A3F2B22
:100D480034D8636AC03BF02B36D8A36A022B05D08F
:100D5800042B03D0062B01D0082B33D1E36A023BC6
:100D68000D2B35D8404B00221A60FFF7FBFB0546D8
:100D78003C4B1B6813F0007F30D0FFF7F3FB401BA0
:100D88000228F5D9032066E0364A136C23F0805315
:100D98001364BEE740F2DF11344801F00DFBBBE7F6
:100DA8004FF4F471314801F007FBC7E740F2E9114D
:100DB8002E4801F001FBC4E74FF4F5712B4801F010
:100DC800FBFAC2E740F2EB11284801F0F5FAC5E753
:100DD8004FF4F671254801F0EFFAC3E7E369226A98
:100DE8001343626A43EA8213A26A5208013A43EA49
:100DF8000243E26A43EA02631A4A53601A4B012229
:100E08001A60FFF7AFFB0446164B1B6813F0007F10
:100E180006D1FFF7A7FB001B0228F5D903201AE02B
:100E2800002018E0104B00221A60FFF79BFB0446D5
:100E38000C4B1B6813F0007F06D0FFF793FB001BD9
:100E48000228F5D9032006E0002004E001207047BD
:100E5800012000E0002002B070BD0120FBE700BFC8
:100E680000700040003802406000474290280008A7
:100E7800264B9B6803F00C03042B44D0082B01D0AD
:100E8800234870472DE9F04B204B5A6802F03F0287
:100E98005B6813F4800F13D01C4B5968C1F3881199
:100EA80000231C48A1FB0001FFF792F9174B5B6870
:100EB800C3F3014301335B00B0FBF3F0BDE8F08BF3
:100EC800124B5B68C3F388131E4600275C0100259C
:100ED800E41A65EB0705A90141EA9461A001001B2A
:100EE80061EB0501CB0043EA5073C400A01943EB42
:100EF80007018B0243EA90538402204619460023D7
:100F0800FFF766F9D2E70348704700BF0038024090
:100F18000024F40040787D01002800F0F98070B5C5
:100F280004460D460368013B0E2B11D8072D15D832
:100F3800794B1B6803F00F03AB4215D2EBB2764A2C
:100F48001370136803F00F03AB420DD0012070BD7E
:100F58004FF41471714801F02FFAE7E740F251217C
:100F68006E4801F029FAE3E7236813F0020F29D04D
:100F780013F0040F04D06A4A936843F4E053936073
:100F8800236813F0080F04D0654A936843F460435C
:100F98009360A3687BB1802B0DD0902B0BD0A02B36
:100FA80009D0B02B07D0C02B05D0D02B03D0E02B15
:100FB80001D0F02B33D15A4A936823F0F003A1688B
:100FC8000B439360236813F0010F42D06368032B2F
:100FD8002BD86368012B2ED09A1E012A32D9504A89
:100FE800126812F0020F00F095804D498A6822F0CD
:100FF800030213438B60FFF7B5FA0646484B9B681C
:1010080003F00C036268B3EB820F22D0FFF7AAFA51
:10101800801B41F288339842F0D9032097E74FF4B8
:101028001D713E4801F0C8F9C5E740F27B213B48F5
:1010380001F0C2F9CDE73A4A126812F4003FD4D160
:10104800012084E7364A126812F0007FCDD10120D2
:101058007DE7314B1B6803F00F03AB4209D9EAB2B5
:101068002D4B1A701B6803F00F03AB4201D001200F
:101078006DE7236813F0040F14D0E3685BB1B3F590
:10108800805F08D0B3F5A05F05D0B3F5C05F02D08C
:10109800B3F5E05F30D1224A936823F4E053E16866
:1010A8000B439360236813F0080F15D023695BB1D5
:1010B800B3F5805F08D0B3F5A05F05D0B3F5C05F86
:1010C80002D0B3F5E05F1DD1154A936823F460435D
:1010D800216943EAC1039360FFF7CAFE104B9B687E
:1010E800C3F303130F4AD35CD8400F4B186000209A
:1010F800FFF7EEF900202AE740F2B921074801F08E
:101108005BF9C8E74FF43071044801F055F9DBE7A3
:101118000120704701201AE7003C0240902800088F
:1011280000380240002800080C000020014B186815
:10113800704700BF0C00002070B4036A23F001035D
:101148000362036A4268846924F073040D6845EAFF
:10115800040623F002048B6823430B4DA84206D0F3
:10116800426086614A684263036270BC704723F03C
:101178000803CC68234323F0040322F440724C692B
:1011880014438A692243EBE70000014010B4036A64
:10119800046A24F001040462846924F0F00444EA37
:1011A800021223F00A030B43826103625DF8044BC9
:1011B800704710B4036A23F0100303628469036A5A
:1011C80024F4704444EA023223F0A00343EA0113F2
:1011D800826103625DF8044B7047836823F07003F3
:1011E80041F0070119438160704710B4846824F402
:1011F8007F4442EA03230B43234383605DF8044B97
:10120800704700002DE9F04104460E46036A23F4B6
:1012180080730362056A4768C36923F073080B6823
:1012280043EA080825F400758B6845EA03251D4B39
:10123800984207D06760C4F81C807368E36325622E
:10124800BDE8F081CB680BB1082B19D1B369B3F5B0
:10125800007F00D0D3B97369B3F5807F00D0DBB9C4
:1012680025F40065F36845EA032525F4806527F42D
:101278004057736947EA0317B36947EA0317D9E781
:1012880041F21731084801F097F8DFE741F21831C9
:10129800054801F091F8DEE741F21931024801F002
:1012A8008BF8DDE700000140C82800082DE9F0416F
:1012B80004460F46036A23F480530362056AD0F894
:1012C8000480C66926F4E6460B6846EA032625F438
:1012D80000558B6845EA03350D4B984207D0C4F892
:1012E8000480E6617B6823642562BDE8F0814B6970
:1012F800B3F5807F00D02BB928F480487B6948EA91
:101308008318ECE741F25D31024801F055F8F3E744
:1013180000000140C82800087047000038B590F860
:101328003830012B00F070820D460446012380F806
:101338003830022380F839300B68B3F5805F11D05C
:10134800B3F5005F0ED06BB1102B0BD0202B09D05A
:10135800302B07D0402B05D0502B03D0602B01D069
:10136800702B4AD12268936823F47F4323F07703D4
:1013780093602B68402B00F0BF8144D9702B00F09C
:10138800058100F28F80502B00F06481602B40F0C3
:10139800F6802368AD4A934217D0B3F1804F14D03A
:1013A800A2F57C42934210D002F5806293420CD0A1
:1013B80002F58062934208D002F59A32934204D033
:1013C80040F6C471A24800F0F7FF6B68B3F5004F10
:1013D80005D023B1022B02D00A2B40F08181EB68A3
:1013E8000F2B00F28381EA6869682068FFF7E1FE45
:1013F80060212068FFF7F1FEC1E040F6777194485C
:1014080000F0DAFFAEE7102B00F0BC8126D9202BC4
:1014180000F0D981302B40F0B28023688B4A934288
:1014280017D0B3F1804F14D0A2F57C42934210D06C
:1014380002F5806293420CD002F58062934208D094
:1014480002F59A32934204D040F6F271804800F0D7
:10145800B3FF30212068FFF7C0FE90E0002B40F07A
:101468008E802368794A934217D0B3F1804F14D005
:10147800A2F57C42934210D002F5806293420CD0D0
:1014880002F58062934208D002F59A32934204D062
:101498004FF47E616E4800F08FFF00212068FFF74F
:1014A8009CFE6CE0B3F5805F40D0B3F5005F66D179
:1014B8002368664A934213D0B3F1804F10D0A2F547
:1014C8007C4293420CD002F58062934208D002F528
:1014D8008062934204D040F6A4715D4800F06CFF2E
:1014E8006B68B3F5004F05D023B1022B02D00A2B4D
:1014F80040F09980AB684BB1B3F5805F06D0B3F587
:10150800005F03D0B3F5405F40F09380EB680F2B8A
:1015180000F29580EB686A68A9682068FFF765FEA5
:101528002268936843F48043936028E02368474A1D
:1015380093421FD0B3F1804F1CD0A2F57C42934256
:1015480018D002F58062934214D002F5806293426B
:1015580010D002F59A3293420CD002F58062934281
:1015680008D002F58062934204D040F6837138486F
:1015780000F022FF2268936823F007039360012399
:1015880084F83930002084F8380038BD23682F4AA1
:10159800934213D0B3F1804F10D0A2F57C4293420E
:1015A8000CD002F58062934208D002F58062934223
:1015B80004D040F68C71264800F0FEFE6B68B3F547
:1015C800004F04D01BB1022B01D00A2B19D1AB68F4
:1015D80043B1B3F5805F05D0B3F5005F02D0B3F532
:1015E800405F14D1EB680F2B17D8EB686A68A968BD
:1015F8002068FFF7FAFD2268936843F07703936049
:10160800BDE740F68E71124800F0D6FEDFE740F6DF
:101618008F710F4800F0D0FEE4E74FF479610C4871
:1016280000F0CAFEE1E740F6A671094800F0C4FEE2
:1016380060E740F6A771064800F0BEFE66E740F690
:10164800A871034800F0B8FE64E700BF000001403D
:10165800C828000823686D4A93421FD0B3F1804F11
:101668001CD0A2F57C42934218D002F580629342C6
:1016780014D002F58062934210D002F59A32934258
:101688000CD002F58062934208D002F58062934242
:1016980004D040F6B6715E4800F08EFE6B68B3F574
:1016A800004F04D01BB1022B01D00A2B0CD1EB68E0
:1016B8000F2B0FD8EA6869682068FFF767FD50218B
:1016C8002068FFF78AFD5AE740F6B971504800F0E4
:1016D80073FEECE740F6BA714D4800F06DFEE9E79D
:1016E80040F6C7714A4800F067FE78E640F6C871D0
:1016F800474800F061FE76E62368444A93421FD0CB
:10170800B3F1804F1CD0A2F57C42934218D002F569
:101718008062934214D002F58062934210D002F5A1
:101728009A3293420CD002F58062934208D002F5B7
:101738008062934204D040F6D271354800F03CFEF6
:101748006B68B3F5004F04D01BB1022B01D00A2BF4
:101758000CD1EB680F2B0FD8EA6869682068FFF78F
:1017680015FD40212068FFF738FD08E740F6D571E0
:10177800274800F021FEECE740F6D671244800F037
:101788001BFEE9E72368214A934217D0B3F1804F43
:1017980014D0A2F57C42934210D002F580629342A5
:1017A8000CD002F58062934208D002F59A32934237
:1017B80004D040F6E671164800F0FEFD10212068BE
:1017C800FFF70BFDDBE62368104A934217D0B3F10D
:1017D800804F14D0A2F57C42934210D002F580626B
:1017E80093420CD002F58062934208D002F59A32F7
:1017F800934204D040F6EC71054800F0DDFD20214D
:101808002068FFF7EAFCBAE60220BEE600000140C5
:10181800C82800087047704770477047704710B570
:10182800044603681A6912F0020F11D0DA6812F040
:10183800020F0DD06FF002021A61012303760368CC
:101848009B6913F0030F70D0FFF7E6FF00232376A0
:1018580023681A6912F0040F12D0DA6812F0040F24
:101868000ED06FF004021A610223237623689B6965
:1018780013F4407F5FD02046FFF7CEFF0023237686
:1018880023681A6912F0080F12D0DA6812F0080FEC
:101898000ED06FF008021A61042323762368DB69EF
:1018A80013F0030F4ED02046FFF7B6FF0023237630
:1018B80023681A6912F0100F12D0DA6812F0100FAC
:1018C8000ED06FF010021A61082323762368DB69B3
:1018D80013F4407F3DD02046FFF79EFF0023237678
:1018E80023681A6912F0010F03D0DA6812F0010FA9
:1018F80036D123681A6912F0800F03D0DA6812F023
:10190800800F34D123681A6912F0400F03D0DA68C7
:1019180012F0400F32D123681A6912F0200F03D059
:10192800DA6812F0200F30D110BDFFF774FF20469F
:10193800FFF773FF8AE72046FFF76DFF2046FFF7A2
:101948006CFF9BE72046FFF766FF2046FFF765FF21
:10195800ACE72046FFF75FFF2046FFF75EFFBDE7D5
:101968006FF001021A612046FFF754FFC1E76FF0DC
:1019780080021A61204600F074FBC3E76FF0400252
:101988001A612046FFF74AFFC5E76FF020021A6187
:10199800204600F065FBC7E70368234A90420ED053
:1019A800B0F1804F0BD0A2F57C42904207D002F5EF
:1019B8008062904203D002F58062904203D123F006
:1019C80070034A681343184A90421AD0B0F1804F06
:1019D80017D0A2F57C42904213D002F58062904263
:1019E8000FD002F5806290420BD002F59A329042F5
:1019F80007D002F58062904203D002F580629042DF
:101A080003D123F44073CA68134303608B68C3622D
:101A18000B688362044B984202D0012343617047EC
:101A28000B690363F9E700BF00000140002855D0A7
:101A380010B5044603682A4A93421ED0B3F1804F7A
:101A48001BD0A2F57C42934217D002F580629342E4
:101A580013D002F5806293420FD002F59A32934276
:101A68000BD002F58062934207D002F58062934260
:101A780003D0D7211B4800F09FFCA3683BB1102B73
:101A880005D0202B03D0402B01D0602B16D1236921
:101A98002BB1B3F5807F02D0B3F5007F13D194F852
:101AA8003930ABB1022384F83930211D2068FFF7A3
:101AB80073FF012384F83930002010BDD82109486C
:101AC80000F07AFCE3E7D921064800F075FCE6E768
:101AD80084F83830204600F0FDFCE3E70120704729
:101AE80000000140C8280008002858D010B5044656
:101AF80003682C4A93421FD0B3F1804F1CD0A2F543
:101B08007C42934218D002F58062934214D002F5C9
:101B18008062934210D002F59A3293420CD002F5BB
:101B28008062934208D002F58062934204D040F26A
:101B3800F1311D4800F040FCA3683BB1102B05D0E3
:101B4800202B03D0402B01D0602B16D123692BB159
:101B5800B3F5807F02D0B3F5007F14D194F8393003
:101B6800BBB1022384F83930211D2068FFF714FF28
:101B7800012384F83930002010BD40F2F2310A48C0
:101B880000F01AFCE2E740F2F331074800F014FCD9
:101B9800E4E784F838302046FFF7BEFBE1E7012090
:101BA800704700BF00000140C82800082DE9F04137
:101BB80004460F46036A23F010030362056AD0F84F
:101BC8000480866926F4E6460B6846EA032625F073
:101BD80020058B6845EA0315124B984207D0C4F8D4
:101BE8000480A6617B68A3632562BDE8F081CB68A9
:101BF8000BB1082B0FD125F08005FB6845EA0315CA
:101C080025F0400528F440687B6948EA8308BB69E9
:101C180048EA8308E3E741F20521034800F0CCFBDA
:101C2800E9E700BF00000140C828000890F83830F4
:101C3800012B00F00B8170B516460D4604460123B2
:101C480080F838303AB1042A05D0082A03D00C2A83
:101C580001D0182A1AD12B68602B01D0702B1BD108
:101C6800AB680BB1022B1DD12B690BB1042B1FD113
:101C7800022384F839300C2E57D8DFE806F01F56B7
:101C880056565D5656568E565656BA0040F6484138
:101C98006F4800F091FBDEE740F649416C4800F0E0
:101CA8008BFBDDE740F64A41694800F085FBDBE73E
:101CB80040F64B41664800F07FFBD9E72368654A48
:101CC80093421FD0B3F1804F1CD0A2F57C429342BF
:101CD80018D002F58062934214D002F580629342D4
:101CE80010D002F59A3293420CD002F580629342EA
:101CF80008D002F58062934204D040F6534154481C
:101D080000F05AFB29462068FFF716FA2268936903
:101D180043F0080393612268936923F004039361F5
:101D28002268936929690B439361012384F8393048
:101D3800002084F8380070BD2368464A934217D0C3
:101D4800B3F1804F14D0A2F57C42934210D002F533
:101D5800806293420CD002F58062934208D002F56B
:101D68009A32934204D040F66241394800F024FB8D
:101D780029462068FFF71AFF2268936943F4006335
:101D880093612268936923F480639361226893695D
:101D9800296943EA01239361C7E723682D4A9342DF
:101DA80013D0B3F1804F10D0A2F57C4293420CD0EF
:101DB80002F58062934208D002F58062934204D013
:101DC80040F67141224800F0F7FA29462068FFF7EB
:101DD80019FA2268D36943F00803D3612268D369EA
:101DE80023F00403D3612268D36929690B43D361C3
:101DF8009BE72368174A934213D0B3F1804F10D062
:101E0800A2F57C4293420CD002F58062934208D03E
:101E180002F58062934204D04FF448610C4800F008
:101E2800CBFA29462068FFF741FA2268D36943F4C0
:101E38000063D3612268D36923F48063D361226885
:101E4800D369296943EA0123D3616EE70220704709
:101E5800C82800080000014070B504460D46164623
:101E68001E4B98421FD0B0F1804F1CD0A3F57C4385
:101E7800984218D003F58063984214D003F5806324
:101E8800984210D003F59A3398420CD003F580633A
:101E9800984208D003F58063984204D041F2882123
:101EA8000F4800F089FA65B1042D0AD0082D08D032
:101EB8000C2D06D0182D04D041F28921084800F0D5
:101EC8007BFA012303FA05F2236A23EA0203236259
:101ED800236A06FA05F51D43256270BD000001401E
:101EE800C828000838B504460D460368244A9342BA
:101EF8002CD0B3F1804F29D0A2F57C42934225D053
:101F080002F58062934221D002F5806293421DD08F
:101F18001C4A934223D01C4A934225D01B4A934221
:101F280025D040F252411A4800F046FA01222946CB
:101F38002068FFF791FF2368114A93421AD022685C
:101F4800136843F001031360002038BD002DEDD065
:101F5800042DEBD0082DE9D00C2DD9D1E6E7002DC2
:101F6800E4D0042DD7D1E1E7002DDFD0D6E7002D4E
:101F7800DCD0D6E75A6C42F400425A64DFE700BF6F
:101F88000000014000400140004401400048014079
:101F9800C828000838B504460D4603682E4A9342FF
:101FA80013D0B3F1804F10D0A2F57C4293420CD0ED
:101FB80002F58062934208D002F58062934204D011
:101FC80040F24A61254800F0F7F92B686BB1102BF5
:101FD8000BD0202B09D0302B07D0402B05D0502B0D
:101FE80003D0602B01D0702B27D16B68802B00D0D9
:101FF8004BBB94F83830012B2BD0012284F83820C1
:10200800022384F8393021684B6823F070034B6051
:1020180021684B68286803434B6021688B6823F06C
:1020280080038B6021688B68686803438B6084F841
:102038003920002084F8380038BD40F24B61074849
:1020480000F0BAF9D1E740F24C61044800F0B4F965
:10205800CFE70220F0E700BF000001400029000898
:102068007047704770B58CB0002401943E4B1A6BD2
:1020780042F010021A631A6B02F010020192019AE0
:1020880002941A6B42F004021A631A6B02F00402FB
:102098000292029A03941A6B42F080021A631A6B36
:1020A80002F080020392039A04941A6B42F0010230
:1020B8001A631A6B02F001020492049A05941A6BCF
:1020C80042F002021A631A6B02F002020592059AA4
:1020D80006941A6B42F008021A631B6B03F008039C
:1020E8000693069B4FF6FF730793032508950994FB
:1020F80007A91E48FEF704FB43F6FF7307930895EC
:10210800099407A91A48FEF7FBFA01230793194B0C
:1021180008930994184E07A93046FEF7F1FA4FF6CE
:10212800FE7307930895099407A93046FEF7E8FA65
:102138004FF2FF7307930895099407A90F48FEF714
:10214800DFFA40F6FF7307930895099407A90C482E
:10215800FEF7D6FA224621460620FEF73BFA06206D
:10216800FEF77EFA0CB070BD003802400010024045
:102178000008024000003110000002400004024044
:10218800000C024010B504460C2000F0A7FA0460C9
:1021980000228260426010BD38B5074D2C68FFF7F9
:1021A800F1FF2B6813B9286005E01C466368002B13
:1021B800FBD16060846038BDA800002008B500220B
:1021C80009E0C2F5FD3303F5E87303600BE0013362
:1021D8008B42FCD30A32074B9A4206D84FF6E75394
:1021E8009A42EED802600023F2E79620FEF7C0F983
:1021F80008BD00BFD0FB010008B538B9074A13680D
:102208009B6813601868FFF7D9FF08BD034A136875
:102218005B6813601868FFF7D1FFF6E7A800002095
:10222800054B19680A4600E01A465368002BFBD193
:102238008A605160704700BFA8000020012800D0C4
:10224800704708B5FEF78EF90E4B1B68C01A312887
:1022580000D808BDFEF786F90A4B18605B6863B1C1
:10226800084B00225A60084B1B6813B1064B1A60D2
:10227800EFE7054B01221A60EBE7024B01225A6097
:10228800E7E700BF9000002008000020FEE70000FC
:1022980000B595B000230193234A116C41F0805199
:1022A8001164126C02F080520192019A02931F4A43
:1022B800116841F440411160126802F440420292F0
:1022C800029A0222089201220B9210220C920E937B
:1022D80008A8FEF77DFBF0B90F23039300210491B2
:1022E80005910691079103A8FEF716FEB8B9FEF707
:1022F8001DFF0F4BA3FB00308009FEF7C7F9042030
:10230800FEF7DAF9002211464FF0FF30FEF762F9C6
:1023180015B05DF804FBF2210648FFF7B7FF4FF44C
:1023280080710448FFF7B2FF003802400070004097
:10233800D34D62103C29000808B5FEF7EDF8FFF709
:10234800A7FFFFF78FFE00F001F9144C002120468B
:10235800FFF7C8FD04212046FFF7C4FD08212046E9
:10236800FFF7C0FD0C212046FFF7BCFD0C4B0022F7
:102378001A600C48FFF710FF0B48FFF70DFF0B48DA
:10238800FFF70AFF0A48FFF707FFFFF749FF094B66
:1023980018684FF49671FFF72FFFF8E7AC0000209C
:1023A800A800002034080040380800403C080040DD
:1023B80040080040080000207047000010B582B0B7
:1023C80000240094214B5A6C42F480425A645A6C9F
:1023D80002F480420092009A01941A6C42F08052F2
:1023E8001A641B6C03F080530193019B0320FEF7D2
:1023F800D3F8224621466FF00B00FEF7EBF8224691
:1024080021466FF00A00FEF7E5F8224621466FF0F4
:102418000900FEF7DFF8224621466FF00400FEF7B8
:10242800D9F8224621466FF00300FEF7D3F822467A
:1024380021466FF00100FEF7CDF8224621464FF005
:10244800FF30FEF7C7F802B010BD00BF00380240E9
:102458007047FEE7FEE7FEE7FEE770477047704704
:1024680008B5FEF773F8FEF746F908BD08B5012070
:10247800FEF7A0FA08BD000008B50248FFF7CFF93B
:1024880008BD00BFAC0000200F49D1F8883043F4E4
:102498007003C1F888300D4B1A6842F001021A60C7
:1024A800002098601A6822F0847222F480321A6040
:1024B800074A5A601A6822F480221A60D8604FF0DE
:1024C80000638B60704700BF00ED00E000380240F9
:1024D8001030002402680E4B9A4200D0704700B5B5
:1024E80083B00021019103F50C331A6C42F0040209
:1024F8001A641B6C03F004030193019B0A461E2017
:10250800FEF768F81E20FEF7ABF803B05DF804FB91
:102518000008004002680B4B9A4200D0704700B593
:1025280087B04FF470430193022302930022039271
:102538000493059301A90448FEF7E2F807B05DF893
:1025480004FB00BF00080040000C024000B58FB03B
:102558003848394B03600023436083604FF6FF72AD
:10256800C2600361FFF762FA00283BD10EA94FF45D
:10257800805341F8103D2F48FEF7D0FE002836D191
:102588002C48FFF7B1FA002836D1002308930993A5
:1025980008A92848FFF7FEFC002832D160230193E0
:1025A800002202920392059201A92248FFF73EFBFE
:1025B80060BB04220DEB02011E48FFF737FB50BB3E
:1025C800082201A91B48FFF731FB48BB0C2201A9CF
:1025D8001848FFF72BFB40BB1648FFF79BFF0FB0CF
:1025E8005DF804FB3F211548FFF750FEBEE7452183
:1025F8001248FFF74BFEC3E74A211048FFF746FE93
:10260800C3E751210D48FFF741FEC7E75A210B48A0
:10261800FFF73CFECDE75F210848FFF737FECFE71D
:1026280064210648FFF732FED0E769210348FFF727
:102638002DFED1E7AC000020000800404C2900081E
:10264800DFF834D0002103E00C4B5B5843500431D1
:102658000B480C4B42189A42F6D30B4A02E000236F
:1026680042F8043B094B9A42F9D3FFF70DFF00F0FB
:1026780011F8FFF761FE7047000002206C2900087E
:10268800000000207400002074000020EC000020EE
:10269800FEE7000070B50D4E0D4CA41BA4100025DC
:1026A800A54209D10B4E0C4C00F09AF8A41BA410BB
:1026B8000025A54205D170BD56F82530984701354B
:1026C800EEE756F8253098470135F2E76429000807
:1026D800642900086429000868290008024B01469B
:1026E800186800F003B800BF1000002070B5CD1CBA
:1026F80025F0030508350C2D38BF0C25002D06469E
:1027080001DBA94203D90C233360002070BD00F01F
:1027180057F8214A1468214691B9204C23681BB9FF
:10272800304600F03DF820602946304600F038F881
:10273800431C24D10C233360304600F042F8E4E710
:102748000B685B1B18D40B2B0FD90B60CD50CC1822
:10275800304600F036F804F10B00231D20F0070086
:10276800C31AD3D05A42E250D0E78C424B6816BF06
:10277800636013600C46EBE70C464968CCE7C41C61
:1027880024F00304A04205D0211A304600F008F8CE
:102798000130CFD02560DBE7980000209C000020A6
:1027A80038B5064C002305460846236000F00AF8B1
:1027B800431C02D1236803B12B6038BDE800002018
:1027C80070477047044A05491368002B08BF0B4639
:1027D8001844106018467047A0000020F000002040
:1027E800F8B500BFF8BC08BC9E467047F8B500BFF6
:0827F800F8BC08BC9E467047C6
:1028000000000000000000000102030406070809A0
:1028100000000000010203042E2E2F447269766529
:1028200072732F53544D3332463478785F48414C9D
:102830005F4472697665722F5372632F73746D33C0
:1028400032663478785F68616C5F636F7274657844
:102850002E6300002E2E2F447269766572732F53FB
:10286000544D3332463478785F48414C5F44726946
:102870007665722F5372632F73746D3332663478BA
:10288000785F68616C5F6770696F2E63000000009D
:102890002E2E2F447269766572732F53544D333246
:1028A000463478785F48414C5F4472697665722F90
:1028B0005372632F73746D3332663478785F686156
:1028C0006C5F7263632E63002E2E2F4472697665EF
:1028D00072732F53544D3332463478785F48414CED
:1028E0005F4472697665722F5372632F73746D3310
:1028F00032663478785F68616C5F74696D2E63004E
:102900002E2E2F447269766572732F53544D3332D5
:10291000463478785F48414C5F4472697665722F1F
:102920005372632F73746D3332663478785F6861E5
:102930006C5F74696D5F65782E6300002E2E2F53D7
:1029400072632F6D61696E2E630000002E2E2F536F
:0C29500072632F74696D2E63000000009C
:08295C00ACD8FF7F0100000070
:04296400BD010008A9
:0429680099010008C9
:10296C000100000010000000010000000024F40031
:10297C001400002000000000000000000000000017
:10298C00000000000000000000000000000000003B
:10299C00000000000000000000000000000000002B
:1029AC00000000000000000000000000000000001B
:1029BC00000000000000000000000000000000000B
:1029CC0000000000000000000000000000000000FB
:0429DC0000000000F7
:040000050800264980
:00000001FF
