:020000040800F2
:1000000000A0002079140008E9130008EB13000891
:10001000ED130008EF130008F113000800000000C2
:10002000000000000000000000000000F3130008C2
:10003000F513000800000000F7130008F91300088A
:10004000C9140008C9140008C9140008C91400081C
:10005000C9140008C914000805140008C9140008D0
:10006000C9140008C9140008C9140008C9140008FC
:10007000C9140008C9140008C9140008C9140008EC
:10008000C9140008C9140008C9140008C9140008DC
:10009000C9140008C9140008C9140008C9140008CC
:1000A000C9140008C9140008C9140008C9140008BC
:1000B000C9140008C9140008C9140008C9140008AC
:1000C000C9140008C9140008C9140008C91400089C
:1000D000C9140008C9140008C9140008C91400088C
:1000E000C9140008C9140008C9140008C91400087C
:1000F000C9140008C9140008C9140008C91400086C
:10010000000000000000000000000000C91400080A
:10011000C9140008C9140008C9140008C91400084B
:10012000C9140008C9140008C9140008C91400083B
:10013000C9140008C91400080000000000000000F5
:10014000C9140008C9140008C91400080000000000
:10015000000000000000000000000000000000009F
:100160000000000000000000C9140008C9140008C5
:10017000C91400080000000000000000000000009A
:0801800000000000C914000892
:1001880010B5054C237833B9044B13B10448AFF3C9
:1001980000800123237010BD100000200000000023
:1001A8001415000808B5034B1BB103490348AFF306
:1001B800008008BD0000000014000020141500088D
:1001C80010B504460E4B18784FF47A73B3FBF0F36E
:1001D8000C4A1068B0FBF3F000F0B4F868B90F2CC3
:1001E80001D901200AE0002221464FF0FF3000F03B
:1001F8004DF8034B5C60002000E0012010BD00BFFB
:10020800000000200C00002008B5074A136843F0DE
:1002180010031360032000F01BF80020FFF7D0FF45
:1002280001F096F8002008BD00200240034A11683A
:10023800034B1B780B441360704700BF3400002049
:1002480000000020014B1868704700BF34000020F0
:1002580010B50446C31E042B0FD80A4AD36823F4EA
:10026800E0631B041B0C240204F4E064234343F002
:10027800BF6343F40033D36010BDBC21024801F0D2
:1002880065F8EAE700ED00E06415000870B505467A
:100298000C4616460F2A25D80F2C28D81B4BDB688E
:1002A800C3F30223C3F10702042A28BF0422191D3D
:1002B800062921D9033B4FF0FF3101FA02F224EA63
:1002C80002049C4001FA03F326EA03063443002D96
:1002D80014DB2401E4B205F1604505F5614585F8B4
:1002E800004370BDD4210A4801F030F8D4E7D52185
:1002F800074801F02BF8D1E70023DCE705F00F05EC
:100308002401E4B2034B5C55EBE700BF00ED00E0CD
:100318006415000814ED00E010B5041E08DB04F0B5
:100328001F02640901239340044A42F8243010BD97
:10033800E821034801F00AF8F1E700BF00E100E016
:10034800641500080138B0F1807F0AD2064B586066
:10035800064AF02182F823100020986007221A60CC
:1003680070470120704700BF10E000E000ED00E09A
:1003780010B50446042800D038B9042C0BD0094A1B
:10038800136823F00403136010BD40F2E11106481E
:1003980000F0DCFFF1E7034A136843F0040313603D
:1003A800F2E700BF10E000E064150008704708B5E8
:1003B800FFF7FCFF08BD00002DE9F04782B00646B4
:1003C8000C46B0F1904F16D0A44B984213D003F5C9
:1003D800806398420FD003F5806398420BD003F5F1
:1003E8008063984207D003F58063984203D0C32105
:1003F8009B4800F0ABFF23689AB212B11B0C1B0498
:100408001BB1C421964800F0A1FF6368012B1ED9D7
:10041800112B1CD0022B1AD0122B18D0914A9342C0
:1004280015D002F58012934211D002F58012934242
:100438000DD0A2F5F812934209D002F5801293422A
:1004480005D002F58012934201D0032B04D1A36892
:10045800022B06D800254AE0C521814800F076FF26
:10046800F5E7C6217E4800F071FFF3E7D6217C4806
:1004780000F06CFF6DE0EA21794800F067FF98E032
:10048800042300E000238B4003430232764941F8FD
:100498002230764B1A68FB4303EA0201606810F4C5
:1004A800803F01D047EA0201704A1160526803EAAE
:1004B8000201606810F4003F01D047EA02016B4A6C
:1004C8005160926803EA0201606810F4801F01D04D
:1004D80047EA0201654A9160D2681340616811F4E5
:1004E800001F01D047EA0203604AD360013527683C
:1004F80037FA05F300F0AF804FF0010808FA05F865
:1005080018EA0707F2D06368022B01D0122B30D10A
:10051800B6F1904F16D0514B9E4213D003F580632D
:100528009E420FD003F580639E420BD003F5806393
:100538009E4207D003F580639E4203D0D5214848E8
:1005480000F004FF23690C2B03D90E2B01D00F2BCD
:100558008CD1EA08083256F8220005F00703990002
:100568000F238B4020EA030023698B40034346F89E
:10057800223032684FEA450A4FF0030909FA0AF9AE
:100588006FEA090909EA0202636803F0030303FA40
:100598000AF31343336063685A1E012A03D9112BE7
:1005A80001D0122B17D1E368012B02D9032B7FF45A
:1005B80062AFB26809EA0202E36803FA0AF3134376
:1005C800B360736823EA08086368C3F30013AB4099
:1005D80043EA08037360F36809EA0309A36803FAA6
:1005E8000AF343EA0903F360636813F0805F3FF49A
:1005F8007DAF1F4B9A6942F001029A619B6903F033
:1006080001030193019BAA08911C174B53F8210081
:1006180005F0030399000F238B4020EA0300B6F18D
:10062800904F3FF42FAF0D4B9E420ED003F58063E1
:100638009E420CD003F580639E420AD003F5806386
:100648009E423FF41DAF05231DE701231BE702234C
:1006580019E7032317E702B0BDE8F0870004004854
:10066800A01500080000111000000140000401401E
:100678000010024070B5054614460E4621B1012C03
:1006880008D86CB9AE6270BD4FF4D871054800F057
:100698005DFEF4E740F2B111024800F057FEF0E7C2
:1006A800AE61F0E7A015000808B5054B5B69034289
:1006B80000D108BD024B586100F0B2FDF9E700BF58
:1006C80000040140002800F08A8370B582B0044617
:1006D800036813B113F00F0F2BD0236813F0010F29
:1006E8004FD063682BB1B3F5803F02D0B3F5A02F8C
:1006F80025D1B44B5B6803F00C03042B2AD0B14B13
:100708005B6803F00C03082B1FD06368B3F5803FC8
:100718007CD0002B40F0A68003F1804303F504331E
:100728001A6822F480321A601A6822F480221A6049
:1007380071E040F25711A44800F008FECDE740F2FE
:100748005D11A14800F002FED3E79E4B5B6813F4ED
:10075800803FDAD04FF4003393FAA3F3994B19682A
:100768004FF4003393FAA3F3B3FA83F303F01F03B0
:10077800012202FA03F30B4203D06368002B00F056
:100788003083236813F0020F00F0DA802369012B0D
:1007980000F2A08063691F2B00F2A280894B5B687E
:1007A80013F00C0F00F0A880864B5B6803F00C0375
:1007B800082B00F09B802369002B00F0098101229F
:1007C80092FAA2F3B3FA83F303F1845303F5841383
:1007D8009B001A60FFF736FD0546022393FAA3F340
:1007E800784B1968022393FAA3F3B3FA83F303F05F
:1007F8001F03012202FA03F30B4240F0D380FFF7F4
:1008080021FD401B0228E8D90320F1E26D4A136854
:1008180043F4803313606B4AD36A23F00F03A16853
:100828000B43D3626368002B36D0FFF70BFD0546F8
:100838004FF4003393FAA3F3624B19684FF4003373
:1008480093FAA3F3B3FA83F303F01F03012202FA26
:1008580003F30B4295D1FFF7F5FC401B6428E7D959
:100868000320C5E2B3F5A02F09D0564B1A6822F42D
:1008780080321A601A6822F480221A60CBE703F1EA
:100888008043A3F53C331A6842F480221A601A6840
:1008980042F480321A60BEE7FFF7D4FC05464FF4F5
:1008A800003393FAA3F3474B19684FF4003393FAD4
:1008B800A3F3B3FA83F303F01F03012202FA03F34D
:1008C8000B423FF45EAFFFF7BDFC401B6428E6D93E
:1008D80003208DE240F295113B4800F037FD59E7BF
:1008E8004FF4CB71384800F031FD57E7354B5B6862
:1008F80013F4803F7FF45FAF022393FAA3F3314BE5
:100908001968022393FAA3F3B3FA83F303F01F03DE
:10091800012202FA03F30B4204D02369934201D067
:10092800012065E22748036823F0F8036169F8228B
:1009380092FAA2F2B2FA82F201FA02F213430360C7
:10094800236813F0080F00F09880A369012B66D87C
:10095800A369002B69D0012191FAA1F2B2FA82F2BF
:100968001A4B13449B001960FFF76CFC05460223E1
:1009780093FAA3F293FAA3F293FAA3F2114A516AF3
:1009880093FAA3F3B3FA83F303F01F03012202FAE5
:1009980003F30B4271D1FFF755FC401B0228E6D93F
:1009A800032025E20748036823F0F8036169F82269
:1009B80092FAA2F2B2FA82F201FA02F21343036047
:1009C800BEE700BF00100240DC150008208190102F
:1009D800012393FAA3F3B3FA83F303F1845303F5E2
:1009E80084139B0000221A60FFF72CFC05460223A3
:1009F80093FAA3F3B94B1968022393FAA3F3B3FA52
:100A080083F303F01F03012202FA03F30B4297D08A
:100A1800FFF718FC401B0228E9D90320E8E14FF44E
:100A2800EB71AF4800F092FC92E7012292FAA2F231
:100A3800B2FA82F2AB4B13449B0000221A60FFF714
:100A480001FC0546022393FAA3F293FAA3F293FA60
:100A5800A3F2A24A516A93FAA3F3B3FA83F303F019
:100A68001F03012202FA03F30B4206D0FFF7EAFB49
:100A7800401B0228E6D90320BAE1236813F0040FCB
:100A880000F0C080E368012B01D9052B26D1934BD8
:100A9800DB6913F0805F27D1904BDA6942F080520E
:100AA800DA61DB6903F080530193019B01258E4BCA
:100AB8001B6813F4807F19D0E368012B2AD0002B20
:100AC80034D103F1804303F504331A6A22F001029A
:100AD8001A621A6A22F004021A6220E040F2022125
:100AE8007F4800F033FCD2E70025E0E77E4A136830
:100AF80043F480731360FFF7A5FB06467A4B1B6827
:100B080013F4807FD8D1FFF79DFB801B6428F5D9AB
:100B180003206DE1714A136A43F001031362E3682D
:100B2800002B41D0FFF78EFB06462BE0052B09D0A2
:100B38006A4B1A6A22F001021A621A6A22F0040247
:100B48001A62ECE7654B1A6A42F004021A621A6AE2
:100B580042F001021A62E2E7604B196A022393FA33
:100B6800A3F3B3FA83F303F01F03012202FA03F39A
:100B7800194245D1FFF766FB801B41F28833984242
:100B880000F23181022393FAA3F293FAA3F3B3FAA2
:100B980083F35B0943F00203022BDDD0022393FAAF
:100BA800A3F34E4B596AD9E7FFF74CFB064615E00D
:100BB8004A4B196A022393FAA3F3B3FA83F303F0B7
:100BC8001F03012202FA03F3194219D0FFF73AFB77
:100BD800801B41F28833984200F20781022393FA7E
:100BE800A3F293FAA3F3B3FA83F35B0943F0020386
:100BF800022BDDD0022393FAA3F3384B596AD9E7C5
:100C0800002D73D1E369022B76D8E369002B00F03D
:100C1800EE80324A526802F00C02082A00F0EA809C
:100C2800022B40F0B080236A13B1B3F5803F69D13D
:100C3800636A4BB3B3F5802F26D0B3F5002F23D0CA
:100C4800B3F5402F20D0B3F5801F1DD0B3F5A01FFA
:100C58001AD0B3F5C01F17D0B3F5E01F14D0B3F501
:100C6800001F11D0B3F5101F0ED0B3F5201F0BD005
:100C7800B3F5301F08D0B3F5401F05D0B3F5501FAA
:100C880002D0B3F5601F43D14FF0807393FAA3F3FA
:100C9800B3FA83F303F1845303F584139B00002212
:100CA8001A60FFF7CFFA05464FF0007393FAA3F3E3
:100CB8000A4B19684FF0007393FAA3F3B3FA83F35E
:100CC80003F01F03012202FA03F3194226D0FFF7AB
:100CD800B9FA401B0228E7D9032089E00010024036
:100CE800DC1500082081901000700040424AD3694A
:100CF80023F08053D36185E740F246213F4800F056
:100D080025FB82E740F24F213C4800F01FFB8FE7AC
:100D18004FF41471394800F019FBB5E736494B68B0
:100D280023F47413626A206A024313434B604FF042
:100D3800807393FAA3F3B3FA83F303F1845303F5AF
:100D480084139B0001221A60FFF77CFA04464FF0D7
:100D5800007393FAA3F3284B19684FF0007393FAC2
:100D6800A3F3B3FA83F303F01F03012202FA03F398
:100D7800194206D1FFF766FA001B0228E7D90320BB
:100D880036E0002034E04FF0807393FAA3F3B3FA0F
:100D980083F303F1845303F584139B0000221A6044
:100DA800FFF750FA04464FF0007393FAA3F3124B7F
:100DB80019684FF0007393FAA3F3B3FA83F303F0BF
:100DC8001F03012202FA03F3194206D0FFF73AFA89
:100DD800001B0228E7D903200AE0002008E00120D0
:100DE8007047012004E0032002E0032000E0002017
:100DF80002B070BD0120FBE700100240DC150008BE
:100E080010B4174B5C6804F00C03082B26D104F4CB
:100E180070124FF4701393FAA3F3B3FA83F322FA20
:100E280003F31049C85C0E4BDB6A03F00F030F2273
:100E380092FAA2F2B2FA82F2D3400B441A7C14F46A
:100E4800803F05D1084B03FB00F05DF8044B704769
:100E5800064BB3FBF2F300FB03F0F6E70348F4E7B5
:100E6800001002402C15000800093D0000127A000D
:100E7800002800F01B8170B504460D46036813F086
:100E88000F0F14D0022D18D88A4B1B6803F00703E4
:100E9800AB4218D2874A136823F007032B43136029
:100EA800136803F00703AB420DD0012070BD40F278
:100EB800BA21814800F04AFAE4E740F2BB217E48B3
:100EC80000F044FAE0E7236813F0020F18D0A36893
:100ED8007BB1802B0DD0902B0BD0A02B09D0B02B41
:100EE80007D0C02B05D0D02B03D0E02B01D0F02B9E
:100EF8003ED1724A536823F0F003A1680B43536054
:100F0800236813F0010F69D06368022B36D8636831
:100F1800012B39D0022B4CD0022292FAA2F2674A56
:100F28001068022292FAA2F2B2FA82F202F01F02CA
:100F3800012101FA02F2104200F0BA805F494A68C2
:100F480022F0030213434B60FFF77CF906465B4B24
:100F58005B6803F00C036268B3EB820F3ED0FFF7C7
:100F680071F9801B41F288339842F0D903209DE73C
:100F780040F2D221504800F0E9F9BAE740F2D9210D
:100F88004D4800F0E3F9C2E74FF4003292FAA2F2BA
:100F98004A4A10684FF4003292FAA2F2B2FA82F288
:100FA80002F01F02012101FA02F20242C6D1012019
:100FB8007CE74FF0007292FAA2F2404A10684FF0B4
:100FC800007292FAA2F2B2FA82F202F01F02012132
:100FD80001FA02F21042B1D1012067E7354B1B68D4
:100FE80003F00703AB420CD9324A136823F0070316
:100FF8002B431360136803F00703AB4201D00120B1
:1010080054E7236813F0040F14D0E3685BB1B3F519
:10101800806F08D0B3F5A06F05D0B3F5C06F02D0CC
:10102800B3F5E06F36D1254A536823F4E063E168ED
:101038000B435360236813F0080F15D023695BB185
:10104800B3F5806F08D0B3F5A06F05D0B3F5C06FC6
:1010580002D0B3F5E06F23D1184A536823F46053E4
:10106800216943EAC1035360FFF7CAFE134B5B686B
:1010780003F0F003F02292FAA2F2B2FA82F2D3401D
:101088000F4AD35CD8400F4B18600020FFF798F840
:1010980000200BE740F21531074800F057F9C2E786
:1010A8004FF44771044800F051F9D5E70120704723
:1010B8000120FBE600200240DC1500080010024079
:1010C8004C1500080C000020014B1868704700BF41
:1010D8000C0000202DE9F0418CB04A4B5A6942F4CB
:1010E80000125A615A6902F400120192019A5A696F
:1010F80042F400225A615A6902F400220292029ACA
:101108005A6942F480025A615A6902F480020392D1
:10111800039A5A6942F400325A615A6902F4003259
:101128000492049A5A6942F480225A615A6902F474
:1011380080220592059A5A6942F480125A615B69C5
:1011480003F480130693069B2F4E00224FF4E041D0
:101158003046FFF78FFA4FF6FF7707970325089574
:101168000024099407A92948FFF726F90797089545
:10117800099407A92648FFF71FF940F25763079318
:101188000895099407A92348FFF716F94FF00108B5
:10119800CDF81C80204B0893099407A94FF0904084
:1011A800FFF70AF94FF6FE7307930895099407A904
:1011B8004FF09040FFF700F907970895099407A9A1
:1011C8001648FFF7F9F848F6FF730793089509944E
:1011D80007A93046FFF7F0F84FF4E0430793CDF83E
:1011E800208009940A9407A93046FFF7E5F82246BB
:1011F80021460620FFF74AF80620FFF78DF80CB0C5
:10120800BDE8F08100100240000C004800100048C2
:10121800000800480014004800003110000400488D
:10122800012800D0704708B5FFF70CF80E4B1B6873
:10123800C01A312800D808BDFFF704F80A4B186017
:101248005B686BB1084B00225A60084B1A68013280
:101258001A601B68082BEED1044B00221A60EAE7DB
:10126800014B01225A60E6E72C000020080000200C
:10127800FEE7000000B591B00223069301220A920E
:1012880010220B920D9300230E934FF460130F93CB
:1012980006A8FFF717FA08BB0F2301930221029152
:1012A800002303934FF480620492059301A8FFF78B
:1012B800DFFDB8B9FFF708FF0C4BA3FB003080092E
:1012C800FFF740F80420FFF753F8002211464FF0CB
:1012D800FF30FEF7DBFF11B05DF804FBA2210448E4
:1012E800FFF7C6FFB0210248FFF7C2FFD34D6210D7
:1012F8001416000870B5FEF787FFFFF7BBFFFFF76E
:10130800E9FE104B1A6822F003021C6824F001045D
:10131800A41A1D68AD1A2D1B0B4E02F0FC024FF4E7
:1013280080513046FFF7A6F904F0FE024FF4005151
:101338003046FFF79FF9EAB24FF480413046FFF795
:1013480099F9DEE708000020000C0048704700000B
:1013580000B583B0214B9A6942F001029A619A69FB
:1013680002F001020092009ADA6942F08052DA61D2
:10137800DB6903F080530193019B0320FEF768FFAC
:10138800002211466FF00B00FEF780FF0022114685
:101398006FF00A00FEF77AFF002211466FF009008D
:1013A800FEF774FF002211466FF00400FEF76EFF8F
:1013B800002211466FF00300FEF768FF0022114675
:1013C8006FF00100FEF762FF002211464FF0FF3078
:1013D800FEF75CFF03B05DF804FB00BF001002409D
:1013E8007047FEE7FEE7FEE7FEE770477047704785
:1013F80008B5FEF71BFFFEF7DAFF08BD08B50120A8
:10140800FFF752F908BD00001549D1F8883043F4B8
:101418007003C1F88830134B1A6842F001021A6051
:101428005868114A02405A601A6822F0847222F4FD
:1014380080321A601A6822F480221A605A6822F4EC
:10144800FE025A60DA6A22F00F02DA62186B074A63
:1014580002401A6300229A604FF000638B60704765
:1014680000ED00E0001002400CC07FF8CCFC00FF4B
:10147800DFF834D0002103E00C4B5B5843500431B3
:101488000B480C4B42189A42F6D30B4A02E0002351
:1014980042F8043B094B9A42F9D3FFF7B5FF00F035
:1014A80011F8FFF727FFFEE700A000202C16000820
:1014B800000000201000002010000020380000204C
:1014C800FEE7000070B50D4E0D4CA41BA4100025BE
:1014D800A54209D10B4E0C4C00F018F8A41BA4101F
:1014E8000025A54205D170BD56F82530984701352D
:1014F800EEE756F8253098470135F2E7241600083C
:10150800241600082416000828160008F8B500BF9D
:10151800F8BC08BC9E467047F8B500BFF8BC08BCCC
:041528009E46704724
:10152C0002030405060708090A0B0C0D0E0F101018
:10153C000102030405060708090A0B0C0D0E0F1017
:10154C000000000000000000010203040607080967
:10155C0000000000010203042E2E2F4472697665F0
:10156C0072732F53544D3332463378785F48414C65
:10157C005F4472697665722F5372632F73746D3387
:10158C0032663378785F68616C5F636F727465780C
:10159C002E6300002E2E2F447269766572732F53C2
:1015AC00544D3332463378785F48414C5F4472690E
:1015BC007665722F5372632F73746D333266337882
:1015CC00785F68616C5F6770696F2E630000000064
:1015DC002E2E2F447269766572732F53544D33320D
:1015EC00463378785F48414C5F4472697665722F58
:1015FC005372632F73746D3332663378785F68611E
:10160C006C5F7263632E63002E2E2F5372632F6DEB
:08161C0061696E2E63000000FD
:04162400AD0100080C
:04162800890100082C
:10162C0001000000100000000700000000127A000A
:040000050800147962
:00000001FF
