:020000040800F2
:1000000000A00020E5500008D94F0008DB4F000891
:10001000DD4F0008DF4F0008E14F0008000000003E
:10002000000000000000000000000000E34F000896
:10003000E54F000800000000E74F0008E94F000806
:100040003551000835510008355100083551000878
:100050003551000835510008355100083551000868
:100060003551000835510008355100083551000858
:100070003551000835510008355100083551000848
:100080003551000835510008355100083551000838
:100090003551000835510008355100083551000828
:1000A0003551000835510008355100083551000818
:1000B0003551000835510008355100083551000808
:1000C00035510008355100083551000835510008F8
:1000D00035510008355100083551000835510008E8
:1000E00035510008355100083551000835510008D8
:1000F00035510008355100083551000835510008C8
:100100000000000000000000000000003551000861
:1001100035510008355100083551000835510008A7
:100120003551000835510008355100083551000897
:1001300035510008355100080000000000000000A3
:100140003551000835510008355100080000000005
:10015000000000000000000000000000000000009F
:100160000000000000000000355100083551000873
:1001700035510008000000000000000000000000F1
:080180000000000035510008E9
:1001C00010B5054C237833B9044B13B10448AFF391
:1001D00000800123237010BD5C0A00200000000095
:1001E000BC8D000808B5034B1BB103490348AFF3AE
:1001F000008008BD00000000600A0020BC8D0008DF
:1002000081F0004102E000BF83F0004330B54FEAC7
:1002100041044FEA430594EA050F08BF90EA020F34
:100220001FBF54EA000C55EA020C7FEA645C7FEAC7
:10023000655C00F0E2804FEA5454D4EB5555B8BFEA
:100240006D420CDD2C4480EA020281EA030382EA5B
:10025000000083EA010180EA020281EA0303362DED
:1002600088BF30BD11F0004F4FEA01314FF4801CC0
:100270004CEA113102D0404261EB410113F0004FD2
:100280004FEA03334CEA133302D0524263EB430389
:1002900094EA050F00F0A780A4F10104D5F1200E27
:1002A0000DDB02FA0EFC22FA05F2801841F1000182
:1002B00003FA0EF2801843FA05F359410EE0A5F156
:1002C00020050EF1200E012A03FA0EFC28BF4CF087
:1002D000020C43FA05F3C01851EBE37101F000453D
:1002E00007D54FF0000EDCF1000C7EEB00006EEB4A
:1002F0000101B1F5801F1BD3B1F5001F0CD34908D4
:100300005FEA30004FEA3C0C04F101044FEA44522A
:1003100012F5800F80F09A80BCF1004F08BF5FEAB1
:10032000500C50F1000041EB045141EA050130BD91
:100330005FEA4C0C404141EB010111F4801FA4F134
:100340000104E9D191F0000F04BF01460020B1FA89
:1003500081F308BF2033A3F10B03B3F120020CDAC1
:100360000C3208DD02F1140CC2F10C0201FA0CF09F
:1003700021FA02F10CE002F11402D8BFC2F1200C04
:1003800001FA02F120FA0CFCDCBF41EA0C019040BA
:10039000E41AA2BF01EB0451294330BD6FEA040403
:1003A0001F3C1CDA0C340EDC04F11404C4F12002EE
:1003B00020FA04F001FA02F340EA030021FA04F300
:1003C00045EA030130BDC4F10C04C4F1200220FA57
:1003D00002F001FA04F340EA0300294630BD21FA95
:1003E00004F0294630BD94F0000F83F4801306BF5B
:1003F00081F480110134013D4EE77FEA645C18BF4F
:100400007FEA655C29D094EA050F08BF90EA020FE5
:1004100005D054EA000C04BF1946104630BD91EADD
:10042000030F1EBF0021002030BD5FEA545C05D1E0
:100430004000494128BF41F0004130BD14F580041F
:100440003CBF01F5801130BD01F0004545F0FE4193
:1004500041F470014FF0000030BD7FEA645C1ABFC8
:10046000194610467FEA655C1CBF0B46024650EAFF
:10047000013406BF52EA033591EA030F41F400212B
:1004800030BD00BF90F0000F04BF0021704730B5B1
:100490004FF4806404F132044FF000054FF0000186
:1004A00050E700BF90F0000F04BF0021704730B547
:1004B0004FF4806404F1320410F0004548BF40421C
:1004C0004FF000013EE700BF42004FEAE2014FEA71
:1004D00031014FEA02701FBF12F07F4393F07F4F4C
:1004E00081F06051704732F07F4208BF704793F04F
:1004F0007F4F04BF41F40021704730B54FF4607462
:1005000001F0004521F000411CE700BF50EA010264
:1005100008BF704730B54FF000050AE050EA01020D
:1005200008BF704730B511F0004502D5404261EB7D
:1005300041014FF4806404F132045FEA915C3FF4BE
:10054000D8AE4FF003025FEADC0C18BF03325FEA5B
:10055000DC0C18BF033202EBDC02C2F1200300FA0C
:1005600003FC20FA02F001FA03FE40EA0E0021FA31
:1005700002F11444BDE600BF70B54FF0FF0C4CF41F
:10058000E06C1CEA11541DBF1CEA135594EA0C0FD1
:1005900095EA0C0F00F0DEF82C4481EA030621EA0C
:1005A0004C5123EA4C5350EA013518BF52EA033547
:1005B00041F4801143F4801338D0A0FB02CE4FF0F9
:1005C0000005E1FB02E506F00042E0FB03E54FF029
:1005D0000006E1FB03569CF0000F18BF4EF0010E21
:1005E000A4F1FF04B6F5007F64F5407404D25FEA1D
:1005F0004E0E6D4146EB060642EAC62141EA5551D0
:100600004FEAC52040EA5E504FEACE2EB4F1FD0C11
:1006100088BFBCF5E06F1ED8BEF1004F08BF5FEA8F
:10062000500E50F1000041EB045170BD06F0004641
:1006300046EA010140EA020081EA0301B4EB5C04EE
:10064000C2BFD4EB0C0541EA045170BD41F48011E6
:100650004FF0000E013C00F3AB8014F1360FDEBF0B
:10066000002001F0004170BDC4F10004203C35DAE7
:100670000C341BDC04F11404C4F1200500FA05F36A
:1006800020FA04F001FA05F240EA020001F000420B
:1006900021F0004110EBD37021FA04F642EB060181
:1006A0005EEA430E08BF20EAD37070BDC4F10C04AB
:1006B000C4F1200500FA04F320FA05F001FA04F26F
:1006C00040EA020001F0004110EBD37041F100015B
:1006D0005EEA430E08BF20EAD37070BDC4F1200566
:1006E00000FA05F24EEA020E20FA04F301FA05F2CE
:1006F00043EA020321FA04F001F0004121FA04F276
:1007000020EA020000EBD3705EEA430E08BF20EA45
:10071000D37070BD94F0000F0FD101F0004640007F
:1007200041EB010111F4801F08BF013CF7D041EA01
:10073000060195F0000F18BF704703F00046520005
:1007400043EB030313F4801F08BF013DF7D043EAD6
:100750000603704794EA0C0F0CEA135518BF95EA8C
:100760000C0F0CD050EA410618BF52EA4306D1D113
:1007700081EA030101F000414FF0000070BD50EA32
:10078000410606BF1046194652EA430619D094EABC
:100790000C0F02D150EA013613D195EA0C0F05D1A6
:1007A00052EA03361CBF104619460AD181EA0301FA
:1007B00001F0004141F0FE4141F470014FF00000B2
:1007C00070BD41F0FE4141F4780170BD70B54FF04D
:1007D000FF0C4CF4E06C1CEA11541DBF1CEA1355CD
:1007E00094EA0C0F95EA0C0F00F0A7F8A4EB0504AF
:1007F00081EA030E52EA03354FEA013100F08880A6
:100800004FEA03334FF0805545EA131343EA12636E
:100810004FEA022245EA111545EA10654FEA002623
:100820000EF000419D4208BF964244F1FD0404F5DC
:10083000407402D25B084FEA3202B61A65EB030538
:100840005B084FEA32024FF480104FF4002CB6EBF5
:10085000020E75EB030E22BFB61A754640EA0C0075
:100860005B084FEA3202B6EB020E75EB030E22BFB5
:10087000B61A754640EA5C005B084FEA3202B6EBF6
:10088000020E75EB030E22BFB61A754640EA9C00B5
:100890005B084FEA3202B6EB020E75EB030E22BF85
:1008A000B61A754640EADC0055EA060E18D04FEA43
:1008B000051545EA16754FEA06164FEAC30343EAE3
:1008C00052734FEAC2025FEA1C1CC0D111F4801FB0
:1008D0000BD141EA00014FF000004FF0004CB6E7A9
:1008E00011F4801F04BF01430020B4F1FD0C88BF48
:1008F000BCF5E06F3FF6AFAEB5EB030C04BFB6EB53
:10090000020C5FEA500C50F1000041EB045170BD45
:100910000EF0004E4EEA113114EB5C04C2BFD4EB72
:100920000C0541EA045170BD41F480114FF0000EF6
:10093000013C90E645EA060E8DE60CEA135594EA72
:100940000C0F08BF95EA0C0F3FF43BAF94EA0C0F75
:100950000AD150EA01347FF434AF95EA0C0F7FF4EA
:1009600025AF104619462CE795EA0C0F06D152EA3E
:1009700003353FF4FDAE1046194622E750EA410622
:1009800018BF52EA43067FF4C5AE50EA41047FF433
:100990000DAF52EA43057FF4EBAE12E74FF0FF3C98
:1009A00006E000BF4FF0010C02E000BF4FF0010C69
:1009B0004DF804CD4FEA410C7FEA6C5C4FEA430CE2
:1009C00018BF7FEA6C5C1BD001B050EA410C0CBF31
:1009D00052EA430C91EA030F02BF90EA020F002093
:1009E000704710F1000F91EA030F58BF994208BFFA
:1009F00090422CBFD8176FEAE37040F001007047B7
:100A00004FEA410C7FEA6C5C02D150EA013C07D10D
:100A10004FEA430C7FEA6C5CD6D152EA033CD3D058
:100A20005DF8040B704700BF8446104662468C4652
:100A30001946634600E000BF01B5FFF7B7FF002885
:100A400048BF10F1000F01BD4DF808EDFFF7F4FFAE
:100A50000CBF012000205DF808FB00BF4DF808ED39
:100A6000FFF7EAFF34BF012000205DF808FB00BF5C
:100A70004DF808EDFFF7E0FF94BF012000205DF87E
:100A800008FB00BF4DF808EDFFF7CEFF94BF012033
:100A900000205DF808FB00BF4DF808EDFFF7C4FF2C
:100AA00034BF012000205DF808FB00BF4FEA410C75
:100AB0007FEA6C5C02D150EA013C0AD14FEA430C58
:100AC0007FEA6C5C02D152EA033C02D14FF0000095
:100AD00070474FF0010070474FEA4102B2F1E04326
:100AE00024BFB3F5001CDCF1FE5C0DD901F0004C15
:100AF0004FEAC0024CEA5070B2F1004F40EB830065
:100B000008BF20F00100704711F0804F21D113F190
:100B10003872BCBF01F00040704741F480114FEAC9
:100B20005252C2F11802C2F1200C10FA0CF320FA52
:100B300002F018BF40F001004FEAC1234FEAD3236F
:100B400003FA0CFC40EA0C0023FA02F34FEA4303D9
:100B5000CCE77FEA625307D150EA01331EBF4FF062
:100B6000FE4040F44000704701F0004040F0FE407D
:100B700040F40000704700BF844641EA000313F0D0
:100B800003036DD1403A41D351F8043B40F8043B94
:100B900051F8043B40F8043B51F8043B40F8043B57
:100BA00051F8043B40F8043B51F8043B40F8043B47
:100BB00051F8043B40F8043B51F8043B40F8043B37
:100BC00051F8043B40F8043B51F8043B40F8043B27
:100BD00051F8043B40F8043B51F8043B40F8043B17
:100BE00051F8043B40F8043B51F8043B40F8043B07
:100BF00051F8043B40F8043B51F8043B40F8043BF7
:100C000051F8043B40F8043B403ABDD2303211D396
:100C100051F8043B40F8043B51F8043B40F8043BD6
:100C200051F8043B40F8043B51F8043B40F8043BC6
:100C3000103AEDD20C3205D351F8043B40F8043B96
:100C4000043AF9D2043208D0D2071CBF11F8013B94
:100C500000F8013B01D30B8803806046704700BF5A
:100C6000082A13D38B078DD010F003038AD0C3F169
:100C70000403D21ADB071CBF11F8013B00F8013B4B
:100C800080D331F8023B20F8023B7BE7043AD9D30A
:100C9000013A11F8013B00F8013BF9D20B780370DF
:100CA0004B7843708B78837060467047000000007B
:100CB0000000000000000000000000000000000034
:100CC00090F800F06DE9024520F007016FF0000C8C
:100CD00010F0070491F820F040F049804FF0000434
:100CE0006FF00700D1E9002391F840F000F108000F
:100CF00082FA4CF2A4FA8CF283FA4CF3A2FA8CF347
:100D00004BBBD1E9022382FA4CF200F10800A4FAAD
:100D10008CF283FA4CF3A2FA8CF3E3B9D1E9042301
:100D200082FA4CF200F10800A4FA8CF283FA4CF338
:100D3000A2FA8CF37BB9D1E9062301F1200182FAF2
:100D40004CF200F10800A4FA8CF283FA4CF3A2FAF8
:100D50008CF3002BC6D0002A04BF04301A4612BA06
:100D6000B2FA82F2FDE8024500EBD2007047D1E909
:100D7000002304F00305C4F100004FEAC50514F098
:100D8000040F91F840F00CFA05F562EA05021CBF69
:100D900063EA050362464FF00004A9E70000000083
:100DA00001F0FF01102A2BDB10F0070F08D010F81C
:100DB000013B013A8B422DD010F0070F42B3F6D120
:100DC000F0B441EA012141EA014122F007047FF039
:100DD00000070023F0E80256083C85EA010586EA90
:100DE000010685FA47F5A3FA87F586FA47F6A5FACC
:100DF00087F68EB9EED1F0BC01F0FF0102F00702D8
:100E000032B110F8013B013A83EA010313B1F8D182
:100E10000020704701387047002D06BF3546033863
:100E2000073815F0010F07D1013015F4807F02BF9C
:100E3000013015F4C03F0130F0BC0138704700BFED
:100E40004FEA410212F5001215D211D56FF47873F2
:100E5000B3EB625212D94FEAC12343F0004343EA95
:100E6000505311F0004F23FA02F018BF4042704770
:100E70004FF00000704750EA013005D111F00040FA
:100E800008BF6FF0004070474FF00000704700BF90
:100E900053B94AB9002908BF00281CBF4FF0FF31E1
:100EA0004FF0FF3000F072B9ADF1080C6DE904CEDF
:100EB00000F006F8DDF804E0DDE9022304B0704735
:100EC0002DE9F047089E04468846002B4BD18A4204
:100ED000154667D9B2FA82F24AB1C2F1200701FA87
:100EE00002F320FA07F7954047EA030894404FEAD7
:100EF000154E230CB8FBFEF71FFA85FC0EFB178876
:100F000043EA084307FB0CF1994209D9EB1807F1B2
:100F1000FF3080F01B81994240F21881023F2B4440
:100F20005B1AA4B2B3FBFEF00EFB103344EA034499
:100F300000FB0CFCA44509D92C1900F1FF3380F00B
:100F40000781A44540F2048102382C4440EA07405E
:100F5000A4EB0C0400271EB1D4400023C6E90043D3
:100F60003946BDE8F0878B4209D9002E00F0EB80AE
:100F70000027C6E9000138463946BDE8F087B3FAD4
:100F800083F7002F47D18B4202D3824200F2FA80CE
:100F9000841A61EB030301209846002EE0D0C6E9D5
:100FA0000048DDE702B9FFDEB2FA82F2002A40F023
:100FB0008F80491B4FEA154E1FFA85F80127B1FBB8
:100FC000FEFC230C0EFB1C1143EA014308FB0CF151
:100FD000994207D9EB180CF1FF3002D2994200F286
:100FE000CD808446591AA3B2B1FBFEF00EFB10145B
:100FF00043EA044408FB00F8A04507D92C1900F186
:10100000FF3302D2A04500F2B6801846A4EB0804D4
:1010100040EA0C409FE7C7F1200CBB4022FA0CFECF
:101020004EEA030E01FA07F420FA0CF521FA0CF34C
:101030004FEA1E482543B3FBF8F92C0C08FB193383
:101040001FFA8EFA44EA034309FB0AF49C4202FAAF
:1010500007F200FA07F10BD91EEB030309F1FF3089
:1010600080F087809C4240F28480A9F10209734499
:101070001B1BADB2B3FBF8F008FB103345EA034489
:1010800000FB0AFAA24508D91EEB040400F1FF3365
:101090006BD2A24569D90238744440EA0940A0FBEA
:1010A0000289A4EB0A044C45C2464B4654D351D0A6
:1010B000002E69D0B1EB0A0564EB030404FA0CFCC2
:1010C000FD40FC404CEA0505C6E90054002747E70F
:1010D000C2F1200320FA03F7954001FA02F021FA49
:1010E00003F34FEA154E3843010CB3FBFEF71FFA2A
:1010F00085F80EFB173341EA034107FB08F38B42E7
:1011000004FA02F407D9691807F1FF3C2FD28B4289
:101110002DD9023F2944CB1A81B2B3FBFEF00EFB5E
:10112000103341EA034100FB08F38B4207D96918E9
:1011300000F1FF3C17D28B4215D902382944C91A55
:1011400040EA07473BE73746304609E70746E7E608
:101150001846FBE64145ABD2B8EB020A69EB0E023A
:1011600001381346A4E76046E9E7184695E7674665
:10117000D1E781467CE702382C4447E7ACF1020C0A
:101180002B442FE7384608E73746E9E6704700BFAB
:1011900010B504460E4B18784FF47A73B3FBF0F396
:1011A0000C4A1068B0FBF3F000F0C8F868B90F2CD7
:1011B00001D901200AE0002221464FF0FF3000F063
:1011C00061F8034B5C60002000E0012010BD00BF0F
:1011D00000000020A000002008B5074A136843F073
:1011E00010031360032000F02FF80020FFF7D0FF5A
:1011F00003F0AAFE002008BD00200240034A116847
:10120000034B1B780B441360704700BF680B002032
:1012100000000020014B1868704700BF680B0020D9
:1012200038B50446FFF7F6FF0546B4F1FF3F02D09C
:10123000044B1B781C44FFF7EDFF401BA042FAD380
:1012400038BD00BF0000002010B50446C31E042BAB
:101250000FD80A4AD36823F4E0631B041B0C240252
:1012600004F4E064234343F0BF6343F40033D360EA
:1012700010BDBC21024803F0BBFBEAE700ED00E033
:10128000108E000870B505460C4616460F2A25D864
:101290000F2C28D81B4BDB68C3F30223C3F10702D2
:1012A000042A28BF0422191D062921D9033B4FF027
:1012B000FF3101FA02F224EA02049C4001FA03F32E
:1012C00026EA03063443002D14DB2401E4B205F1C1
:1012D000604505F5614585F8004370BDD4210A4895
:1012E00003F086FBD4E7D521074803F081FBD1E763
:1012F0000023DCE705F00F052401E4B2034B5C5545
:10130000EBE700BF00ED00E0108E000814ED00E0F8
:1013100010B5041E08DB04F01F026409012393408A
:10132000044A42F8243010BDE821034803F060FB72
:10133000F1E700BF00E100E0108E00080138B0F1D5
:10134000807F0AD2064B5860064AF02182F82310AB
:101350000020986007221A6070470120704700BF84
:1013600010E000E000ED00E010B50446042800D0D5
:1013700038B9042C0BD0094A136823F00403136016
:1013800010BD40F2E111064803F032FBF1E7034AD9
:10139000136843F004031360F2E700BF10E000E0BD
:1013A000108E0008704708B5FFF7FCFF08BD00006D
:1013B0002DE9F04782B006460C46B0F1904F16D0AA
:1013C000A44B984213D003F5806398420FD003F5E5
:1013D000806398420BD003F58063984207D003F5F1
:1013E0008063984203D0C3219B4803F001FB23682C
:1013F0009AB212B11B0C1B041BB1C421964803F016
:10140000F7FA6368012B1ED9112B1CD0022B1AD0BE
:10141000122B18D0914A934215D002F580129342B4
:1014200011D002F5801293420DD0A2F5F81293422A
:1014300009D002F58012934205D002F58012934242
:1014400001D0032B04D1A368022B06D800254AE063
:10145000C521814803F0CCFAF5E7C6217E4803F0A8
:10146000C7FAF3E7D6217C4803F0C2FA6DE0EA211F
:10147000794803F0BDFA98E0042300E000238B4094
:1014800003430232764941F82230764B1A68FB4317
:1014900003EA0201606810F4803F01D047EA0201CC
:1014A000704A1160526803EA0201606810F4003F5C
:1014B00001D047EA02016B4A5160926803EA0201D7
:1014C000606810F4801F01D047EA0201654A91600C
:1014D000D2681340616811F4001F01D047EA02038B
:1014E000604AD3600135276837FA05F300F0AF8012
:1014F0004FF0010808FA05F818EA0707F2D0636808
:10150000022B01D0122B30D1B6F1904F16D0514B97
:101510009E4213D003F580639E420FD003F5806393
:101520009E420BD003F580639E4207D003F5806393
:101530009E4203D0D521484803F05AFA23690C2B68
:1015400003D90E2B01D00F2B8CD1EA08083256F8A4
:10155000220005F0070399000F238B4020EA0300C7
:1015600023698B40034346F8223032684FEA450A2C
:101570004FF0030909FA0AF96FEA090909EA0202B8
:10158000636803F0030303FA0AF3134333606368E9
:101590005A1E012A03D9112B01D0122B17D1E3684F
:1015A000012B02D9032B7FF462AFB26809EA020271
:1015B000E36803FA0AF31343B360736823EA080885
:1015C0006368C3F30013AB4043EA08037360F36836
:1015D00009EA0309A36803FA0AF343EA0903F3607B
:1015E000636813F0805F3FF47DAF1F4B9A6942F050
:1015F00001029A619B6903F001030193019BAA0810
:10160000911C174B53F8210005F0030399000F2399
:101610008B4020EA0300B6F1904F3FF42FAF0D4B03
:101620009E420ED003F580639E420CD003F580638A
:101630009E420AD003F580639E423FF41DAF05230E
:101640001DE701231BE7022319E7032317E702B075
:10165000BDE8F087000400484C8E0008000011101F
:10166000000001400004014000100240F8B50446AB
:101670000D46B0F1904F17D0494B984214D003F566
:101680008063984210D003F5806398420CD003F534
:101690008063984208D003F58063984204D04FF4E9
:1016A000A071404803F0A4F9ABB213B12B0C1B049A
:1016B00023B140F241113B4803F09AF9002307E0BF
:1016C000042000E0002000FA02F28A424BD00133ED
:1016D00035FA03F263D001229A4012EA050CF6D0E3
:1016E00020685E000321B140C94308402060DF0844
:1016F000083754F827E003F0070080000F2606FAA9
:1017000000F02EEA000044F82700A0680840A0601E
:10171000606820EA02026260E2681140E1609F08AE
:10172000B91C214A52F8211003F00302920096409E
:101730003140B4F1904FC5D0194884420DD000F526
:10174000806084420BD000F58060844209D000F5AF
:1017500080608442B4D00520B5E70120B3E70220C1
:10176000B1E70320AFE71048BA1C50F8221021EA75
:10177000060640F822600D490A686FEA0C0C02EA7E
:101780000C020A604A680CEA02024A608A680CEAA3
:1017900002028A60CA680CEA0202CA6097E7F8BDD2
:1017A000000400484C8E0008000001400004014085
:1017B00070B5054614460E4621B1012C08D86CB907
:1017C000AE6270BD4FF4D871054803F011F9F4E72B
:1017D00040F2B111024803F00BF9F0E7AE61F0E717
:1017E0004C8E000803689A6912F0020F01D00022A3
:1017F0009A6203689A6912F0010F03D19A6942F064
:1018000001029A61704700002DE9F04180460C46C4
:1018100017461E46069D0368224A934208D002F5E9
:101820008062934204D041F268211F4803F0E0F83F
:10183000B6F1807F03D0B6F1007F00D02EBB1B4BEA
:101840009D4208D0A3F5E0539D4204D0A3F58063E8
:101850009D4200D0FDB9D8F800104B686A0D02F423
:10186000806242F07F7242F4583242F47F7242F05A
:10187000030223EA0203C4F3090444EA074434439D
:101880002C431C434C60BDE8F08141F269210648BD
:1018900003F0AEF8D3E741F26A21034803F0A8F859
:1018A000D9E700BF00540040888E00080040008047
:1018B00070B504460D46164603689B6913F0100F79
:1018C00017D023689A6912F0200F14D1B5F1FF3FA9
:1018D000F7D025B1FFF79EFC801BA842F1D9202349
:1018E00084F84130002384F8423084F840300320EB
:1018F0001EE000201CE01022DA6123682025DD6153
:101900002046FFF76FFF2268536823F0FF7323F42C
:101910008B3323F4FF7323F00103536004236364C8
:1019200084F84150002384F8423084F8403001208C
:1019300070BD70B504460D46164623689B6913F0CA
:10194000020F1CD1324629462046FFF7B1FFC0B92D
:10195000B5F1FF3FF1D025B1FFF75CFC801BA84239
:10196000EBD9636C43F020036364202384F8413097
:10197000002384F8423084F84030032000E0002047
:1019800070BD0120FCE7F8B505460F4616461C461B
:101990002B689B6937EA03030CBF01230023B34282
:1019A00013D1B4F1FF3FF3D02CB1FFF733FC069B0A
:1019B000C01AA042ECD9202385F84130002385F8D5
:1019C000423085F84030032000E00020F8BD0000E0
:1019D00070B582B0044616461D461E4B00934FF06C
:1019E0008073EAB2FFF710FF079A06992046FFF7C7
:1019F000A0FF30B1636C042B27D10123184602B03D
:101A000070BD012D0FD12368F6B29E62079B009333
:101A1000069B002280212046FFF7B5FF03460028E1
:101A2000ECD00323EAE72368320A9A62079A069900
:101A30002046FFF77EFF20B1636C042B07D1012302
:101A4000DCE72368F6B29E62E0E70323D6E70323D0
:101A5000D4E700BF0020008070B582B0044616466F
:101A60001D461D4B00930023EAB2FFF7CDFE079AF7
:101A700006992046FFF75DFF30B1636C042B27D138
:101A80000123184602B070BD012D0FD12368F6B2B4
:101A90009E62079B0093069B002240212046FFF791
:101AA00072FF03460028ECD00323EAE72368320ADA
:101AB0009A62079A06992046FFF73BFF20B1636CB4
:101AC000042B07D10123DCE72368F6B29E62E0E72E
:101AD0000323D6E70323D4E70020008070B5054632
:101AE0000C4616462B689B6913F0200F19D132461D
:101AF00021462846FFF7DCFEA8B924B1FFF78AFB90
:101B0000801BA042EED96B6C43F020036B64202352
:101B100085F84130002385F8423085F840300320B5
:101B200070BD0020FCE70120FAE70000002800F06B
:101B3000AF8010B504460368564A934208D002F5B8
:101B40008062934204D040F2A311534802F050FF48
:101B5000A368B3F5806F60D2E368013B012B62D8C4
:101B6000236913B1B3F5004F63D16369FF2B66D8C6
:101B7000A369072B69D8E36913B1B3F5002F6AD1C4
:101B8000236A13B1B3F5003F6BD194F84130002BB9
:101B90006DD0242384F841302268136823F00103B8
:101BA00013606368226823F070631361226893688E
:101BB00023F400439360E368012B5ED0A36822689E
:101BC00043F404439360E368022B5CD022685368BB
:101BD00043F0007343F4004353602268D36823F456
:101BE0000043D360236962691343A169226843EA11
:101BF0000123D360E369216A22680B4313602268E2
:101C0000136843F00103136000206064202384F80C
:101C10004130206384F8420010BD4FF4D2711E4859
:101C200002F0E6FE98E740F2A5111B4802F0E0FE44
:101C300096E74FF4D371184802F0DAFE95E740F2C8
:101C4000A711154802F0D4FE92E74FF4D471124860
:101C500002F0CEFE8FE740F2A9110F4802F0C8FE55
:101C60008EE74FF4D5710C4802F0C2FE8DE784F880
:101C70004030204602F070F98BE7A368226843F4F5
:101C8000004393609FE723684FF400625A609DE72A
:101C90000120704700540040888E000818B310B52A
:101CA00004460368114A934208D002F580629342C9
:101CB00004D04FF4FD710E4802F09AFE242384F8FC
:101CC00041302268136823F001031360204602F0BC
:101CD0008BF90020606484F84100206384F842009E
:101CE00084F8400010BD0120704700BF0054004040
:101CF000888E00082DE9F04383B090F84150EDB292
:101D0000202D40F0AD8090F84040012C00F0AD80D7
:101D1000984617460E4604464FF0010980F8409059
:101D2000FFF778FA0546009019234A464FF4004120
:101D30002046FFF728FE002840F09980212384F8F0
:101D40004130102384F84230002363646762A4F8B2
:101D50002A806363638D9BB2FF2B0AD9FF22228501
:101D6000474B00934FF0807331462046FFF74CFD00
:101D70001DE0628D92B22285414B00934FF00073BB
:101D8000D2B231462046FFF73FFD10E0636C042BD2
:101D90006FD1012365E0628D92B22285002300930A
:101DA0004FF00073D2B231462046FFF72DFD638D10
:101DB0009BB2002B32D02A460A992046FFF7B9FD84
:101DC0000028E3D1636A5A1C626222681B7893621E
:101DD000638D013B9BB26385238D013B9BB22385C1
:101DE000002BE4D1638D9BB2002BE0D000950A9BC1
:101DF000002280212046FFF7C6FD00283BD1638DDD
:101E00009BB2FF2BC7D9FF222285002300934FF0FE
:101E1000807331462046FFF7F7FCC8E72A460A9947
:101E20002046FFF75BFE034620B1636C042B24D1F0
:101E3000012316E022682021D1612068426822F047
:101E4000FF7222F48B3222F4FF7222F00102426010
:101E500084F84110002284F8422084F8402000E0F9
:101E60000223184603B0BDE8F0830223F9E70323F9
:101E7000F7E70323F5E70323F3E70323F1E700BFC5
:101E8000002000802DE9F04782B004460F469046BE
:101E90001D46BDF82C60013B9BB2012B42D894F843
:101EA0004130DBB2202B40F0CF800A9B002B00F0AA
:101EB000D080002E00F0CF8094F84030012B00F04D
:101EC000CC804FF0010A84F840A0FFF7A3F98146C7
:101ED0000090192352464FF400412046FFF753FD6E
:101EE000002840F0BC80212384F84130402384F84E
:101EF0004230002363640A9A626266856363CDF8A8
:101F000004900C9B00932B46424639462046FFF72F
:101F10005FFD90B1636C042B0AD1002384F840303C
:101F2000534692E040F2CE61514802F061FDB6E7BF
:101F3000002384F84030032387E0638D9BB2FF2B9E
:101F40000AD9FF222285002300934FF0807339467F
:101F50002046FFF759FC21E0628D92B222850023D2
:101F600000934FF00073D2B239462046FFF74CFC85
:101F700014E0636C042B74D1012366E0628D92B28D
:101F80002285002300934FF00073D2B239462046D9
:101F9000FFF73AFC638D9BB2002B33D04A460C9975
:101FA0002046FFF7C6FC0028E3D1636A5A1C626230
:101FB00022681B789362638D013B9BB26385238DFE
:101FC000013B9BB22385002BE4D1638D9BB2002B98
:101FD000E0D0CDF800900C9B002280212046FFF736
:101FE000D2FC00283FD1638D9BB2FF2BC6D9FF22C4
:101FF0002285002300934FF0807339462046FFF777
:1020000003FCC7E74A460C992046FFF767FD0346E5
:1020100020B1636C042B28D1012316E02268202113
:10202000D1612068426822F0FF7222F48B3222F4E0
:10203000FF7222F00102426084F84110002284F80D
:10204000422084F8402000E00223184602B0BDE898
:10205000F0870123F9E70123F7E70223F5E70323DC
:10206000F3E70323F1E70323EFE70323EDE700BFE3
:10207000888E00082DE9F04782B0044689469046D4
:102080001D46BDF82C60013B9BB2012B41D894F852
:102090004130DBB2202B40F0CA800A9B002B00F0BD
:1020A000CB80002E00F0CA8094F84030012B00F065
:1020B000C7804FF0010A84F840A0FFF7ABF807464D
:1020C0000090192352464FF400412046FFF75BFC75
:1020D000002840F0B780222384F84130402384F860
:1020E0004230002363640A9A6262668563630197E3
:1020F0000C9B00932B46424649462046FFF7ACFC1A
:1021000090B1636C042B0AD1002384F8403053460D
:102110008EE040F267714F4802F06AFCB7E7002397
:1021200084F84030032383E0638D9BB2FF2B0AD9F0
:10213000FF222285484B00934FF08073494620468A
:10214000FFF762FB1CE0628D92B22285424B009346
:102150004FF00073D2B249462046FFF755FB0FE01F
:10216000628D92B22285002300934FF00073D2B2A9
:1021700049462046FFF748FB638D9BB2002B34D0C5
:1021800000970C9B002204212046FFF7FCFB00284F
:102190005AD123685A6A636A591C61621A70238D86
:1021A000013B9BB22385628D013A92B26285002B7E
:1021B000E2D1638D9BB2002BDED000970C9B0022F6
:1021C00080212046FFF7DFFB00283FD1638D9BB2C3
:1021D000FF2BC5D9FF222285002300934FF0807387
:1021E00049462046FFF710FBC6E73A460C992046C1
:1021F000FFF774FC034620B1636C042B28D1012344
:1022000016E022682021D1612068426822F0FF7226
:1022100022F48B3222F4FF7222F00102426084F831
:102220004110002284F8422084F8402000E002237C
:10223000184602B0BDE8F0870123F9E70123F7E76C
:102240000223F5E70323F3E70323F1E70323EFE793
:102250000323EDE7888E0008002400802DE9F04775
:1022600084B00024039490F84140E4B2202C40F064
:1022700094800468A46914F4004F40F0938090F8AF
:102280004040012C00F090801F4691468A46064649
:10229000012380F84030242380F841300023436438
:1022A00022E0CAF3090343F0007343F4005322E031
:1022B000AB6913F0100F43D0CDF800803B460022ED
:1022C00020213046FFF75FFB002871D133681022D0
:1022D000DA6133682022DA61039B5A1C03924B4572
:1022E00041D0039B4B4550D2F368012BD9D0CAF3A0
:1022F000090343F4205332685360FEF78BFF804696
:102300003568AB6913F0200FD2D1AB6913F0100F11
:10231000CED196F84140E4B2A02CC9D0B7F1FF3F2E
:10232000EED02FB1FEF776FFA0EB0800B842E7D958
:10233000202386F84130002386F8403003232DE027
:10234000CDF800803B46002220213046FFF71BFBE2
:10235000034658BB31682022CA6186F8412000221A
:1023600086F840201AE03268536843F48043536093
:10237000CDF800803B46002220213046FFF703FBCA
:10238000C0B933682022DA61ABE7202386F84130F8
:10239000002386F84030032300E00223184604B0EF
:1023A000BDE8F0870223F9E70223F7E70323F5E707
:1023B0000323F3E70323F1E790F84100704700009F
:1023C00038B504460D460368204A934207D002F50B
:1023D0008062934203D074211D4802F009FB15B1BD
:1023E000B5F5805F28D194F84130DBB2202B28D19D
:1023F00094F84030012B26D0012384F84030242368
:1024000084F841302268136823F0010313602268C6
:10241000136823F480531360226813681D4315600A
:102420002268136843F001031360202384F84130CD
:10243000002084F8400005E07521054802F0D8FA34
:10244000D1E7022038BD0220FCE700BF0054004065
:10245000C08E000838B504460D4603681E4A9342F4
:1024600007D002F58062934203D0A2211B4802F0FC
:10247000BFFA0F2D26D894F84130DBB2202B26D19D
:1024800094F84030012B24D0012384F840302423D9
:1024900084F841302268136823F001031360236835
:1024A000196821F4706141EA0521196022681368F6
:1024B00043F001031360202384F84130002084F8A6
:1024C000400005E0A321054802F092FAD3E702207C
:1024D00038BD0220FCE700BF00540040C08E000859
:1024E000002858D010B5044602682C4B9A4203D0FD
:1024F00097212B4802F07CFA94F8713323B103231F
:1025000084F87133002215E084F87033204602F01D
:10251000C1FDF4E7D100891A8B002344012183F81F
:10252000291083F82820002183F82B105963996320
:10253000D963013260689042ECD8002211E0D100EA
:10254000891A8B002344002183F8CD1183F8CC2114
:1025500083F8CF11C3F8D811C3F8DC11C3F8E01128
:1025600001329042EBD822680123A2F84030226861
:102570000020A2F840002268A2F844002268A2F8D5
:10258000500022684FF43F41A2F8401084F8240024
:1025900084F8713310BD0120704700BF005C00401B
:1025A000FC8E0008002800F08A8370B582B00446D3
:1025B000036813B113F00F0F2BD0236813F0010F32
:1025C0004FD063682BB1B3F5803F02D0B3F5A02F95
:1025D00025D1B44B5B6803F00C03042B2AD0B14B1C
:1025E0005B6803F00C03082B1FD06368B3F5803FD2
:1025F0007CD0002B40F0A68003F1804303F5043328
:102600001A6822F480321A601A6822F480221A6052
:1026100071E040F25711A44802F0EAF9CDE740F228
:102620005D11A14802F0E4F9D3E79E4B5B6813F417
:10263000803FDAD04FF4003393FAA3F3994B196833
:102640004FF4003393FAA3F3B3FA83F303F01F03B9
:10265000012202FA03F30B4203D06368002B00F05F
:102660003083236813F0020F00F0DA802369012B16
:1026700000F2A08063691F2B00F2A280894B5B6887
:1026800013F00C0F00F0A880864B5B6803F00C037E
:10269000082B00F09B802369002B00F009810122A8
:1026A00092FAA2F3B3FA83F303F1845303F584138C
:1026B0009B001A60FEF7AEFD0546022393FAA3F3D2
:1026C000784B1968022393FAA3F3B3FA83F303F068
:1026D0001F03012202FA03F30B4240F0D380FEF7FE
:1026E00099FD401B0228E8D90320F1E26D4A1368E6
:1026F00043F4803313606B4AD36A23F00F03A1685D
:102700000B43D3626368002B36D0FEF783FD05468A
:102710004FF4003393FAA3F3624B19684FF400337C
:1027200093FAA3F3B3FA83F303F01F03012202FA2F
:1027300003F30B4295D1FEF76DFD401B6428E7D9EA
:102740000320C5E2B3F5A02F09D0564B1A6822F436
:1027500080321A601A6822F480221A60CBE703F1F3
:102760008043A3F53C331A6842F480221A601A6849
:1027700042F480321A60BEE7FEF74CFD05464FF486
:10278000003393FAA3F3474B19684FF4003393FADD
:10279000A3F3B3FA83F303F01F03012202FA03F356
:1027A0000B423FF45EAFFEF735FD401B6428E6D9CF
:1027B00003208DE240F295113B4802F019F959E7E8
:1027C0004FF4CB71384802F013F957E7354B5B688B
:1027D00013F4803F7FF45FAF022393FAA3F3314BEE
:1027E0001968022393FAA3F3B3FA83F303F01F03E8
:1027F000012202FA03F30B4204D02369934201D071
:10280000012065E22748036823F0F8036169F82294
:1028100092FAA2F2B2FA82F201FA02F213430360D0
:10282000236813F0080F00F09880A369012B66D885
:10283000A369002B69D0012191FAA1F2B2FA82F2C8
:102840001A4B13449B001960FEF7E4FC0546022373
:1028500093FAA3F293FAA3F293FAA3F2114A516AFC
:1028600093FAA3F3B3FA83F303F01F03012202FAEE
:1028700003F30B4271D1FEF7CDFC401B0228E6D9D1
:10288000032025E20748036823F0F8036169F82272
:1028900092FAA2F2B2FA82F201FA02F21343036050
:1028A000BEE700BF00100240348F00082081901066
:1028B000012393FAA3F3B3FA83F303F1845303F5EB
:1028C00084139B0000221A60FEF7A4FC0546022335
:1028D00093FAA3F3B94B1968022393FAA3F3B3FA5B
:1028E00083F303F01F03012202FA03F30B4297D094
:1028F000FEF790FC401B0228E9D90320E8E14FF4E1
:10290000EB71AF4802F074F892E7012292FAA2F25A
:10291000B2FA82F2AB4B13449B0000221A60FEF71E
:1029200079FC0546022393FAA3F293FAA3F293FAF1
:10293000A3F2A24A516A93FAA3F3B3FA83F303F022
:102940001F03012202FA03F30B4206D0FEF762FCDA
:10295000401B0228E6D90320BAE1236813F0040FD4
:1029600000F0C080E368012B01D9052B26D1934BE1
:10297000DB6913F0805F27D1904BDA6942F0805217
:10298000DA61DB6903F080530193019B01258E4BD3
:102990001B6813F4807F19D0E368012B2AD0002B29
:1029A00034D103F1804303F504331A6A22F00102A3
:1029B0001A621A6A22F004021A6220E040F202212E
:1029C0007F4802F015F8D2E70025E0E77E4A136859
:1029D00043F480731360FEF71DFC06467A4B1B68B8
:1029E00013F4807FD8D1FEF715FC801B6428F5D93D
:1029F00003206DE1714A136A43F001031362E36837
:102A0000002B41D0FEF706FC06462BE0052B09D033
:102A10006A4B1A6A22F001021A621A6A22F0040250
:102A20001A62ECE7654B1A6A42F004021A621A6AEB
:102A300042F001021A62E2E7604B196A022393FA3C
:102A4000A3F3B3FA83F303F01F03012202FA03F3A3
:102A5000194245D1FEF7DEFB801B41F288339842D4
:102A600000F23181022393FAA3F293FAA3F3B3FAAB
:102A700083F35B0943F00203022BDDD0022393FAB8
:102A8000A3F34E4B596AD9E7FEF7C4FB064615E09F
:102A90004A4B196A022393FAA3F3B3FA83F303F0C0
:102AA0001F03012202FA03F3194219D0FEF7B2FB09
:102AB000801B41F28833984200F20781022393FA87
:102AC000A3F293FAA3F3B3FA83F35B0943F002038F
:102AD000022BDDD0022393FAA3F3384B596AD9E7CE
:102AE000002D73D1E369022B76D8E369002B00F047
:102AF000EE80324A526802F00C02082A00F0EA80A6
:102B0000022B40F0B080236A13B1B3F5803F69D146
:102B1000636A4BB3B3F5802F26D0B3F5002F23D0D3
:102B2000B3F5402F20D0B3F5801F1DD0B3F5A01F03
:102B30001AD0B3F5C01F17D0B3F5E01F14D0B3F50A
:102B4000001F11D0B3F5101F0ED0B3F5201F0BD00E
:102B5000B3F5301F08D0B3F5401F05D0B3F5501FB3
:102B600002D0B3F5601F43D14FF0807393FAA3F303
:102B7000B3FA83F303F1845303F584139B0000221B
:102B80001A60FEF747FB05464FF0007393FAA3F374
:102B90000A4B19684FF0007393FAA3F3B3FA83F367
:102BA00003F01F03012202FA03F3194226D0FEF7B5
:102BB00031FB401B0228E7D9032089E000100240C6
:102BC000348F00082081901000700040424AD36981
:102BD00023F08053D36185E740F246213F4801F05E
:102BE00007FF82E740F24F213C4801F001FF8FE7E9
:102BF0004FF41471394801F0FBFEB5E736494B68D4
:102C000023F47413626A206A024313434B604FF04B
:102C1000807393FAA3F3B3FA83F303F1845303F5B8
:102C200084139B0001221A60FEF7F4FA04464FF069
:102C3000007393FAA3F3284B19684FF0007393FACB
:102C4000A3F3B3FA83F303F01F03012202FA03F3A1
:102C5000194206D1FEF7DEFA001B0228E7D903204D
:102C600036E0002034E04FF0807393FAA3F3B3FA18
:102C700083F303F1845303F584139B0000221A604D
:102C8000FEF7C8FA04464FF0007393FAA3F3124B11
:102C900019684FF0007393FAA3F3B3FA83F303F0C8
:102CA0001F03012202FA03F3194206D0FEF7B2FA1B
:102CB000001B0228E7D903200AE0002008E00120D9
:102CC0007047012004E0032002E0032000E0002020
:102CD00002B070BD0120FBE700100240348F0008F5
:102CE00010B4174B5C6804F00C03082B26D104F4D5
:102CF00070124FF4701393FAA3F3B3FA83F322FA2A
:102D000003F31049C85C0E4BDB6A03F00F030F227C
:102D100092FAA2F2B2FA82F2D3400B441A7C14F473
:102D2000803F05D1084B03FB00F05DF8044B704772
:102D3000064BB3FBF2F300FB03F0F6E70348F4E7BE
:102D400000100240D88D000800093D0000127A00F2
:102D5000002800F01B8170B504460D46036813F08F
:102D60000F0F14D0022D18D88A4B1B6803F00703ED
:102D7000AB4218D2874A136823F007032B43136032
:102D8000136803F00703AB420DD0012070BD40F281
:102D9000BA21814801F02CFEE4E740F2BB217E48D5
:102DA00001F026FEE0E7236813F0020F18D0A368B5
:102DB0007BB1802B0DD0902B0BD0A02B09D0B02B4A
:102DC00007D0C02B05D0D02B03D0E02B01D0F02BA7
:102DD0003ED1724A536823F0F003A1680B4353605D
:102DE000236813F0010F69D06368022B36D863683B
:102DF000012B39D0022B4CD0022292FAA2F2674A60
:102E00001068022292FAA2F2B2FA82F202F01F02D3
:102E1000012101FA02F2104200F0BA805F494A68CB
:102E200022F0030213434B60FEF7F4F906465B4BB6
:102E30005B6803F00C036268B3EB820F3ED0FEF7D1
:102E4000E9F9801B41F288339842F0D903209DE7CD
:102E500040F2D221504801F0CBFDBAE740F2D9212F
:102E60004D4801F0C5FDC2E74FF4003292FAA2F2DC
:102E70004A4A10684FF4003292FAA2F2B2FA82F291
:102E800002F01F02012101FA02F20242C6D1012022
:102E90007CE74FF0007292FAA2F2404A10684FF0BD
:102EA000007292FAA2F2B2FA82F202F01F0201213B
:102EB00001FA02F21042B1D1012067E7354B1B68DD
:102EC00003F00703AB420CD9324A136823F007031F
:102ED0002B431360136803F00703AB4201D00120BA
:102EE00054E7236813F0040F14D0E3685BB1B3F523
:102EF000806F08D0B3F5A06F05D0B3F5C06F02D0D6
:102F0000B3F5E06F36D1254A536823F4E063E168F6
:102F10000B435360236813F0080F15D023695BB18E
:102F2000B3F5806F08D0B3F5A06F05D0B3F5C06FCF
:102F300002D0B3F5E06F23D1184A536823F46053ED
:102F4000216943EAC1035360FFF7CAFE134B5B6874
:102F500003F0F003F02292FAA2F2B2FA82F2D34026
:102F60000F4AD35CD8400F4B18600020FEF710F9D1
:102F700000200BE740F21531074801F039FDC2E7A8
:102F80004FF44771044801F033FDD5E70120704745
:102F90000120FBE600200240348F000800100240B0
:102FA000F88D0008A0000020014B1868704700BF92
:102FB000A0000020F0B583B004460368B3F54D3F90
:102FC00080F0A281236813F4803F54D063684BB132
:102FD000B3F5807F06D0B3F5007F03D0B3F5407F13
:102FE00040F09781964BDB6913F0805F40F096814B
:102FF000934BDA6942F08052DA61DB6903F0805367
:103000000193019B01258F4B1B6813F4807F00F017
:1030100087818B4B1B6A13F4407322D0626802F4E1
:1030200040729A421DD08648016A21F440764FF4DE
:10303000803393FAA3F2B2FA82F2834F3A449200B9
:103040004FF0010CC2F800C093FAA3F3B3FA83F374
:103050003B449B0000221A60066211F0010F40F011
:103060007481774A136A23F4407361680B431362D7
:10307000002D40F09681236813F0010F0AD0A36859
:10308000032B00F293816E4A136B23F00303A168B4
:103090000B431363236813F0020F12D0E3684BB1A4
:1030A000B3F5803F06D0B3F5003F03D0B3F5403F02
:1030B00040F08181624A136B23F44033E1680B4393
:1030C0001363236813F0040F12D023694BB1B3F5D7
:1030D000802F06D0B3F5002F03D0B3F5402F40F07A
:1030E0006F81574A136B23F4402321690B43136309
:1030F000236813F0200F0BD0E36913B1102B40F0BD
:1031000064814F4A136B23F01003E1690B4313638F
:10311000236813F4003F0DD0A36BB3F5800F02D0EA
:10312000002B40F05781464A536823F48003A16B7B
:103130000B435360236813F0400F0BD0236A13B185
:10314000202B40F04C813E4A136B23F02003216A70
:103150000B431363236813F0080F12D063694BB15C
:10316000B3F5801F06D0B3F5001F03D0B3F5401FA1
:1031700040F03B81324A136B23F4401361690B43E7
:103180001363236813F0100F12D0A3694BB1B3F58A
:10319000800F06D0B3F5000F03D0B3F5400F40F019
:1031A0002A81274A136B23F44003A1690B4313635D
:1031B000236813F4007F0CD0E36A1BB1B3F5000F52
:1031C00040F01F811E4A536823F40003E16A0B4359
:1031D0005360236813F0800F3AD0636A43B3B3F5AA
:1031E000807F25D0B3F5887F22D0B3F5907F1FD0A4
:1031F000B3F5987F1CD0B3F5A07F19D0B3F5A87FA5
:1032000016D0B3F5B07F13D0B3F5B87F10D0B3F5B7
:10321000C07F0DD0B3F5C87F0AD0B3F5D07F07D0FB
:10322000B3F5D87F04D040F26911084801F0E0FB03
:10323000034AD36A23F4F873616A0B43D36207E04D
:103240000010024000700040008190106C8F000858
:10325000236813F4807F31D0A36A43B3B3F5005FD2
:1032600025D0B3F5085F22D0B3F5105F1FD0B3F5BA
:10327000185F1CD0B3F5205F19D0B3F5285F16D0C6
:10328000B3F5305F13D0B3F5385F10D0B3F5405FBE
:103290000DD0B3F5485F0AD0B3F5505F07D0B3F552
:1032A000585F04D04FF4BD71614801F0A1FB614A41
:1032B000D36A23F47853A16A0B43D362236813F4CF
:1032C000805F0CD0236B1BB1B3F5807F40F09F80F3
:1032D000584A136B23F48073216B0B4313632368E9
:1032E00013F4005F00F0A180636B1BB1B3F5007FA6
:1032F00040F093804F4A136B23F40073616B0B43D0
:103300001363002003B0F0BD7D21494801F070FB3C
:1033100058E68321464801F06BFB63E6002572E620
:10332000454A136843F480731360FDF773FF064644
:10333000414B1B6813F4807F7FF46BAEFDF76AFF8F
:10334000801B6428F4D90320DCE7FDF763FF064601
:1033500015E0384B196A022393FAA3F3B3FA83F307
:1033600003F01F03012202FA03F30B427FF479AE4C
:10337000FDF750FF801B41F28833984253D8022357
:1033800093FAA3F293FAA3F3B3FA83F35B0943F03E
:103390000203022BDDD0022393FAA3F3254B596AD3
:1033A000D9E7D36923F08053D36164E6CA2120486A
:1033B00001F01EFB67E6D5211D4801F019FB79E6F7
:1033C000E1211B4801F014FB8BE6EC21184801F0C9
:1033D0000FFB96E6FA21164801F00AFBA3E64FF42C
:1033E0008771134801F004FBADE640F22F1110483D
:1033F00001F0FEFABEE640F239110D4801F0F8FA8C
:10340000CFE640F249110A4801F0F2FADAE64FF449
:10341000CD71074801F0ECFA5AE74FF4D671044831
:1034200001F0E6FA66E703206CE700206AE700BFD8
:103430006C8F00080010024000700040F8B505468F
:103440000F4616461C4639E02CB1FDF7E3FE069BFD
:10345000C01AA04232D32A68536823F0E0035360B5
:103460006B68B3F5827F0BD0AB6AB3F5005F14D005
:10347000012385F85D30002385F85C30032025E0CA
:10348000AB68B3F5004F02D0B3F5806FECD12A687A
:10349000136823F040031360E6E72A68136823F4F7
:1034A000005313602A68136843F400531360DFE786
:1034B0000123B34209D0B4F1FF3FC5D12B689B680B
:1034C00037EA0303F4D00023F3E70020F8BDF0B59A
:1034D00083B007460C4615461E4602E0B6F1FF3F94
:1034E00010D13A6893682340AB423FD0B4F5C06F27
:1034F000F4D1002DF2D1137BDBB28DF807309DF8AB
:103500000730EBE72EB1FDF785FE089BC01AB042ED
:10351000E7D33A68536823F0E00353607B68B3F560
:10352000827F0BD0BB6AB3F5005F14D0012387F80C
:103530005D30002387F85C30032018E0BB68B3F5EA
:10354000004F02D0B3F5806FECD13A68136823F0D6
:1035500040031360E6E73A68136823F400531360EE
:103560003A68136843F400531360DFE7002003B0A8
:10357000F0BD70B582B004460D46164600920B466B
:1035800000224FF4C051FFF7A2FFB8B900962B46B6
:10359000002280212046FFF751FFB8B900962B4644
:1035A00000224FF4C0612046FFF791FF034650B15F
:1035B000236E43F020032366032304E0236E43F0CD
:1035C000200323660323184602B070BD236E43F028
:1035D000200323660323F6E7002800F0148110B5CA
:1035E00004460368894A93420CD0A2F5784293427C
:1035F00008D002F58062934204D040F21B11844847
:1036000001F0F6F963681BB1B3F5827F40F0B38037
:10361000A36833B1B3F5806F03D0B3F5004F40F02A
:10362000B080E368B3F5706F24D0B3F5606F21D03C
:10363000B3F5506F1ED0B3F5406F1BD0B3F5306FAC
:1036400018D0B3F5206F15D0B3F5106F12D0B3F5C5
:10365000006F0FD0B3F5E06F0CD0B3F5C06F09D099
:10366000B3F5A06F06D0B3F5806F03D0B3F5407FFC
:1036700040F08D80A369B3F5007F04D01BB1B3F592
:10368000802F40F08A80636B082B02D0002B40F023
:103690008A80E3696BB1082B0BD0102B09D0182B53
:1036A00007D0202B05D0282B03D0302B01D0382B6E
:1036B0007FD1236A13B1802B40F08180636A13B1FC
:1036C000102B40F08280636A43B9236913B1022B47
:1036D00040F081806369012B00F283800023A362A4
:1036E00094F85D30002B00F08280022384F85D3076
:1036F0002268136823F040031360E368B3F5E06FBA
:103700007BD90022B3F5706F04D0B3F5E06F01D020
:103710000021A162216B21B9B3F5E06F70D90223BA
:1037200023636368A1680B4321690B4361690B4301
:10373000A16901F400710B43E1690B43216A0B435A
:10374000A06A216803430B60638B03F00403616A82
:103750000B43616B0B43E1680B43216813434B60E0
:103760002268D36923F40063D3610020206601231B
:1037700084F85D3010BD4FF48E71254801F038F9A2
:1037800046E740F21D11224801F032F949E74FF4B3
:103790008F711F4801F02CF96CE740F21F111C4893
:1037A00001F026F96FE74FF49071194801F020F904
:1037B0006FE740F22111164801F01AF979E74FF44A
:1037C0009171134801F014F978E740F22311104881
:1037D00001F00EF977E74FF493710D4801F008F905
:1037E00078E740F227110A4801F002F976E784F8F9
:1037F0005C30204601F028F977E74FF4805281E7EA
:10380000012323638DE70120704700BF0030014092
:10381000A88F000820B310B504460368114A9342EC
:103820000CD0A2F57842934208D002F58062934210
:1038300004D04FF4CB710C4801F0DAF8022384F87D
:103840005D302268136823F040031360204601F0C6
:1038500021F90020206684F85D0084F85C0010BD2A
:103860000120704700300140A88F00082DE9F8437F
:1038700004460F4616469846089D8368E3B994F8B7
:103880005C30012B00F05281012384F85C30FDF79D
:10389000C1FC814694F85D30DBB26268012B19D01F
:1038A000B2F5827F0ED00220012384F85D30002320
:1038B00084F85C30BDE8F88340F2A1319C4801F007
:1038C00097F8DCE7A268002A40F02681042B01D09B
:1038D0000220E9E7002F00F02181002E00F0208176
:1038E000B8F1000F00F01E8194F85D30DBB2042BBC
:1038F00002D0052384F85D30002323662664A4F8F3
:103900004680A4F84480A763A4F83E80A4F83C80D5
:10391000E3642365E368B3F5E06F04D8B4F8463098
:103920009BB2012B22D92268536823F48053536041
:1039300023681A6812F0400F03D11A6842F040025F
:103940001A60E368B3F5E06F54D963681BB1E38F85
:103950009BB2012B07D1236837F8022BDA60E38F83
:10396000013B9BB2E3874FF001081CE022685368DB
:1039700043F480535360DBE7B4F846309BB27BB12D
:1039800023689A6812F0010F0AD0DB6826F8023B20
:10399000B4F84630013B9BB2A4F846304FF0010822
:1039A000B5F1FF3F1ED1E38F9BB22BB9B4F846307F
:1039B0009BB2002B00F0A480B8F1000FDCD0E38FA5
:1039C0009BB2002BD8D023689A6812F0020FD3D094
:1039D00037F8022BDA60E38F013B9BB2E3874FF0AD
:1039E0000008C9E7FDF716FCA0EB0900A842DAD3EE
:1039F000032059E763681BB1E38F9BB2012B0BD106
:103A0000E38F9BB2012B0AD9236837F8022BDA60C7
:103A1000E38F023B9BB2E3874FF0010832E023685B
:103A20003A781A73E38F013B9BB2E3870137F3E7E0
:103A30003A781A73E38F013B9BB2E38701374FF06B
:103A40000008B4F846309BB2CBB123689A6812F0F4
:103A5000010F14D0B4F8462092B2012A3CD9DB6899
:103A600026F8023BB4F84630023B9BB2A4F846303D
:103A7000B4F846309BB2012B26D94FF00108B5F1BE
:103A8000FF3F35D1E38F9BB223B9B4F846309BB2E8
:103A9000002B35D0B8F1000FD3D0E38F9BB2002BB1
:103AA000CFD023689A6812F0020FCAD0E28F92B288
:103AB000012ABDD937F8022BDA60E38F023B9BB2B3
:103AC000E3874FF00008BCE72268536843F4805353
:103AD00053604FF00108D2E71B7B3370B4F84630D7
:103AE000013B9BB2A4F8463001364FF00108C6E70F
:103AF000FDF790FBA0EB0900A842C3D30320D3E657
:103B00004A4629462046FFF734FD08B120232366A4
:103B1000236E4BB90020C7E60220C5E60120C3E6AC
:103B20000120C1E60120BFE60120BDE60220C1E67A
:103B3000A88F000890F85D0070470000F0B585B0D0
:103B400006460D461746B4B24FF0FF330122214618
:103B50001548FEF783FB0028F5D105F0F0032A0194
:103B6000D2B23B4343F00C018DF80C1043F0080334
:103B70008DF80D303A4342F00C038DF80E3042F0D0
:103B800008028DF80F204FF0FF330093042303AA9F
:103B900021460548FEF7AEF804460520FDF740FB38
:103BA000204605B0F0BD00BF6C0B002008B5002218
:103BB000FFF7C4FF08BD08B50122FFF7BFFF08BD2E
:103BC00084B010B5044603A880E80E004C220146DC
:103BD0000B48FCF7D1FF30212046FFF7E7FF022119
:103BE0002046FFF7E3FF0C212046FFF7DFFF01210E
:103BF0002046FFF7DBFFBDE8104004B0704700BF70
:103C00006C0B002038B505460C4603E02846FFF74C
:103C1000D2FF013421780029F8D138BD08B5034B13
:103C200018780121FFF7C2FF08BD00BF080000207F
:103C300038B50D46044658B1012C0FD0022C13D0D4
:103C4000032C17D00E4B18782946FFF7DBFF38BD41
:103C50000B4B18788021FFF7A9FFEDE7084B187888
:103C6000C021FFF7A3FFE9E7054B18789421FFF780
:103C70009DFFE5E7024B1878D421FFF797FFE1E7B6
:103C80000800002070B50D461646044658B1012CB8
:103C900011D0022C17D0032C20D0164B18783146A7
:103CA000FFF7B0FF70BD134B187861F07F01C9B208
:103CB000FFF77CFFEBE70F4B187865F03F01C9B2C7
:103CC000FFF774FFE5E70B4B187805F1140149B2D3
:103CD00061F07F01C9B2FFF769FFDCE7054B187897
:103CE00005F1140149B261F03F01C9B2FFF75EFF6F
:103CF000D3E700BF0800002030B585B004460D466C
:103D000010EE100AFCF7E0FB02460B46054901A83D
:103D100001F0AEFB01AA29462046FFF7B3FF05B02C
:103D200030BD00BF1090000830B585B004460D4688
:103D300053EC102B054901A801F09AFB01AA294672
:103D40002046FFF79FFF05B030BD00BF1090000870
:103D500070B58CB0454B5A6942F400125A615A69E9
:103D600002F400120192019A5A6942F400225A6147
:103D70005A6902F400220292029A5A6942F48002BD
:103D80005A615A6902F480020392039A5A6942F412
:103D900000325A615A6902F400320492049A5A6954
:103DA00042F480225A615A6902F480220592059AEF
:103DB0005A6942F480125A615B6903F480130693D6
:103DC000069B2B4E00224FF608713046FDF7F0FCA3
:103DD00036230793274B08930024099407A93046FC
:103DE000FDF7E6FA4FF60873079301230893099449
:103DF0000A9407A93046FDF7DBFAC1230793032590
:103E00000895099407A93046FDF7D2FA43F6FF73E7
:103E100007930895099407A91748FDF7C9FA40F2D6
:103E2000546307930895099407A91448FDF7C0FA4D
:103E300048F21F1307930895099407A94FF0904083
:103E4000FDF7B6FA4FF6377307930895099407A95B
:103E50000B48FDF7ADFA4FF6FF73079308950994E9
:103E600007A90848FDF7A4FA0CB070BD0010024085
:103E7000001000480000121000080048001400481C
:103E800000040048000C004808B51548154B0360B5
:103E9000154B4360002383600122C26003614361CC
:103EA0008361C3610362FDF741FE50B900210C48F4
:103EB000FEF786FA50B900210948FEF7CBFA50B94F
:103EC00008BD4321094800F030FBEFE74A210748CD
:103ED00000F02BFBEFE75121044800F026FBEFE751
:103EE0006C0B0020005400400E09002014900008C4
:103EF00008B51548154B0360154B436000238360DC
:103F00000122C260036143618361C3610362FDF703
:103F10000DFE50B900210C48FEF752FA50B90021AD
:103F20000948FEF797FA50B908BD6421094800F026
:103F3000FCFAEFE76B21074800F0F7FAEFE7722190
:103F4000044800F0F2FAEFE7B80B002000580040F8
:103F50000E0900201490000800B589B003681E4ABD
:103F6000934205D01D4A93421BD009B05DF804FB73
:103F7000C023039312230493012305930323069381
:103F80000423079303A91648FDF712FA154BDA69C3
:103F900042F40012DA61DB6903F400130193019B20
:103FA000E3E74FF4C06303931223049301230593C3
:103FB000032306930423079303A94FF09040FDF7D2
:103FC000F7F9084BDA6942F48002DA61DB6903F43D
:103FD00080030293029BC8E7005400400058004051
:103FE000000400480010024008B503680F4A9342DD
:103FF00003D00F4A93420BD008BD02F5DE32D369DD
:1040000023F40013D361C0210A48FDF72FFBF3E727
:1040100002F5DC32D36923F48003D3614FF4C0612D
:104020004FF09040FDF722FBE6E700BF0054004050
:104030000058004000040048704730B583B0054682
:1040400000238DF8073000F041FE02AC04F8015D5A
:1040500001222021204600F077FE2D0A8DF807501E
:1040600001222321204600F06FFE03B030BD00B5D1
:1040700083B002AB03F8010D01222021184600F0A5
:1040800063FE03B05DF804FB00B583B000F01EFED4
:1040900001220F210DF1070000F078FE9DF80700C6
:1040A00003B05DF804FB00B583B0012224210DF1BB
:1040B000070000F06BFE9DF8073063F07F038DF87A
:1040C0000730012224210DF1070000F03DFE03B06E
:1040D0005DF804FB10B582B0044600238DF807306C
:1040E0008DF80630012230210DF1070000F04EFE60
:1040F000012222210DF1060000F048FE9DF8073054
:10410000E4B203F080038DF807309DF8063003F029
:10411000DF031C438DF80640012230210DF107001A
:1041200000F012FE012222210DF1060000F00CFE2B
:1041300002B010BD10B582B00446012222210DF15B
:10414000070000F023FE54B1012C0ED19DF807307A
:1041500003F0F70343F008038DF8073005E09DF8FE
:10416000073063F07F038DF80730012222210DF123
:10417000070000F0E9FD02B010BD10B582B00446A2
:10418000012222210DF1070000F000FE44B1012CB4
:104190000CD19DF8073023F008038DF8073005E0B7
:1041A0009DF8073003F07F038DF8073001222221AC
:1041B0000DF1070000F0C8FD02B010BD10B582B0CF
:1041C0000446012221210DF1070000F0DFFD9DF8DA
:1041D000070000F0C00020438DF8070001222121D4
:1041E0000DF1070000F0B0FD02B010BD10B582B0B7
:1041F0000446012224210DF1070000F0C7FD9DF8BF
:10420000070000F0EF0020438DF807000122242171
:104210000DF1070000F098FD02B010BD10B586B09A
:10422000044600230493ADF814300293ADF80C302B
:1042300006A800F8113D0122232100F0A7FD062267
:10424000282104A800F0A2FD9DF8073013F0400FCC
:104250001FD000222FE05300591C06A8014411F87A
:10426000080C06A90B4413F8081C01EB002123F8E5
:10427000101C0132022AEEDD9DF8073003F03003F6
:10428000102B1BD0202B1CD0F3B19FED1B7A0023E9
:104290002DE00022EEE7530006A9194411F8080C9E
:1042A00001330DF1180C634413F8083C03EB0023B1
:1042B00021F8103C0132022AEDDDDDE79FED0F7A97
:1042C000E5E79FED0F7AE2E79FED0E7ADFE706AABA
:1042D00002EB430232F9102C07EE902A04EB830222
:1042E000F8EEE77A67EE877AC2ED007A0133022BA7
:1042F000EDDD06B010BD00BF0000000000008C41E5
:1043000000008C4200000C41704710B5044600F0DC
:1043100061FDE2B22021322000F0BEFD0022232107
:10432000322000F0B9FD10BD08B500F053FD0F219B
:10433000322000F0B5FD08BD08B52421322000F080
:10434000AFFD60F07F02D2B22421322000F0A4FD44
:1043500008BD10B504462121322000F0A1FD00F077
:104360000C0222432121322000F096FD10BD10B531
:1043700004462121322000F093FD00F0F702224391
:104380002121322000F088FD10BD30B587B00446F1
:104390002321322000F084FD05468DF80C002421F5
:1043A000322000F07DFD2821322000F079FD8DF8CB
:1043B00004002921322000F073FD8DF805002A2128
:1043C000322000F06DFD8DF806002B21322000F028
:1043D00067FD8DF807002C21322000F061FD8DF87B
:1043E00008002D21322000F05BFD8DF8090015F04A
:1043F000400F22D0002135E051004B1C06A8034499
:1044000013F9143C9BB21B029BB2014411F9140C2A
:1044100013FA80F321F8083C0132D2B2022AEBD918
:104420009DF80C3003F03003202B1ED0302B1ED013
:10443000102B1ED00121002328E00022EEE74A00C5
:1044400006AB981810F9143C9BB21B029BB20132C8
:1044500006AD2A4412F9142C13FA82F320F8083C12
:104460000131C9B20229EAD9DAE70421E3E70C21D4
:10447000E1E70221DFE706AA02EB430232F9082C4A
:1044800012FB01F224F813200133DBB2022BF2D924
:1044900007B030BD10B504462121322000F000FDE8
:1044A00000F0FB0222432121322000F0F5FC10BD78
:1044B00010B504462221322000F0F2FC40EA04024A
:1044C000D2B22221322000F0E7FC10BD10B5044624
:1044D0003821322000F0E4FC40EA0402D2B2382154
:1044E000322000F0D9FC0A223A21322000F0D4FC1C
:1044F00005223B21322000F0CFFC05223C21322056
:1045000000F0CAFC32223D21104600F0C5FC10BD6F
:1045100008B500F099FC8020FFF7CAFF0420FFF7E0
:10452000B9FF1020FFF7D2FF08BDFEE700B59FB02E
:10453000032314934FF4A023159300231693012310
:1045400018931023199302231B934FF480331C9369
:104550004FF480131D9314A8FEF724F870BB0F23AB
:104560000F9302231093002311934FF48062129251
:10457000139301210FA8FEF7EBFB18BB164B00931A
:104580000023079308934FF480030E936846FEF7C9
:1045900011FDE0B9FEF708FD104BA3FB00308009C8
:1045A000FCF7CCFE0420FCF7DFFE002211464FF0A2
:1045B000FF30FCF767FE1FB05DF804FBF4210848EC
:1045C000FFF7B3FF4FF481710548FFF7AEFF4FF4DB
:1045D00086710348FFF7A9FF60000200D34D621007
:1045E00024900008000000002DE9F04F2DED108B05
:1045F0009BB0FCF7F1FDFFF799FFFFF7A9FBFFF771
:1046000043FC00F0F7F900F029FDFFF771FC284E9C
:104610006C4606F10C050FCD0FC40FCD0FC40FCDA6
:104620000FC495E80F0084E80F0096E80E004E20B6
:10463000FFF7C6FA00F038FC40B11E490020FFF732
:10464000F7FA1D490120FFF7F3FAFEE700F050FCEE
:10465000D8B900231893ADF86430159316931793C7
:10466000DFED16EAB0EE6EFA1EEE90AA9FED0EABED
:10467000B0EE4ACAF0EE6ACAB0EE4ABAF0EE6ABAD2
:10468000B0EE6EEA8DED12AB87E00A490020FFF72D
:10469000CFFA09490120FFF7CBFAFEE70F3086E099
:1046A0000F3093E00F309FE000000000000000009A
:1046B000B80B0020349000084C9000080000000067
:1046C000BF4A00210846FFF7DDFAB0EE4B0AF0EED4
:1046D0006B0A0C210020FFF727FBBA4D2A46002168
:1046E0000120FFF7CFFAB0EE4C0AF0EE6C0A02217F
:1046F0000120FFF719FBB44C224609210120FFF7E6
:10470000C1FAB0EE4A0AF0EE6A0A0B210120FFF767
:104710000BFBAE4A00210220FFF7B4FA5046FBF72C
:10472000D3FE41EC100B08210220FFF7FDFA2A46C8
:1047300000210320FFF7A6FAB0EE4F0A0221032062
:10474000FFF7DAFA224609210320FFF79BFAB0EEC1
:104750006E0A0B210320FFF7CFFA4FF47A70FCF7B3
:104760005FFDFFF75BFA9A4A00210846FFF78AFAD5
:104770009DED120B00210120FFF7D6FA954A00218A
:104780000220FFF77FFAB0EE4E0A00210320FFF768
:10479000B3FA4FF47A70FCF743FDFFF73FFA18A81D
:1047A00000F09CFBBDF960000028FFF677AF001118
:1047B000FBF778FE80A3D3E90023FCF707F88046D7
:1047C0008946BDF962000028FFF66AAF0011FBF7C9
:1047D00069FE0022804BFBF7F9FF06460F46BDF944
:1047E00064000028FFF65EAF0011FBF75BFE0022BD
:1047F000794BFBF7EBFFCDE9100142464B464046B3
:104800004946FBF7B9FE04460D4632463B46304664
:104810003946FBF7B1FE02460B4620462946FBF718
:10482000F5FC04460D46DDE9100102460B46FBF798
:10483000A3FE02460B4620462946FBF7E7FC41EC67
:10484000100B00F079FCB0EE409AF0EE609A15A8DB
:1048500000F070FBDFED617A9DED157A87EE278A17
:104860009DED167AC7EE278A9DED177A87EE27DA37
:1048700028EE087A68EEA87A77EE277A2DEE0D7A80
:1048800077EE877A17EE900AFBF71EFE41EC100BCD
:1048900000F052FC51EC100BFCF71EF90DEE900AE3
:1048A0004F4A00210846FFF7EDF949EC108B0B2128
:1048B0000020FFF739FA434C224600210120FFF780
:1048C000E1F947EC106B02210120FFF72DFADFF828
:1048D000F8B05A4609210120FFF7D4F99DED100BDD
:1048E0000B210120FFF720FA3E4A00210220FFF7AA
:1048F000C9F918EE100AFBF7E7FD41EC100B072190
:104900000220FFF711FA224600210320FFF7BAF92F
:10491000B0EE680A02210320FFF7EEF95A4609219A
:104920000320FFF7AFF9B0EE4D0A0B210320FFF78C
:10493000E3F94FF47A70FCF773FCFFF76FF92A4A3A
:1049400000210846FFF79EF9B0EE490AF0EE690A29
:1049500000210120FFF7E8F9244A00210220FFF797
:1049600091F9B0EE6D0A00210320FFF7C5F94FF46D
:104970007A70FCF755FCFFF751F953EC192BDDE980
:104980001201FCF76BF838B19DED10AB47EC1C6BD6
:1049900049EC1B8B8DED129BB4EEEDEAF1EE10FAB3
:1049A0007FF58EAEF0EE4DEAB0EE68FA18EE10AA82
:1049B000B0EE6DEA84E600BF000000000088C3404E
:1049C000909000085C90000860900008A09000089B
:1049D000AC900008C490000800408F4000007A446A
:1049E00050900008649000086C90000880900008C7
:1049F0007047000008B51148114B03604FF48273F3
:104A00004360002383604FF44072C26003614361DE
:104A10004FF4007282610822C261036243628362C2
:104A20000721C16203634263FEF7D6FD00B908BDEA
:104A300047210448FFF779FDF9E700BF040C002087
:104A400000300140D89000080268114B9A4200D013
:104A5000704700B587B003F560439A6942F480520D
:104A60009A619B6903F480530093009BE0230193B8
:104A70000223029300230393032304930523059346
:104A800001A94FF09040FCF793FC07B05DF804FBE0
:104A90000030014008B50268074B9A4200D008BDBB
:104AA000064A936923F480539361E0214FF09040CC
:104AB000FCF7DCFDF3E700BF0030014000100240CE
:104AC00000B589B0124B9A6942F480529A619A6992
:104AD00002F480520192019A5A6942F400325A61FA
:104AE0005B6903F400330293029BE02303930223E8
:104AF000049300230593032306930523079303A937
:104B00004FF09040FCF754FC09B05DF804FB00BF87
:104B10000010024010B588B0104C636943F4802344
:104B20006361636903F480230193019BC0230393B2
:104B3000022304930593032306930423079303A9F5
:104B40000748FCF735FCE36943F40013E361E369CC
:104B500003F400130293029B08B010BD0010024042
:104B60000004004810B51148FEF7E4FF00B110BD85
:104B70000E4C0F4B23601823E3610023A360636195
:104B80002361A3620722E2624FF4E062E2602362E3
:104B90004FF40072A26163624FF482736360204637
:104BA000FFF78EFF2046FEF717FDE0E7780A0020AA
:104BB0000030014008B50348FEF72CFEFFF7D2FF96
:104BC00008BD00BF780A002000B587B08DF80F003F
:104BD00006AA002302F8013D084B1B68009301233D
:104BE0000DF10F010648FEF741FE20B99DF81700B0
:104BF00007B05DF804FBFFF7DDFFF7E77400002066
:104C0000780A002010B50D48FDF7D6FB00B110BDA5
:104C10000B4C0C4B63663223E366012323670023AE
:104C20006367A367C4F88030C4F8843064342046D6
:104C3000FFF770FF2046FCF779FFE8E7DC0A002069
:104C4000780A00200054004008B50348FDF726F814
:104C5000FFF7D8FF08BD00BFDC0A002010B586B002
:104C600006AC04F8012D084B5B6802930123019305
:104C700000940A4601460548FDF704F908B906B054
:104C800010BDFFF7E1FFFAE774000020DC0A002006
:104C900000B587B006AA002302F8013D094B5B6806
:104CA00002930123019300920A4601460648FDF74C
:104CB000E1F920B99DF8170007B05DF804FBFFF794
:104CC000C3FFF7E774000020DC0A00202DE9F04361
:104CD00089B01B4C636943F400136361636903F497
:104CE00000130193019B4FF00808CDF80C804FF0A2
:104CF0000109CDF810900026059603270697114D5F
:104D000003A92846FCF754FB4A4641462846FCF7CF
:104D10004FFD636943F400136361636903F4001397
:104D20000293029B039704960697059603A92846CB
:104D3000FCF73EFBFFF716FF09B0BDE8F08300BFAC
:104D4000001002400010004870B505460E4614469B
:104D5000012A01D941F04006002208210A48FCF747
:104D600027FD3046FFF730FF05E015F8010BFFF790
:104D70002BFF013CA4B2002CF7D1012208210248EC
:104D8000FCF716FD70BD00BF0010004870B5054669
:104D90001446012A0AD941F0C006002208210C4815
:104DA000FCF706FD3046FFF70FFF09E041F08006F3
:104DB000F3E70020FFF708FF05F8010B013CA4B260
:104DC000002CF6D1012208210148FCF7F1FC70BD4E
:104DD0000010004870B588B0194B5A6942F40012AF
:104DE0005A615A6902F400120192019A5A6942F416
:104DF00000125A615B6903F400130293029B0423BF
:104E00000393002404940594032606960D4D03A9EC
:104E10002846FCF7CDFA224621460820FCF732FA54
:104E20000820FCF775FA3023039304940696059442
:104E300003A92846FCF7BCFAFFF7E4FE08B070BDF2
:104E4000001002400010004810B586B00F4B5A69A0
:104E500042F400125A615B6903F400130093009B53
:104E6000302301930A4B02930323049300240394F9
:104E700001A90848FCF79CFA224621460A20FCF7C3
:104E800001FA0A20FCF744FA06B010BD00100240F7
:104E9000000011100010004808B5FFF7DFFE08BD44
:104EA00008B5FFF7F5FE08BD10B50A4B9B6898479B
:104EB00033280CD1084C074B23601B6840F6470091
:104EC000984723689B6A90209847002010BD0120D6
:104ED000FCE700BF40000020280B002008B5034B72
:104EE0001B681B6B03B1984708BD00BF280B00204F
:104EF00010B50E4B9B689847D42806D00B4B9B6887
:104F00009847D52801D001200FE0094C074B2360BA
:104F10001B6841F23F00984723689B6A002098472E
:104F20002368DB6A10209847002010BD0C00002089
:104F30002C0B002008B5034B1B681B6B03B1984773
:104F400008BD00BF2C0B002000B583B0214B9A692F
:104F500042F001029A619A6902F001020092009AFD
:104F6000DA6942F08052DA61DB6903F08053019321
:104F7000019B0720FCF768F9002211466FF00B0037
:104F8000FCF780F9002211466FF00A00FCF77AF96D
:104F9000002211466FF00900FCF774F90022114657
:104FA0006FF00400FCF76EF9002211466FF0030069
:104FB000FCF768F9002211466FF00100FCF762F976
:104FC000002211464FF0FF30FCF75CF903B05DF8AA
:104FD00004FB00BF001002407047FEE7FEE7FEE75B
:104FE000FEE770477047704708B5FCF707F9FCF714
:104FF000DAF908BD1549D1F8883043F47003C1F8D7
:105000008830134B1A6842F001021A605868114A3E
:1050100002405A601A6822F0847222F480321A60C8
:105020001A6822F480221A605A6822F4FE025A603A
:10503000DA6A22F00F02DA62186B074A02401A633A
:1050400000229A604FF000638B60704700ED00E033
:10505000001002400CC07FF8CCFC00FF08B50A48E5
:105060000A4B036008234360022282600023C3606E
:10507000026183610362FDF733FA00B908BD412183
:105080000348FFF752FAF9E7680C0020005C004083
:10509000E89000080268114B9A4200D0704700B5B2
:1050A00087B04FF4C053019302230293002303936C
:1050B000032304930E23059301A94FF09040FCF7BE
:1050C00077F9074BDA6942F40002DA61DB6903F42D
:1050D00000030093009B07B05DF804FB005C0040F8
:1050E00000100240DFF834D0002103E00C4B5B5885
:1050F000435004310B480C4B42189A42F6D30B4AEA
:1051000002E0002342F8043B094B9A42F9D3FFF72F
:1051100071FF00F03FF9FFF767FAFEE700A00020FB
:105120009C930008000000205C0A00205C0A00201C
:1051300038100020FEE700002DE9F0432DED028B32
:105140008BB055EC104B00F053F8274BB0EE408A73
:10515000F0EE608A93F90060731C12D022462B4651
:1051600020462946FBF7A2FC074650B94FF000083D
:105170004FF000092046294642464B46FBF76EFC9D
:1051800040B9B0EE480AF0EE680A0BB0BDEC028BF5
:10519000BDE8F0830122154B08970092CDE9044544
:1051A000CDE90245019396B142464B4640464946F9
:1051B000FBF70CFB022ECDE906010AD100F0E4F862
:1051C00021230360089B53B99DED068BD9E7CDE9F8
:1051D0000689684600F0D6F80028F3D1EEE700F023
:1051E000D3F8089B0360EFE7A4000020F8900008C4
:1051F0002DE9F041624A57EC106BBA4300F09580FC
:10520000002F3B4610EE101A344654DD3F1500F0D7
:10521000AF80C3F31303A7F2FF3743F48013E20F09
:10522000F90702EB43034FEA440503D5ED0F05EB05
:105230004303A50000267F10B44616224FF4001148
:105240000CEB010098424FEAD5744FEA450503DCA8
:105250001B1A00EB010C0E44013A04EB43034FEA26
:105260005101EDD11046964620244FF0004209E04E
:1052700052D05B00013C03EBD5734FEA52024FEA78
:10528000450536D0634502EB0E01F1DD002901EB47
:10529000020E0ADBE046A3EB0C03A94288BF03F130
:1052A000FF336D1A1044C446E3E7BEF1000FF1DB93
:1052B0000CF10108EFE727F0004232432AD0002F1B
:1052C00049D1CA0A153B4905002AFAD012F48010C8
:1052D00001D050E020465200D50200F10104F9D57A
:1052E000C4F1200501FA04F4E9401F1A41EA02035F
:1052F0008FE72B4329D144087110F30701F17F5147
:1053000001F5001148BF44F0004401EB0753224669
:1053100043EC102BBDE8F081A942AAD8002901EB8B
:10532000020EC2DB98460023BBE710EE102A3B4674
:1053300010EE100A3946FBF71FF932463B46FAF7E2
:1053400065FF41EC100BBDE8F081421C16BF421C0A
:1053500001365408D0E710EE102A30463946FAF7E5
:1053600053FF02460B46FBF731FA41EC100BD1E735
:105370001A463B46AAE70C4620254FF0FF30B3E71C
:105380000000F07F00207047014B1868704700BF95
:10539000A800002070B50D4E0D4D761BB61006D03E
:1053A0000024013455F8043B9847A642F9D1094E30
:1053B000094D761B03F002FDB61006D0002401341F
:1053C00055F8043B9847A642F9D170BD9093000868
:1053D000909300089893000890930008F0B4860713
:1053E00043D0541E002A3ED0CAB2034602E014F154
:1053F000FF3438D303F8012B9D07F8D1032C2BD9A8
:10540000CDB245EA05250F2C45EA054516D9A4F18C
:1054100010073F0903F1200606EB071603F11002FF
:1054200042E9045542E902551032B242F8D104F083
:105430000F040137032C03EB07130DD91E46224638
:10544000043A032A46F8045BFAD8221F22F003022A
:105450000432134404F003042CB1C9B21C4403F811
:10546000011B9C42FBD1F0BC704714460346C5E7C4
:105470000EB430B59CB01FAB0C4C0D4D53F8042B43
:105480000193014602910691206802A96FF0004441
:105490000794CDE9044500F00FF8029B00221A7032
:1054A0001CB0BDE8304003B0704700BFA80000202A
:1054B0000802FFFF000000002DE9F04FC1B00C46CC
:1054C000089191460B93099002F030FB0368149306
:1054D0001846FBF7F5FBA38913901D0603D5236936
:1054E000002B00F018879FED947B00238DED107B3F
:1054F000CDE924330DF1C0080F9312931593069351
:10550000CDF88C80C246CB469BF80030002B00F0D3
:105510009980252B5C4602D11CE0252B03D014F882
:10552000013F002BF9D1A4EB0B0585B1DDE9243255
:1055300001332A44072BCAF800B0CAF80450CDE959
:10554000243277DC0AF1080A069B2B440693237861
:10555000002B77D000231A468DF86F301946079339
:105560001F464FF0FF306378059004F1010B0BF1FB
:10557000010B9946A9F12003582B00F27583DFE84F
:1055800013F0C30273037303BE0273037303730345
:10559000730373037303B202AD02730367034C0317
:1055A00073036C03B600B600B600B600B600B600D2
:1055B000B600B600B600730373037303730373037B
:1055C000730373037303730373033703E4027303F7
:1055D000E4027303730373037303DF027303730340
:1055E000A5007303730373037303730375007303DD
:1055F00073038D02730373037303730373037303E2
:1056000073037303730373037C012F01E402E40249
:10561000E4022A012F01730373031D0173030901BF
:10562000A700CA00C5007303E1007303770073038A
:105630007303CB0223AADDE9081003F067FA40B92F
:10564000C24681E7259B23B10998089923AA03F054
:105650005DFA089B9B8913F0400F069B18BF4FF023
:10566000FF330693069841B0BDE8F08F47F010076E
:10567000BE0640F127850B9D073525F0070303F192
:105680000802D3E900450B920123059A0026013256
:105690008DF86F6000F0288427F08002039254EAAE
:1056A000050240F0C080059A002A40F0B086002B29
:1056B00040F0D68417F001030A9300F0488540AB10
:1056C0001A46302302F8413D0D92CDE047F0100715
:1056D00017F0200300F000850B9D073525F0070328
:1056E00003F10802D3E900450B920023CDE7A9F1AD
:1056F000300300201BF8019B00EB800003EB40000F
:10570000A9F13003092BF5D9079033E747F02007BB
:105710009BF800302BE70B9A094B14681293043264
:1057200047F63003ADF8703047F002070B920025C2
:1057300002234FF07809A8E70000000000000000F5
:10574000289100080B9A13680D9300248DF86F4080
:10575000151D002B00F00B86059A531C00F0B38634
:1057600021460D98FBF71CFB002800F094870D9B49
:105770000594C31A0A930B95039723EAE3739DF8E4
:105780006F6004930E94002E00F08980049B013317
:10579000049384E0002A41F0A4800B9AB90652F8E1
:1057A000043B0B9200F11285FA0600F106867F0693
:1057B00040F10386BDF818201A80A5E69BF800305A
:1057C0006C2B03BF9BF8013047F020070BF1010B56
:1057D00047F01007CBE647F040079BF80030C6E6DD
:1057E000002A41F06080BC0640F10A820B9D07351B
:1057F00025F00703D3E9004503F108020B92002CC2
:1058000075F10003C0F2AF84059B9DF86F60013312
:1058100000F0B48427F08002039254EA05024FF0AE
:1058200001033FF440AF012B00F06283022B00F034
:105830008283414600E01146E20842EA4572E808E8
:1058400004F0070305461446303354EA050001F816
:10585000013C01F1FF32EED103980D92C00700F137
:105860005984A8EB02030A93059B0A9A9342B8BF96
:105870001346049300230E9385E70B9900230A68CF
:105880008DF86F301E468DF8982001230A1DCDE952
:105890000373CDE90A3226AB05960E960D93039B52
:1058A00013F0020702D0049B02330493039B259C50
:1058B00013F084030C933FD1079B049A9D1A002D8B
:1058C0003ADD102D249B29DD52462146AA4610269A
:1058D000DDE9085406E0AAF1100ABAF1100F02F14E
:1058E000080218DD0133BB481031072BCDE9243104
:1058F000C2E90006EFDD23AA2946204603F006F997
:1059000000287FF4A6AEAAF1100ABAF1100FDDE963
:1059100024314246E6DC55460C4692460133AD4AF8
:105920002C44072BCDE92434CAE9002500F349852E
:105930009DF86F600AF1080A76B1249B01330134A7
:105940000DF16F010122072BCDE92434CAE90012C1
:1059500000F3DB820AF1080A6FB1249B01330234A1
:105960001CA90222072BCDE92434CAE9001200F356
:10597000D7820AF1080A0C9B802B00F0E781059B77
:105980000A9A9D1A002D31DD102D249A924F22DDA6
:10599000534621461026DDE908A404E0103D102DF1
:1059A00003F1080315DD01321031072ACDE9242166
:1059B000C3E90076F2DD23AA5146204603F0A6F89B
:1059C00000287FF446AE103D102DDDE9242143462A
:1059D000E9DC9A460C4601322C44072ACDE92424FE
:1059E000CAE9007500F3BC820AF1080A039BDF05CF
:1059F00000F15081249B0D9ACAF800200A9ACAF837
:105A0000042001331444072B2594249300F30E82C1
:105A10000AF1080A039B5A0731D5079B049A9D1A7D
:105A2000002D2CDD102D249B1FDD1026DDE90897AD
:105A300004E0103D102D0AF1080A16DD0133654A15
:105A40001034072BCDE92434CAE90026F1DD23AA5E
:105A50004946384603F05AF800287FF4FAAD103D65
:105A6000102DDDE92434C246E8DC0133594A2C44C8
:105A7000072BCDE92434CAE9002500F35E83DDE974
:105A8000063204998A42ACBF9B185B180693002C1F
:105A900040F0958100232493C24635E5002A40F06A
:105AA00010874E4B1293B9063DD50B9D073525F057
:105AB0000703D3E9004503F108020B92FE0740F10A
:105AC000D18054EA050300F0CD8030238DF870308A
:105AD0008DF8719047F002070223D6E59BF800305D
:105AE00001222B2143E50B989BF8003004680794B2
:105AF000002C00F10400C0F20A840B9037E547F057
:105B000001079BF8003032E59BF8003000297FF454
