:020000040800F2
:1000000000000220C51F0008511F0008531F0008F0
:10001000551F0008571F0008591F00080000000066
:100020000000000000000000000000005B1F00084E
:100030005D1F0008000000005F1F0008611F00082E
:1000400015200008152000081520000815200008BC
:1000500015200008152000086D1F00081520000855
:10006000152000081520000815200008152000089C
:10007000152000081520000815200008152000088C
:1000800015200008152000081520000800000000B9
:100090000000000000000000000000001520000823
:1000A000152000081520000815200008152000085C
:1000B000152000081520000815200008152000084C
:1000C000152000081520000815200008152000083C
:1000D0001520000815200008152000080000000069
:1000E0001520000815200008152000080000000059
:1000F00000000000000000000000000015200008C3
:100100000000000015200008152000081520000838
:1001100000000000000000000000000000000000DF
:1001200015200008152000081520000815200008DB
:100130001520000800000000000000000000000082
:100140000000000000000000000000001520000872
:1001500015200008152000081520000815200008AB
:100160001520000815200008000000000000000015
:10017000000000000000000000000000000000007F
:100180000000000015200008000000000000000032
:080190001520000815200008ED
:1001C00010B5054C237833B9044B13B10448AFF391
:1001D00000800123237010BD600800200000000093
:1001E000F847000808B5034B1BB103490348AFF3B8
:1001F000008008BD0000000064080020F8470008E7
:1002000081F0004102E000BF83F0004330B54FEAC7
:1002100041044FEA430594EA050F08BF90EA020F34
:100220001FBF54EA000C55EA020C7FEA645C7FEAC7
:10023000655C00F0E2804FEA5454D4EB5555B8BFEA
:100240006D420CDD2C4480EA020281EA030382EA5B
:10025000000083EA010180EA020281EA0303362DED
:1002600088BF30BD11F0004F4FEA01314FF4801CC0
:100270004CEA113102D0404261EB410113F0004FD2
:100280004FEA03334CEA133302D0524263EB430389
:1002900094EA050F00F0A780A4F10104D5F1200E27
:1002A0000DDB02FA0EFC22FA05F2801841F1000182
:1002B00003FA0EF2801843FA05F359410EE0A5F156
:1002C00020050EF1200E012A03FA0EFC28BF4CF087
:1002D000020C43FA05F3C01851EBE37101F000453D
:1002E00007D54FF0000EDCF1000C7EEB00006EEB4A
:1002F0000101B1F5801F1BD3B1F5001F0CD34908D4
:100300005FEA30004FEA3C0C04F101044FEA44522A
:1003100012F5800F80F09A80BCF1004F08BF5FEAB1
:10032000500C50F1000041EB045141EA050130BD91
:100330005FEA4C0C404141EB010111F4801FA4F134
:100340000104E9D191F0000F04BF01460020B1FA89
:1003500081F308BF2033A3F10B03B3F120020CDAC1
:100360000C3208DD02F1140CC2F10C0201FA0CF09F
:1003700021FA02F10CE002F11402D8BFC2F1200C04
:1003800001FA02F120FA0CFCDCBF41EA0C019040BA
:10039000E41AA2BF01EB0451294330BD6FEA040403
:1003A0001F3C1CDA0C340EDC04F11404C4F12002EE
:1003B00020FA04F001FA02F340EA030021FA04F300
:1003C00045EA030130BDC4F10C04C4F1200220FA57
:1003D00002F001FA04F340EA0300294630BD21FA95
:1003E00004F0294630BD94F0000F83F4801306BF5B
:1003F00081F480110134013D4EE77FEA645C18BF4F
:100400007FEA655C29D094EA050F08BF90EA020FE5
:1004100005D054EA000C04BF1946104630BD91EADD
:10042000030F1EBF0021002030BD5FEA545C05D1E0
:100430004000494128BF41F0004130BD14F580041F
:100440003CBF01F5801130BD01F0004545F0FE4193
:1004500041F470014FF0000030BD7FEA645C1ABFC8
:10046000194610467FEA655C1CBF0B46024650EAFF
:10047000013406BF52EA033591EA030F41F400212B
:1004800030BD00BF90F0000F04BF0021704730B5B1
:100490004FF4806404F132044FF000054FF0000186
:1004A00050E700BF90F0000F04BF0021704730B547
:1004B0004FF4806404F1320410F0004548BF40421C
:1004C0004FF000013EE700BF42004FEAE2014FEA71
:1004D00031014FEA02701FBF12F07F4393F07F4F4C
:1004E00081F06051704732F07F4208BF704793F04F
:1004F0007F4F04BF41F40021704730B54FF4607462
:1005000001F0004521F000411CE700BF50EA010264
:1005100008BF704730B54FF000050AE050EA01020D
:1005200008BF704730B511F0004502D5404261EB7D
:1005300041014FF4806404F132045FEA915C3FF4BE
:10054000D8AE4FF003025FEADC0C18BF03325FEA5B
:10055000DC0C18BF033202EBDC02C2F1200300FA0C
:1005600003FC20FA02F001FA03FE40EA0E0021FA31
:1005700002F11444BDE600BF70B54FF0FF0C4CF41F
:10058000E06C1CEA11541DBF1CEA135594EA0C0FD1
:1005900095EA0C0F00F0DEF82C4481EA030621EA0C
:1005A0004C5123EA4C5350EA013518BF52EA033547
:1005B00041F4801143F4801338D0A0FB02CE4FF0F9
:1005C0000005E1FB02E506F00042E0FB03E54FF029
:1005D0000006E1FB03569CF0000F18BF4EF0010E21
:1005E000A4F1FF04B6F5007F64F5407404D25FEA1D
:1005F0004E0E6D4146EB060642EAC62141EA5551D0
:100600004FEAC52040EA5E504FEACE2EB4F1FD0C11
:1006100088BFBCF5E06F1ED8BEF1004F08BF5FEA8F
:10062000500E50F1000041EB045170BD06F0004641
:1006300046EA010140EA020081EA0301B4EB5C04EE
:10064000C2BFD4EB0C0541EA045170BD41F48011E6
:100650004FF0000E013C00F3AB8014F1360FDEBF0B
:10066000002001F0004170BDC4F10004203C35DAE7
:100670000C341BDC04F11404C4F1200500FA05F36A
:1006800020FA04F001FA05F240EA020001F000420B
:1006900021F0004110EBD37021FA04F642EB060181
:1006A0005EEA430E08BF20EAD37070BDC4F10C04AB
:1006B000C4F1200500FA04F320FA05F001FA04F26F
:1006C00040EA020001F0004110EBD37041F100015B
:1006D0005EEA430E08BF20EAD37070BDC4F1200566
:1006E00000FA05F24EEA020E20FA04F301FA05F2CE
:1006F00043EA020321FA04F001F0004121FA04F276
:1007000020EA020000EBD3705EEA430E08BF20EA45
:10071000D37070BD94F0000F0FD101F0004640007F
:1007200041EB010111F4801F08BF013CF7D041EA01
:10073000060195F0000F18BF704703F00046520005
:1007400043EB030313F4801F08BF013DF7D043EAD6
:100750000603704794EA0C0F0CEA135518BF95EA8C
:100760000C0F0CD050EA410618BF52EA4306D1D113
:1007700081EA030101F000414FF0000070BD50EA32
:10078000410606BF1046194652EA430619D094EABC
:100790000C0F02D150EA013613D195EA0C0F05D1A6
:1007A00052EA03361CBF104619460AD181EA0301FA
:1007B00001F0004141F0FE4141F470014FF00000B2
:1007C00070BD41F0FE4141F4780170BD70B54FF04D
:1007D000FF0C4CF4E06C1CEA11541DBF1CEA1355CD
:1007E00094EA0C0F95EA0C0F00F0A7F8A4EB0504AF
:1007F00081EA030E52EA03354FEA013100F08880A6
:100800004FEA03334FF0805545EA131343EA12636E
:100810004FEA022245EA111545EA10654FEA002623
:100820000EF000419D4208BF964244F1FD0404F5DC
:10083000407402D25B084FEA3202B61A65EB030538
:100840005B084FEA32024FF480104FF4002CB6EBF5
:10085000020E75EB030E22BFB61A754640EA0C0075
:100860005B084FEA3202B6EB020E75EB030E22BFB5
:10087000B61A754640EA5C005B084FEA3202B6EBF6
:10088000020E75EB030E22BFB61A754640EA9C00B5
:100890005B084FEA3202B6EB020E75EB030E22BF85
:1008A000B61A754640EADC0055EA060E18D04FEA43
:1008B000051545EA16754FEA06164FEAC30343EAE3
:1008C00052734FEAC2025FEA1C1CC0D111F4801FB0
:1008D0000BD141EA00014FF000004FF0004CB6E7A9
:1008E00011F4801F04BF01430020B4F1FD0C88BF48
:1008F000BCF5E06F3FF6AFAEB5EB030C04BFB6EB53
:10090000020C5FEA500C50F1000041EB045170BD45
:100910000EF0004E4EEA113114EB5C04C2BFD4EB72
:100920000C0541EA045170BD41F480114FF0000EF6
:10093000013C90E645EA060E8DE60CEA135594EA72
:100940000C0F08BF95EA0C0F3FF43BAF94EA0C0F75
:100950000AD150EA01347FF434AF95EA0C0F7FF4EA
:1009600025AF104619462CE795EA0C0F06D152EA3E
:1009700003353FF4FDAE1046194622E750EA410622
:1009800018BF52EA43067FF4C5AE50EA41047FF433
:100990000DAF52EA43057FF4EBAE12E74FF0FF3C98
:1009A00006E000BF4FF0010C02E000BF4FF0010C69
:1009B0004DF804CD4FEA410C7FEA6C5C4FEA430CE2
:1009C00018BF7FEA6C5C1BD001B050EA410C0CBF31
:1009D00052EA430C91EA030F02BF90EA020F002093
:1009E000704710F1000F91EA030F58BF994208BFFA
:1009F00090422CBFD8176FEAE37040F001007047B7
:100A00004FEA410C7FEA6C5C02D150EA013C07D10D
:100A10004FEA430C7FEA6C5CD6D152EA033CD3D058
:100A20005DF8040B704700BF8446104662468C4652
:100A30001946634600E000BF01B5FFF7B7FF002885
:100A400048BF10F1000F01BD4DF808EDFFF7F4FFAE
:100A50000CBF012000205DF808FB00BF4DF808ED39
:100A6000FFF7EAFF34BF012000205DF808FB00BF5C
:100A70004DF808EDFFF7E0FF94BF012000205DF87E
:100A800008FB00BF4DF808EDFFF7CEFF94BF012033
:100A900000205DF808FB00BF4DF808EDFFF7C4FF2C
:100AA00034BF012000205DF808FB00BF4FEA410C75
:100AB0007FEA6C5C02D150EA013C0AD14FEA430C58
:100AC0007FEA6C5C02D152EA033C02D14FF0000095
:100AD00070474FF0010070474A0011D212F5001222
:100AE00011D20DD56FF47873B3EB62520ED44FEA86
:100AF000C12343F0004343EA505323FA02F0704706
:100B00004FF00000704750EA013002D14FF0FF3043
:100B100070474FF00000704753B94AB9002908BF29
:100B200000281CBF4FF0FF314FF0FF3000F072B9CA
:100B3000ADF1080C6DE904CE00F006F8DDF804E034
:100B4000DDE9022304B070472DE9F047089E044612
:100B50008846002B4BD18A42154667D9B2FA82F2F9
:100B60004AB1C2F1200701FA02F320FA07F79540D3
:100B700047EA030894404FEA154E230CB8FBFEF7F2
:100B80001FFA85FC0EFB178843EA084307FB0CF1AC
:100B9000994209D9EB1807F1FF3080F01B81994287
:100BA00040F21881023F2B445B1AA4B2B3FBFEF063
:100BB0000EFB103344EA034400FB0CFCA44509D9A6
:100BC0002C1900F1FF3380F00781A44540F2048125
:100BD00002382C4440EA0740A4EB0C0400271EB165
:100BE000D4400023C6E900433946BDE8F0878B4274
:100BF00009D9002E00F0EB800027C6E90001384635
:100C00003946BDE8F087B3FA83F7002F47D18B420E
:100C100002D3824200F2FA80841A61EB03030120BE
:100C20009846002EE0D0C6E90048DDE702B9FFDEB5
:100C3000B2FA82F2002A40F08F80491B4FEA154E2B
:100C40001FFA85F80127B1FBFEFC230C0EFB1C11DB
:100C500043EA014308FB0CF1994207D9EB180CF168
:100C6000FF3002D2994200F2CD808446591AA3B2D5
:100C7000B1FBFEF00EFB101443EA044408FB00F83D
:100C8000A04507D92C1900F1FF3302D2A04500F28C
:100C9000B6801846A4EB080440EA0C409FE7C7F171
:100CA000200CBB4022FA0CFE4EEA030E01FA07F4B8
:100CB00020FA0CF521FA0CF34FEA1E482543B3FB4A
:100CC000F8F92C0C08FB19331FFA8EFA44EA034397
:100CD00009FB0AF49C4202FA07F200FA07F10BD969
:100CE0001EEB030309F1FF3080F087809C4240F245
:100CF0008480A9F1020973441B1BADB2B3FBF8F069
:100D000008FB103345EA034400FB0AFAA24508D960
:100D10001EEB040400F1FF336BD2A24569D90238FF
:100D2000744440EA0940A0FB0289A4EB0A044C4544
:100D3000C2464B4654D351D0002E69D0B1EB0A05C0
:100D400064EB030404FA0CFCFD40FC404CEA05058E
:100D5000C6E90054002747E7C2F1200320FA03F751
:100D6000954001FA02F021FA03F34FEA154E384399
:100D7000010CB3FBFEF71FFA85F80EFB173341EAAF
:100D8000034107FB08F38B4204FA02F407D9691800
:100D900007F1FF3C2FD28B422DD9023F2944CB1AB9
:100DA00081B2B3FBFEF00EFB103341EA034100FBBE
:100DB00008F38B4207D9691800F1FF3C17D28B4228
:100DC00015D902382944C91A40EA07473BE7374694
:100DD000304609E70746E7E61846FBE64145ABD251
:100DE000B8EB020A69EB0E0201381346A4E760462D
:100DF000E9E7184695E76746D1E781467CE7023880
:100E00002C4447E7ACF1020C2B442FE7384608E7A7
:100E10003746E9E6704700BF000000000000000010
:100E200000000000000000000000000000000000C2
:100E300000000000000000000000000000000000B2
:100E400090F800F06DE9024520F007016FF0000C0A
:100E500010F0070491F820F040F049804FF00004B2
:100E60006FF00700D1E9002391F840F000F108008D
:100E700082FA4CF2A4FA8CF283FA4CF3A2FA8CF3C5
:100E80004BBBD1E9022382FA4CF200F10800A4FA2C
:100E90008CF283FA4CF3A2FA8CF3E3B9D1E9042380
:100EA00082FA4CF200F10800A4FA8CF283FA4CF3B7
:100EB000A2FA8CF37BB9D1E9062301F1200182FA71
:100EC0004CF200F10800A4FA8CF283FA4CF3A2FA77
:100ED0008CF3002BC6D0002A04BF04301A4612BA85
:100EE000B2FA82F2FDE8024500EBD2007047D1E988
:100EF000002304F00305C4F100004FEAC50514F017
:100F0000040F91F840F00CFA05F562EA05021CBFE7
:100F100063EA050362464FF00004A9E710B50446F2
:100F20000E4B18784FF47A73B3FBF0F30C4A106849
:100F3000B0FBF3F000F0D0F868B90F2C01D9012014
:100F40000AE0002221464FF0FF3000F069F8034B21
:100F50005C60002000E0012010BD00BF0000002008
:100F60000800002008B50B4B1A6842F400721A60A2
:100F70001A6842F480621A601A6842F480721A6039
:100F8000032000F02FF80020FFF7C8FF00F096FFC5
:100F9000002008BD003C0240034A1168034B1B7847
:100FA0000B441360704700BF6C0900200000002054
:100FB000014B1868704700BF6C09002038B5044623
:100FC000FFF7F6FF0546B4F1FF3F02D0044B1B7854
:100FD0001C44FFF7EDFF401BA042FAD338BD00BF11
:100FE0000000002010B50446C31E042B0FD80A4A87
:100FF000D36823F4E0631B041B0C240204F4E064B4
:10100000234343F0BF6343F40033D36010BDA221F8
:10101000024800F051FFEAE700ED00E02848000830
:1010200070B505460C4616460F2A25D80F2C28D831
:101030001B4BDB68C3F30223C3F10702042A28BF5A
:101040000422191D062921D9033B4FF0FF3101FA73
:1010500002F224EA02049C4001FA03F326EA0306A2
:101060003443002D14DB2401E4B205F1604505F59D
:10107000614585F8004370BDBA210A4800F01CFFA5
:10108000D4E7BB21074800F017FFD1E70023DCE7D6
:1010900005F00F052401E4B2034B5C55EBE700BFFC
:1010A00000ED00E02848000814ED00E010B5041E33
:1010B00008DB04F01F02640901239340044A42F84C
:1010C000243010BDCE21034800F0F6FEF1E700BF4A
:1010D00000E100E0284800080138B0F1807F0AD222
:1010E000064B5860064AF02182F8231000209860D1
:1010F00007221A6070470120704700BF10E000E02F
:1011000000ED00E010B50446042800D038B9042CE6
:101110000BD0094A136823F00403136010BD40F29A
:10112000D911064800F0C8FEF1E7034A136843F0FE
:1011300004031360F2E700BF10E000E02848000855
:10114000704708B5FFF7FCFF08BD00002DE9F04728
:1011500082B080460E46A44B984217D003F58063B8
:10116000984213D003F5806398420FD003F5806353
:1011700098420BD003F58063984207D003F5406393
:10118000984203D0C321994800F096FE33689AB282
:1011900012B11B0C1B041BB1C421944800F08CFE3F
:1011A0007368012B1ED9112B1CD0022B1AD0122BC5
:1011B00018D08F4A934215D002F58012934211D075
:1011C00002F5801293420DD0A2F5F812934209D095
:1011D00002F58012934205D002F58012934201D0AD
:1011E000032B04D1B368022B06D8002445E0C521A7
:1011F0007E4800F061FEF5E7C6217C4800F05CFE09
:10120000F3E7EA21794800F057FE90E0042300E07C
:1012100000238B4003430232764941F82230764B5B
:101220001A68FB4303EA0201706810F4803F01D0A2
:1012300047EA0201704A1160526803EA02017068CD
:1012400010F4003F01D047EA02016B4A51609268F6
:1012500003EA0201706810F4801F01D047EA02011E
:10126000654A9160D2681340716811F4001F01D083
:1012700047EA0203604AD36001340F2C00F2B080C9
:101280000125A54037682F40BD42F5D17368022B78
:1012900001D0122B2BD13369CBB1092B17D0012BE5
:1012A00015D0022B13D0042B11D0052B0FD0062BF9
:1012B0000DD0072B0BD0082B09D00A2B07D00C2BF5
:1012C00005D00F2B03D0D721484800F0F5FDE208E8
:1012D000083258F8220004F0070399000F238B40CE
:1012E00020EA030033698B40034348F82230D8F8E2
:1012F00000204FEA440A4FF0030909FA0AF96FEA9D
:10130000090909EA0202736803F0030303FA0AF306
:101310001343C8F8003073685A1E012A03D9112BF1
:1013200001D0122B18D1F368032B3FF66AAFD8F81F
:10133000082009EA0202F36803FA0AF31343C8F823
:101340000830D8F8042022EA05027368C3F30015B8
:10135000A5401543C8F80450D8F80C3009EA030931
:10136000B36803FA0AF343EA0903C8F80C30736858
:1013700013F0805F80D000230193204B5A6C42F41D
:1013800080425A645B6C03F480430193019BA20882
:10139000911C184B53F8210004F0030399000F230C
:1013A0008B4020EA0300104B98453FF431AF03F522
:1013B000806398450ED003F5806398450CD003F503
:1013C000806398450AD003F5806398453FF41EAFCB
:1013D00007231EE701231CE702231AE7032318E76C
:1013E00002B0BDE8F08700BF00000240644800087A
:1013F0000000111000380140003C0140003802405C
:1014000070B5064615460C4629B1012D09D875B9A7
:101410002404B46170BD40F2AF11064800F04CFDE9
:10142000F3E74FF4D871034800F046FDEFE7B461ED
:10143000F0E700BF6448000808B5054B5B6903424C
:1014400000D108BD024B586100F05CFCF9E700BF19
:10145000003C0140002800F03B8270B582B0044699
:1014600003680F2B39D8236813F0010F4DD0636840
:101470002BB1B3F5803F02D0B3F5A02F32D1A54BED
:101480009B6803F00C03042B36D0A24B9B6803F03F
:101490000C03082B2BD06368B3F5803F5FD0B3F506
:1014A000A02F62D09B4B1A6822F480321A601A680F
:1014B00022F480221A606368002B60D0FFF778FD69
:1014C0000546944B1B6813F4003F1ED1FFF770FDD7
:1014D000401B6428F5D90320FFE1F8218E4800F075
:1014E000EBFCC0E7FD218C4800F0E6FCC7E7894B28
:1014F0005B6813F4800FCED0864B1B6813F4003F5B
:1015000003D06368002B00F0E581236813F0020F1D
:1015100067D0E368012B41D823691F2B44D87D4B4A
:101520009B6813F00C0F4AD07A4B9B6803F00C03B6
:10153000082B3FD0E368002B77D0784B01221A604C
:10154000FFF736FD0546734B1B6813F0020F63D19E
:10155000FFF72EFD401B0228F5D90320BDE16D4A9F
:10156000136843F480331360A5E76A4B1A6842F4AA
:1015700080221A601A6842F480321A609BE7FFF7F3
:1015800017FD0546634B1B6813F4003FBDD0FFF702
:101590000FFD401B6428F5D903209EE140F22F1176
:1015A0005D4800F089FCB7E74FF498715A4800F0A5
:1015B00083FCB4E7574B5B6813F4800FBAD1554BEB
:1015C0001B6813F0020F04D0E368012B01D0012047
:1015D00083E1504A136823F0F803216943EAC10309
:1015E0001360236813F0080F49D06369012B2ED8CC
:1015F000636993B34A4B01221A60FFF7D9FC054691
:10160000444B5B6F13F0020F39D1FFF7D1FC401B45
:101610000228F5D9032060E13E4A136823F0F8035D
:10162000216943EAC1031360DBE73C4B00221A60E7
:10163000FFF7BEFC0546374B1B6813F0020FD0D0F6
:10164000FFF7B6FC401B0228F5D9032045E14FF413
:10165000B871314800F030FCCAE7314B00221A6003
:10166000FFF7A6FC05462B4B5B6F13F0020F06D06D
:10167000FFF79EFC401B0228F5D903202DE12368CB
:1016800013F0040F00F08780A368012B01D9052B0C
:1016900038D1204B1B6C13F0805F39D100230193AC
:1016A0001C4B1A6C42F080521A641B6C03F080537E
:1016B0000193019B01251B4B1B6813F4807F33D0E2
:1016C000A368012B44D0052B48D0124B1A6F22F08F
:1016D00001021A671A6F22F004021A67A368002B2E
:1016E00046D0FFF765FC06460A4B1B6F13F0020F4E
:1016F0004FD1FFF75DFC801B41F288339842F3D94C
:101700000320EAE04FF4CE71034800F0D5FBC0E7B8
:101710000025D0E700380240A048000800004742FA
:10172000800E4742007000406E4A136843F4807395
:101730001360FFF73DFC06466A4B1B6813F4807F7D
:10174000BED1FFF735FC801B0228F5D90320C4E089
:10175000654A136F43F001031367BFE7624B1A6FCB
:1017600042F004021A671A6F42F001021A67B5E7E5
:10177000FFF71EFC06465C4B1B6F13F0020F08D0F0
:10178000FFF716FC801B41F288339842F3D90320FF
:10179000A3E0002D3AD1A369022B3DD8A369002B09
:1017A00000F09A80504A926802F00C02082A00F079
:1017B0009680022B78D1E36913B1B3F5800F31D154
:1017C000236A3F2B34D8636AC03BF02B36D8A36A18
:1017D000022B05D0042B03D0062B01D0082B33D1CC
:1017E000E36A023B0D2B35D8404B00221A60FFF70D
:1017F000DFFB05463C4B1B6813F0007F30D0FFF742
:10180000D7FB401B0228F5D9032066E0364A136C4B
:1018100023F080531364BEE740F2DF11344800F038
:101820004BFBBBE74FF4F471314800F045FBC7E7D1
:1018300040F2E9112E4800F03FFBC4E74FF4F57188
:101840002B4800F039FBC2E740F2EB11284800F0CA
:1018500033FBC5E74FF4F671254800F02DFBC3E7D5
:10186000E369226A1343626A43EA8213A26A520856
:10187000013A43EA0243E26A43EA02631A4A5360C6
:101880001A4B01221A60FFF793FB0446164B1B68A4
:1018900013F0007F06D1FFF78BFB001B0228F5D960
:1018A00003201AE0002018E0104B00221A60FFF716
:1018B0007FFB04460C4B1B6813F0007F06D0FFF73C
:1018C00077FB001B0228F5D9032006E0002004E086
:1018D00001207047012000E0002002B070BD01200F
:1018E000FBE700BF00700040003802406000474244
:1018F000A0480008264B9B6803F00C03042B44D03F
:10190000082B01D0234870472DE9F04B204B5A6833
:1019100002F03F025B6813F4800F13D01C4B596830
:10192000C1F3881100231C48A1FB0001FFF7F4F864
:10193000174B5B68C3F3014301335B00B0FBF3F06B
:10194000BDE8F08B124B5B68C3F388131E4600277B
:101950005C010025E41A65EB0705A90141EA9461E1
:10196000A001001B61EB0501CB0043EA5073C400EA
:10197000A01943EB07018B0243EA905384022046EF
:1019800019460023FFF7C8F8D2E70348704700BFA5
:10199000003802400024F40040787D01002800F067
:1019A000F98070B504460D460368013B0E2B11D833
:1019B000072D15D8794B1B6803F00F03AB4215D2E6
:1019C000EBB2764A1370136803F00F03AB420DD0ED
:1019D000012070BD4FF41471714800F06DFAE7E713
:1019E00040F251216E4800F067FAE3E7236813F0F4
:1019F000020F29D013F0040F04D06A4A936843F40D
:101A0000E0539360236813F0080F04D0654A93688D
:101A100043F460439360A3687BB1802B0DD0902B7F
:101A20000BD0A02B09D0B02B07D0C02B05D0D02BCA
:101A300003D0E02B01D0F02B33D15A4A936823F026
:101A4000F003A1680B439360236813F0010F42D0A9
:101A50006368032B2BD86368012B2ED09A1E012AB2
:101A600032D9504A126812F0020F00F095804D49A9
:101A70008A6822F0030213438B60FFF799FA064647
:101A8000484B9B6803F00C036268B3EB820F22D0D3
:101A9000FFF78EFA801B41F288339842F0D9032079
:101AA00097E74FF41D713E4800F006FAC5E740F293
:101AB0007B213B4800F000FACDE73A4A126812F465
:101AC000003FD4D1012084E7364A126812F0007F2B
:101AD000CDD101207DE7314B1B6803F00F03AB42F2
:101AE00009D9EAB22D4B1A701B6803F00F03AB4201
:101AF00001D001206DE7236813F0040F14D0E368D0
:101B00005BB1B3F5805F08D0B3F5A05F05D0B3F546
:101B1000C05F02D0B3F5E05F30D1224A936823F46E
:101B2000E053E1680B439360236813F0080F15D06E
:101B300023695BB1B3F5805F08D0B3F5A05F05D032
:101B4000B3F5C05F02D0B3F5E05F1DD1154A9368CD
:101B500023F46043216943EAC1039360FFF7CAFE9F
:101B6000104B9B68C3F303130F4AD35CD8400F4B51
:101B700018600020FFF7D2F900202AE740F2B921CF
:101B8000074800F099F9C8E74FF43071044800F0B5
:101B900093F9DBE70120704701201AE7003C02407F
:101BA000A048000800380240104800080800002043
:101BB000014B1868704700BF080000202DE9F04174
:101BC0008CB000240194484B1A6B42F010021A6347
:101BD0001A6B02F010020192019A02941A6B42F001
:101BE00004021A631A6B02F004020292029A03942E
:101BF0001A6B42F080021A631A6B02F080020392A1
:101C0000039A04941A6B42F001021A631A6B02F0F1
:101C100001020492049A05941A6B42F002021A63BC
:101C20001A6B02F002020592059A06941A6B42F0B2
:101C300008021A631B6B03F008030693069B2B4EE6
:101C400022464FF4FC513046FFF7DAFB4EF27F0399
:101C5000079303250895099407A93046FFF776FAFC
:101C600043F6FF7307930895099407A92048FFF7E7
:101C70006DFA012707971F4B08930994DFF88080BE
:101C800007A94046FFF762FA49F6FE7307930895E5
:101C9000099407A94046FFF759FA4FF2FF730793DB
:101CA0000895099407A91448FFF750FA4FF4FC531C
:101CB0000793089709940A9407A93046FFF746FA54
:101CC0004FF6FF7307930895099407A90B48FFF790
:101CD0003DFA224621460620FFF7A2F90620FFF72B
:101CE000E5F90CB0BDE8F081003802400010024078
:101CF000000802400000311000040240000C0240C5
:101D000000000240012800D0704708B5FFF750F9E5
:101D10000B4B1B68C01A312800D808BDFFF748F9E3
:101D2000074B18605B681BB9054B01225A60F4E74A
:101D3000034B00225A609A6801329A60EDE700BFB7
:101D40007C08002038B50446182001F09FFA18B12D
:101D500005460022052308E04FF0FF3001F062FA4B
:101D6000002145F822100132013B002B0ADB44FA26
:101D700003F101FA03F0241A0029F1D0012145F8FA
:101D80002210F0E7284638BD70B5FFF7DBFF0646A6
:101D9000002418E02046FEF785FB41EC110B9FED77
:101DA0000C0B00F039F900220B4B51EC100BFEF735
:101DB000E3FB16F82450FEF78FFE2A4681B207484F
:101DC000FFF71EFB0134052CE4DD70BDAFF300808E
:101DD00000000000000000400000604000100240D1
:101DE000FEE7000000B595B000230193234A116C73
:101DF00041F080511164126C02F080520192019AFC
:101E000002931F4A116841F440411160126802F4C4
:101E100040420292029A0222089201220B92102260
:101E20000C920E9308A8FFF715FBF0B90F2303934C
:101E30000021049105910691079103A8FFF7AEFDDB
:101E4000B8B9FFF7B5FE0F4BA3FB00308009FFF7D1
:101E500043F90420FFF756F9002211464FF0FF30F6
:101E6000FFF7DEF815B05DF804FBC1210648FFF767
:101E7000B7FFCF210448FFF7B3FF00BF003802408F
:101E800000700040D34D6210D848000808B502F039
:101E9000DBF9FFF767F8FFF7A5FFFFF78FFE72B6D4
:101EA000044B9868FFF770FF62B63220FFF786F8A0
:101EB000F5E700BF7C0800207047000010B582B035
:101EC00000240094214B5A6C42F480425A645A6CAC
:101ED00002F480420092009A01941A6C42F08052FF
:101EE0001A641B6C03F080530193019B0320FFF7DE
:101EF00079F8224621466FF00B00FFF791F8224651
:101F000021466FF00A00FFF78BF8224621466FF05A
:101F10000900FFF785F8224621466FF00400FFF71D
:101F20007FF8224621466FF00300FFF779F822463A
:101F300021466FF00100FFF773F8224621464FF06B
:101F4000FF30FFF76DF802B010BD00BF003802404F
:101F50007047FEE7FEE7FEE7FEE770477047704711
:101F600008B5FFF719F8FFF7ECF808BD08B5012030
:101F7000FFF762FA08BD00000F49D1F8883043F43A
:101F80007003C1F888300D4B1A6842F001021A60E4
:101F9000002098601A6822F0847222F480321A605D
:101FA000074A5A601A6822F480221A60D8604FF0FB
:101FB00000638B60704700BF00ED00E00038024016
:101FC00010300024DFF834D0002103E00C4B5B58C4
:101FD000435004310B480C4B42189A42F6D30B4A3B
:101FE00002E0002342F8043B094B9A42F9D3FFF781
:101FF000C3FF01F027F9FFF749FF704700000220F7
:10200000344900080000002060080020600800201B
:1020100098090020FEE700002DE9F04F2DED028B1E
:10202000DFF824A38BB057EC106B55EC114B00F08C
:102030008FF99AF90080B0EE408AF0EE608AB8F12C
:10204000FF3F33D022462B4620462946FEF72EFD81
:10205000834658BB32463B4630463946FEF726FD9E
:102060008146002866D13046394600220023FEF71B
:10207000EBFC20B30022002320462946FEF7E4FCB7
:10208000834600287DD09FEDA67B0122AA4BCDF888
:1020900020900092CDE90267CDE904458DED067BE5
:1020A0000193B8F1000F5ED09FED9F8BB0EE480A10
:1020B000F0EE680A0BB0BDEC028BBDE8F08FB0EE1D
:1020C000480AF0EE680A00F073FF8046002800F02E
:1020D00082804FF000084FF0000951EC180B424687
:1020E0004B46FEF7B1FC0028E0D047EC106B00F047
:1020F0005FFF0028DAD045EC104B00F059FF0028B4
:10210000D4D09AF900308C4A019204210022022B8B
:10211000CDE90267CDE90445CDE906890091089231
:1021200003D0684600F04CFF10BB01F075F8222385
:1021300003601DE00022002320462946FEF784FCB0
:102140000028B3D09FED788B01227B4BCDF820B0D7
:10215000B8F1020F0092CDE90267CDE904458DED9B
:10216000068B0193A2D0684600F02AFF002878D0A1
:10217000089B1BB101F050F8089B03609DED068B96
:1021800094E745EC104B00F013FF00288ED000229E
:10219000002320462946FEF761FC002886D0664AC7
:1021A0009AF90030CDF820B00121CDE90267CDE9E0
:1021B0000445CDE90012002B58D060490020022BC5
:1021C000CDE9060156D101F027F821230360089BD1
:1021D000002BD3D0CEE747EC106B00F0E9FE0028CF
:1021E0003FF477AF45EC104B00F0E2FE00283FF4DF
:1021F00070AF53EC182B18EE100A1946FEF756FC78
:102200009AF9009000286FD10323DFF82CC10890C1
:102210002946204600930022494BCDF804C0CDE961
:102220000445CDE90267FEF7A7F904460D46B9F16A
:10223000000F25D1DFF814914FF0604800220023F1
:1022400030463946CDE90689FEF708FC38BB6846BA
:1022500000F0B6FE0028BAD100F0DEFF22230360B2
:10226000B5E700F0D9FF2123036081E79FED2C7BC8
:102270008DED067B684600F0A3FE0028A7D1A2E7FB
:102280009FED2B7B00220023304639468DED067BE7
:10229000FEF7E4FBB0B9B9F1020FDDD0D7E745ECAA
:1022A000104B00F099FE22462B4651EC100BFEF726
:1022B000CBFBB0B9234B9AF900904FF06042CDE9C7
:1022C0000623E8E745EC104B00F086FE22462B463D
:1022D00051EC100BFEF7B8FB18B9184B0022CDE9F2
:1022E00006239AF90090D6E70122134BCDF82080FF
:1022F0000092CDE90267CDE904450193B9F1000FE1
:10230000B4D00022002310461946FEF75FFAB9F157
:10231000020FCDE906013FF456AFABE7AFF3008003
:102320000000000000000000000000000000F03F7E
:10233000000000000000F07FE84800080000F0FF07
:102340000000E03FFFFFEFC70C000020FFFFEF475A
:102350002DE9F04F51EC110B21F0004555EA000337
:1023600093B010D059EC108B6D4B29F000449C4277
:102370004E4610EE10AA0DDD04F1404404F5801421
:1023800054EA0A0356D16749002041EC100B13B000
:10239000BDE8F08F0F4611EE10CA48D09D42EBDC2D
:1023A0005F4B9D425FD0002ECDE900015FDB4FF017
:1023B000000BBCF1000F0ED1594B9D4243D0594B3D
:1023C0009D4200F08C80B7F1804F00F09E80564B0C
:1023D0009F4200F0B88349EC108B00F0DFFD51EC18
:1023E000100BBAF1000F06D1002C5AD04D4B26F03D
:1023F00040429A4255D0F60F06F1FF3A5BEA0A03D3
:1024000073D04A4B9D4240F3998003F104739D427F
:1024100040F33884464B9C4272DD002F72DD3EA3B0
:10242000D3E9002310461946FEF7A6F8ADE7B8F148
:10243000000F05D03F4813B0BDE8F04F00F0C4BD19
:10244000A542F7DCACE704F1404303F5801353EAFF
:102450000A0398D0364B9C4240F37F83002F51DB18
:10246000DDE9000191E7BCF1000F9CD084E7324B1D
:102470009D4231DCA3F154739D4298DD2B15A3F2EC
:10248000FF33142B40F3A183C3F134032CFA03F27E
:1024900002FA03F363458AD102F00102C2F1020B92
:1024A00087E7002F05DA02460B4600201D49FEF79C
:1024B0008DF9002EBFF669AF04F1404404F5801495
:1024C00054EA0B0300F03A84BBF1010F7FF45DAFD7
:1024D00001F10043194658E74FF0020B69E7002F5E
:1024E000C0F24483404649464FE742464B461046B9
:1024F0001946FDF789FE02460B46FEF767F944E7E9
:10250000002F8CDB002000213FE742464B4640462F
:102510004946FEF731F838E79C7500883CE4377E81
:102520000000F07F0000F03F0000E03F0000E041CD
:10253000FFFFEF3F9C480008FFFF3F43B4F5801FBB
:1025400080F260830022D04BFEF716F86FF034065D
:102550000C462315CD4AC4F31304A3F2FF3344F011
:102560007F559E1994420D9645F4401540F33D83E6
:10257000C74B9C4240F301849FEDAD7B8DED087B02
:102580008DED107B9FEDAC7B8DED067B01360D96BE
:10259000A5F580154FF00008DDE90623294606461B
:1025A000FDF732FEDDE90623CDE90A013046294672
:1025B000FDF72CFE02460B460020B649FEF706F951
:1025C00003460C46CDE90E3402460B46DDE90A010E
:1025D000FDF7D2FF6B1043F0005303F500230A46CA
:1025E0002F46014603EB08050023CDE902120293B2
:1025F000DDE902890024CDE904122B46224640463B
:102600004946FDF7B9FF02460B46DDE90A01FDF731
:10261000FBFDDDE90623CDE90A0120462946FDF749
:10262000F3FD02460B4630463946FDF7EDFD4246C6
:102630004B46FDF7A1FF02460B46DDE90A01FDF717
:10264000E3FDDDE90E23FDF797FFDDE90445CDE964
:10265000060122462B4620462946FDF78DFF78A32A
:10266000D3E9002304460D46FDF786FF76A3D3E9A0
:102670000023FDF7CBFD22462B46FDF77DFF74A31B
:10268000D3E90023FDF7C2FD22462B46FDF774FF78
:1026900071A3D3E90023FDF7B9FD22462B46FDF7D0
:1026A0006BFF6FA3D3E90023FDF7B0FD22462B4655
:1026B000FDF762FF6CA3D3E90023FDF7A7FD2246D7
:1026C00006460F462B4620462946FDF755FF024693
:1026D0000B4630463946FDF74FFF424604460D464D
:1026E0004B46DDE90401FDF791FDDDE90623FDF729
:1026F00043FF22462B46FDF789FD424606460F461C
:102700004B4640464946FDF737FF0022624BCDE974
:102710000A01FDF77BFD32463B46FDF777FD029847
:102720000D46044622462B4640464946FDF724FF07
:10273000002280468946584B20462946FDF764FD15
:10274000DDE90A23FDF760FD02460B4630463946B7
:10275000FDF75AFDDDE90423FDF70EFF224606468C
:102760000F462B46DDE90601FDF706FF02460B4644
:1027700030463946FDF74AFD06460F4602460B46EF
:1027800040464946FDF742FD029839A3D3E90023AC
:1027900004460D46FDF7F0FE4246CDE904014B46E6
:1027A00020462946FDF730FD02460B4630463946A5
:1027B000FDF72AFD30A3D3E90023FDF7DDFE30A3AA
:1027C000D3E9002306460F4620462946FDF7D4FEEE
:1027D00002460B4630463946FDF718FDDDE9102369
:1027E000FDF714FD06460D980F46FDF75BFE3246D9
:1027F000804689463B46DDE90401FDF707FDDDE93A
:102800000823FDF703FD42464B46FDF7FFFC029807
:1028100042464B4604460D46FDF7F6FCDDE908232B
:10282000FDF7F2FCDDE9042338E000BFAFF30080E0
:102830000000000000000000000000000000F03F69
:10284000EF4E454A287ECA3F65DBC9934A86CD3F95
:1028500001411DA96074D13F4D268F515555D53F7B
:10286000FFAB6FDBB66DDB3F033333333333E33F13
:10287000000000E009C7EE3FFD033ADC09C7EE3F68
:10288000F5015B14E02F3EBE000040438E9803002C
:1028900079B60B000000F03F00000840FDF7B4FCE3
:1028A0000B46024639463046FDF7AEFC0BF1FF33CE
:1028B00053EA0A03CDE9040100F05F819FEDD27B6A
:1028C0008DED027BDDE900AB002356465F46CDE986
:1028D00000670093DDE90067504632463B465946A3
:1028E000FDF792FC22462B46FDF746FE52468046F7
:1028F00089465B46DDE90401FDF73EFE02460B46D4
:1029000040464946FDF782FC3246804689463B46B2
:1029100020462946CDE90489FDF72EFE0B460246E6
:1029200006460F4640464946FDF770FCD04B99429B
:1029300004460D468A4640F3258101F13F4303F5E5
:10294000E003034340F0FE81B1A3D3E90023DDE9B6
:102950000401FDF75BFC3246804689463B46204633
:102960002946FDF751FC02460B4640464946FEF714
:1029700093F8002840F0E681A8464FEA2853A3F2D6
:10298000FE324FF4801313415344C3F30A52B94D3E
:10299000A2F2FF321541C3F3130423EA050100201C
:1029A000C2F1140B44F48014BAF1000F02460B4636
:1029B00044FA0BFB30463946B8BFCBF1000BFDF7AC
:1029C00023FC06460F463246DDE904013B46FDF78F
:1029D0001DFC4FEA0B5A0D4600248FA3D3E90023B8
:1029E00020462946FDF7C8FD3246804689463B46CB
:1029F00020462946FDF708FC02460B46DDE90401A6
:102A0000FDF702FC86A3D3E90023FDF7B5FD86A3FD
:102A1000D3E9002306460F4620462946FDF7ACFDC4
:102A200002460B4630463946FDF7F0FB06460F4698
:102A300002460B4640464946FDF7E8FB42464B46F8
:102A400004460D46FDF7E0FB02460B46304639468C
:102A5000FDF7DAFB2246804689462B46204629466A
:102A6000FDF78AFD72A3D3E9002306460F46FDF762
:102A700083FD71A3D3E90023FDF7C6FB32463B4635
:102A8000FDF77AFD6EA3D3E90023FDF7BFFB3246C5
:102A90003B46FDF771FD6CA3D3E90023FDF7B4FBC2
:102AA00032463B46FDF768FD69A3D3E90023FDF7F5
:102AB000ADFB32463B46FDF75FFD02460B46204626
:102AC0002946FDF7A1FB06460F4602460B46204667
:102AD0002946FDF751FD0022CDE900014FF080436A
:102AE00030463946FDF790FB02460B46DDE9000112
:102AF000FDF76CFE424606460F464B4620462946E9
:102B0000FDF73AFD42464B46FDF780FB02460B4679
:102B100030463946FDF778FB22462B46FDF774FB1D
:102B200002460B4600205449FDF76EFB8A44BAF575
:102B3000801F02460B46C0F230815146DDE9022378
:102B4000FDF71AFD21E4002EFFF645AC49EC108B91
:102B500013B0BDE8F04F00F057B9002FBFF6D2AC6C
:102B6000DDE90034184604F100410EE442464B46CC
:102B700000204149FDF72AFE07E49FED377B8DEDEC
:102B8000027B9FE63D4B21F00048984540F3E880EA
:102B90003B4B0B4403430AD132463B46FDF734FB23
:102BA000DDE90423FDF76EFF00283FF4E6AEDDE922
:102BB00002012BA3D3E90023FDF7DEFC28A3D3E910
:102BC0000023FDF7D9FCFFF7E0BBBCF1000F40F09C
:102BD000D080C3F1140345FA03F202FA03F3AB42C7
:102BE00000F0E380E346FFF7EABB9FED1F7B8DED2E
:102BF000087B8DED107B9FED047B4FF000088DED81
:102C0000067BC9E40026A4E4000000000000F03FB9
:102C1000FE822B654715973C00000000432EE63FDF
:102C2000EF39FAFE422EE63F396CA80C615C20BEFB
:102C3000D0A4BE726937663EF16BD2C541BDBB3EC2
:102C40002CDE25AF6A56113F93BDBE166CC1663FA0
:102C50003E5555555555C53F000000000000F0BFDA
:102C600059F3F8C21F6EA50100000000000000002B
:102C7000FFFF8F40FFFF0F000000F03FFFCB9040B1
:102C800000346F3F5C4B9C427FF73AAC5B4B9C42FD
:102C90003FF7C3AB0022594BFDF7B6FA46A3D3E981
:102CA000002304460D46FDF767FC45A3D3E9002346
:102CB0008046894620462946FDF75EFC0022CDE984
:102CC00002014F4B20462946FDF756FC02460B46B3
:102CD0003DA1D1E90001FDF797FA22462B46FDF709
:102CE0004BFC02460B4600204649FDF78DFA224672
:102CF00006460F462B4620462946FDF73DFC024678
:102D00000B4630463946FDF737FC31A3D3E90023A3
:102D1000FDF732FC02460B46DDE90201FDF774FACD
:102D200002460B4606460F4640464946FDF76EFAF8
:102D3000002004460D4642464B46AFE502460B4690
:102D4000FFF7D5BBDDE9020123A3D3E90023FDF79B
:102D500013FC21A3D3E90023FDF70EFCFFF715BBFD
:102D6000284B98453FF709AEDDE90023924693468C
:102D700032E64FF0000BFFF72EBB9FED197B8DED78
:102D8000087B9FED197B8DED107B9FED197B4FF438
:102D900080288DED067BFFF7FFBB584643EC102BD8
:102DA00000F0A2F951EC100BC8E602F00102C2F1EA
:102DB000020BFFF704BB00BF000000604715F73FA0
:102DC00044DF5DF80BAE543E555555555555D53F2E
:102DD000FE822B654715F73F9C7500883CE4377EE3
:102DE0000000004003B8E23F06D0CF43EBFD4C3E6D
:102DF000000000000000F83FFEFFEF3F0000F03F42
:102E00000000D03F0000E03F2DE9F041624A57EC5E
:102E1000106BBA4300F09580002F3B4610EE101A5D
:102E2000344654DD3F1500F0AF80C3F31303A7F21F
:102E3000FF3743F48013E20FF90702EB43034FEA35
:102E4000440503D5ED0F05EB4303A50000267F10D5
:102E5000B44616224FF400110CEB010098424FEAE1
:102E6000D5744FEA450503DC1B1A00EB010C0E4438
:102E7000013A04EB43034FEA5101EDD11046964667
:102E800020244FF0004209E052D05B00013C03EBEC
:102E9000D5734FEA52024FEA450536D0634502EB3F
:102EA0000E01F1DD002901EB020E0ADBE046A3EB87
:102EB0000C03A94288BF03F1FF336D1A1044C446C6
:102EC000E3E7BEF1000FF1DB0CF10108EFE727F0BB
:102ED000004232432AD0002F49D1CA0A153B490586
:102EE000002AFAD012F4801001D050E0204652009F
:102EF000D50200F10104F9D5C4F1200501FA04F46A
:102F0000E9401F1A41EA02038FE72B4329D1440805
:102F10007110F30701F17F5101F5001148BF44F032
:102F2000004401EB0753224643EC102BBDE8F0812F
:102F3000A942AAD8002901EB020EC2DB9846002361
:102F4000BBE710EE102A3B4610EE100A3946FDF79B
:102F500013FB32463B46FDF759F941EC100BBDE837
:102F6000F081421C16BF421C01365408D0E710EE17
:102F7000102A30463946FDF747F902460B46FDF761
:102F800025FC41EC100BD1E71A463B46AAE70C465C
:102F900020254FF0FF30B3E70000F07F51EC100B1D
:102FA00010EE102A21F0004343EC102B704700BFB5
:102FB00010EE903A43F0004000F58010C00F7047CB
:102FC00000207047000000009FED010B704700BF1C
:102FD000000000000000F87FF0B551EC100BC1F3C9
:102FE0000A55A5F2FF32132A83B00B464FEAD17679
:102FF00010EE104A2FDC002A4ADB394D154101EA58
:103000000507074323D06D0829400C430CD04FF42B
:103010008021132A23EA050541FA02F343EA050356
:103020000CBF4FF0004400242E4A02EBC606204697
:10303000D6E90045024629462046FDF7E7F8CDE9E6
:10304000000122462B46DDE90001FDF7DDF841ECE9
:10305000100B03B0F0BD332A07DDB2F5806FF6D157
:1030600010EE102AFDF7D2F8F1E7A5F213454FF064
:10307000FF32EA401042EAD052081042D4D04FF05A
:10308000804124EA020241FA05F542EA0504CBE751
:1030900021F000420243DAD0C1F31302024354424A
:1030A000104D1443240B05EBC6004F0C04F4002113
:1030B000D0E900457F0410EE102A41EA07032046BC
:1030C0002946FDF7A3F8CDE900012B462246DDE9AC
:1030D0000001FDF799F821F0004343EAC671B6E715
:1030E000FFFF0F00F048000838B553EC102BC3F376
:1030F0000A511C46054629BB10EE101A23F0004465
:1031000021431ED019460022394B3A4C10EE100ACA
:10311000FDF732FAA54202460B4636DB0C46C1F3F8
:103120000A513639294440F2FE70814235DC0029CB
:1031300014DD24F0FF4424F4E00444EA015343EC9A
:10314000102B38BD40F2FF708142EBD110EE100A17
:103150001946FDF75BF841EC100B38BD11F1350F46
:103160001EDA4CF250318D4243EC112B28DD9FEDDD
:103170001C0B00F043F81AA3D3E9002351EC100B09
:10318000FDF7FAF941EC100B38BD17A3D3E9002382
:10319000FDF7F2F941EC100B38BD43EC112BE6E7DB
:1031A00024F0FF4424F4E004363144EA015310468D
:1031B00019460022104BFDF7DFF941EC100B38BD2A
:1031C0009FED090B00F01AF807A3D3E9002351EC97
:1031D000100BFDF7D1F941EC100B38BDAFF30080B7
:1031E0009C7500883CE4377E59F3F8C21F6EA50138
:1031F00000005043B03CFFFF0000903C53EC102B0C
:1032000011EE900A23F0004100F0004041EA000373
:1032100043EC102B704700BF014B1868704700BF8C
:103220001000002008B50021044600F055FB044BB7
:103230001868C36B03B19847204601F083F800BFBC
:103240000049000870B50D4E0D4D761BB61006D026
:103250000024013455F8043B9847A642F9D1094EA1
:10326000094D761B01F0C8FAB61006D000240134CF
:1032700055F8043B9847A642F9D170BD284900088B
:10328000284900083049000828490008024B014637
:10329000186800F00BB800BF10000020024B014678
:1032A000186800F0FDBB00BF100000202DE9F04FB2
:1032B00001F10B05162D83B0064623D8102900F224
:1032C000B98000F0E1FA102518230220C54F3B44D5
:1032D000A3F108025C68944200F06681636823F001
:1032E00003032344D4E902515A68E96042F0010221
:1032F0008D6030465A6000F0CDFA0834204603B0A5
:10330000BDE8F08F35F0070500F19480A94200F286
:10331000918000F0B9FAB5F5FC7FC0F083816B0AAB
:1033200000F08F80042B00F24681AB0903F13900D5
:1033300003F1380CC300AB4F3B44A3F108015C68B8
:10334000A14206D10CE0002A80F21D81E468A1426E
:1033500006D0636823F003035A1B0F2AF3DD60468F
:103360003C69DFF894C2644571D0636823F00303BD
:103370005A1B0F2A00F34481002AC7E904CC80F2CB
:103380002681B3F5007F80F06981DB08591C7A68DB
:1033900057F83180C4F808804FF0010E9B100EFAE8
:1033A00003F307EBC10E1343AEF10802E2607B604A
:1033B00047F83140C8F80C408210012494409C42E8
:1033C0004BD81C4206D120F0030064001C4200F1DF
:1033D0000400FAD007EBC009CE468046DEF80C3078
:1033E0009E4507D122E1002A80F22981DB689E45B3
:1033F00000F01C81596821F003014A1B0F2AF2DDFD
:10340000D3E9028E5C1945F001055D6042F00105CB
:10341000C8F80CE03046CEF80880C7E90444C4E997
:1034200002CC65605A50019300F034FA019B03F11D
:10343000080463E700240C232046336003B0BDE892
:10344000F08F4FF4007340204FF03F0C73E77B6820
:103450008210012494409C42B3D9BC68636823F075
:103460000309A94503D3A9EB05030F2B7BDC5E4BB6
:10347000DFF888A11A68DAF80030013305EB02089A
:1034800000F0488108F5805808F10F0828F47F689B
:1034900028F00F084146304600F002FAB0F1FF3F35
:1034A000834600F0048104EB0900584500F2FD80DA
:1034B0004E4A13684344136000F04D81DAF800105F
:1034C00001311BBFABEB00001B18CAF800B0136042
:1034D0001BF0070300F03481C3F10801C3F58053EA
:1034E0008B440833D844C8F30B08A3EB08084146C3
:1034F0003046019200F0D4F9431C019A00F0468155
:10350000A0EB0B01414441F001011368C7F808B07A
:103510004344BC42CBF80410136015D0B9F10F0F2F
:1035200040F230816068A9F10C0121F0070100F040
:10353000010004EB010C08434FF0050E0F296060F9
:10354000CCE901EE00F23A81294A2A481168BC68A8
:103550008B42016888BF136062688B4222F00302CD
:1035600088BF0360A7E0621943F0010345F001053D
:1035700065603046BA60536000F08CF9083420462C
:1035800003B0BDE8F08F2344E1685A68A56842F0B3
:103590000102E96030468D605A6000F07BF9083422
:1035A000204603B0BDE8F08FDC68A34208BF0230BC
:1035B0003FF4D6AE92E6142B71D9542B00F2AD80B5
:1035C0002B0B03F16F0003F16E0CC300B3E6234431
:1035D00030465A6842F001025A60083400F05AF945
:1035E0008CE600BF40040020B808002088080020B6
:1035F000B0080020B408002048040020480800203B
:10360000611945F0010E42F00105C4F804E03046AE
:10361000C7E90411C1E902CC4D60E25000F03AF96B
:1036200008346BE6E80805F108034FE608F10108E5
:1036300018F0030F0EF1080E7FF4D0AE52E01944DB
:103640001C464A68DB6854F8085F42F001024A6091
:103650003046EB609D6000F01DF94FE65A0A042ADF
:1036600035D9142A6FD802F15C01C9005B3207EB2F
:10367000010E7958AEF1080E8E4558D04A6822F0F6
:1036800003029A4202D989688E45F7D1D1F80CE03D
:103690007B68C4E9021ECEF80840CC608CE603F1DA
:1036A0005C0003F15B0CC30045E6BC4272D0BC6811
:1036B000626822F003029542A2EB050302D80F2BA9
:1036C0003FF751AF304600F0E5F8002416E69A09BE
:1036D00002F13901C9003832C9E7D9F8009099459B
:1036E00040F0838010F0030FA9F1080300F1FF30D0
:1036F000F3D17B6823EA04037B6064009C423FF6BD
:10370000ACAE1CB9A9E6640008F104081C42FAD06A
:1037100040465FE608F11008BCE6B3F5AA7F26D85C
:10372000EB0B03F1780003F1770CC30003E67B6831
:1037300092104FF0010808FA02F213437B60A8E7E9
:103740004FF48053CEE6542A29D81A0B02F16F01A8
:10375000C9006E328BE7C0F30B0100297FF4AEAED7
:1037600009EB0802B96842F001024A60ECE640F257
:10377000545293421CD8AB0C03F17D0003F17C0C36
:10378000C300D8E50123CBF804309BE701214FF0BB
:103790000008BAE6164A1368434413608EE6B2F591
:1037A000AA7F14D8DA0B02F17801C90077325EE7FC
:1037B0004FF47E737F204FF07E0CBCE504F10801CE
:1037C0003046019200F06CF9019A1368BCE640F2B1
:1037D00054518A4205D89A0C02F17D01C9007C320D
:1037E00045E74FF47E717E2241E77B6885E700BFA5
:1037F00088080020F0B4860743D0541E002A3ED02B
:10380000CAB2034602E014F1FF3438D303F8012BA7
:103810009D07F8D1032C2BD9CDB245EA05250F2CF5
:1038200045EA054516D9A4F110073F0903F1200622
:1038300006EB071603F1100242E9045542E902556E
:103840001032B242F8D104F00F040137032C03EB1D
:1038500007130DD91E462246043A032A46F8045B94
:10386000FAD8221F22F003020432134404F00304A6
:103870002CB1C9B21C4403F8011B9C42FBD1F0BC23
:10388000704714460346C5E7014800F001BA00BF7F
:1038900080090020014800F0FDB900BF8009002028
:1038A00038B5074C002305460846236000F066FB48
:1038B000431C00D038BD2368002BFBD02B6038BDE3
:1038C00094090020024B13B1024800F079B8704708
:1038D00000000000CD3900082DE9F04F354B85B0D0
:1038E0000F460390186800F0D3F9334B1B6801931F
:1038F00003F5A4730293B946019BD3F848613EB324
:10390000DDF808A04FF001087468651E0FD401347B
:1039100006EB84040027B9F1000F20D0D4F8003161
:103920004B451CD0013D6B1CA4F10404F3D1234B87
:1039300073B1D6E90032002A34D1002B32D03046A0
:10394000CAF80030FFF7AAFCDAF80060002EDBD1DD
:10395000184B186805B0BDE8F04F00F09BB97368CC
:103960002268013BAB420CBF75602760002AD9D0AA
:10397000D6F88811D6F804B008FA05F30B4208D13E
:10398000904773685B45B7D1DAF80030B342C9D0CD
:10399000B2E7D6F88C01D4F88010034207D103981F
:1039A0009047EEE7B2461E46002EADD1D0E708465E
:1039B0009047E6E750080020004900089D320008C3
:1039C000002301461A46184600F066B938B50A4C7D
:1039D0000A4D641BA4100AD004F18043013B05EB9F
:1039E0008305013C55F804399847002CF9D1BDE80E
:1039F000384000F007BF00BF3449000830490008D4
:103A0000F8B5244F0C460646FFF73EFFBB685D68DD
:103A1000C4F57E610F3125F00305294421F47F614F
:103A200021F00F01A1F58054B4F5805F07DB002180
:103A30003046FFF735FFBB682B44984204D0304630
:103A4000FFF728FF0020F8BD61423046FFF728FF4E
:103A500001300DD0104BBA6819682D1B45F00105D7
:103A60003046091B55601960FFF714FF0120F8BDAF
:103A700000213046FFF714FFBA68831A0F2BDEDDF2
:103A8000064C0549246843F00103001B536008609D
:103A9000D5E700BF40040020880800204808002027
:103AA000002953D0F8B50C460646FFF7EDFE54F852
:103AB00004CC714F2CF00101A4F108056B18B86813
:103AC0005A68984222F0030253D01CF0010F5A604A
:103AD00003EB02003BD154F808CC4068A5EB0C0581
:103AE00007F1080EAC687445614400F0010075D020
:103AF000D5F80CC0C4F80CC0CCF8084060B341F055
:103B000001036B606950B1F5007F50D34B0A042B61
:103B100070D88B0903F13904E40003F13802381935
:103B20003B590838984278D05A6822F003028A42FA
:103B300071D99B689842F7D1C368C5E902039D60BB
:103B4000C5603046BDE8F840FFF7A4BE7047406846
:103B500000F001000028D2D19868484C1144A042DE
:103B600041F0010262D0DB68C36098606A6069500E
:103B7000C9E71CF0010F0A4407D154F8083CED1ABC
:103B80001A44D5E90213CB6099603D4B1B6842F0A3
:103B9000010193426960BD6004D83A4B3046196810
:103BA000FFF72EFF3046BDE8F840FFF773BEC908A7
:103BB00078684A1C012389108B40034307EBC2013C
:103BC00057F832007B600839C5E9020147F83250E6
:103BD000C5603046BDE8F840FFF75CBE002845D11F
:103BE0000A44D3E9021342F00100CB609960686097
:103BF000AA50D7E7142B08D9542B1ED80B0B03F16E
:103C00006F04E40003F16E0289E703F15C04E40051
:103C100003F15B0283E718468EE79310796801226F
:103C200002FA03F30B437B60034686E7C7E90455BA
:103C3000C5E902006A606950B4E7B3F5AA7F06D807
:103C4000CB0B03F17804E40003F1770267E740F25D
:103C50005452934206D88B0C03F17D04E40003F127
:103C60007C025CE74FF47E747E2258E741F001024B
:103C70006A60196096E700BF4004002048040020F5
:103C80004C080020B8080020704700BF704700BFF4
:103C9000704700BF704700BF2DE9F8432B4D064623
:103CA000286898460F469146FFF7F2FF284B1C689C
:103CB000D4F84831002B3DD05A681F2A0DDC02F1A0
:103CC000010C16BB0232C3F804C0286843F8227006
:103CD000FFF7E0FF0020BDE8F8831E4B7BB34FF4F5
:103CE000C870FFF7D3FA034648B3D4F8482100213F
:103CF000C0E900214FF0010CC4F848010A46C0F8A1
:103D00008811C0F88C11002EDCD003EB8201012455
:103D1000C1F88890D3F8880194402043022EC3F85C
:103D20008801C1F80881CDD1D3F88C110C43C3F8B8
:103D30008C41C7E704F5A673C4F84831BCE728688E
:103D4000FFF7A8FF4FF0FF30C5E700BF5008002085
:103D5000004900088D3200080B4B1B6810B5044663
:103D60000BB19A6B4AB1132C0BD8084850F8343079
:103D7000013306D000EBC40010BD184600F030FB44
:103D8000F1E7002010BD00BF10000020CC0800208B
:103D900070B5FFF741FA1324054600262046314648
:103DA000ABBE04464FF0FF302C6070BDF0B585B05F
:103DB0000C461646FFF7D0FFC8B103680396CDE95D
:103DC00001340546062401AF20463946ABBE044601
:103DD000621C204605D06B68301A03446B6005B046
:103DE000F0BDFFF7D5FF431CF5D105B0F0BDFFF7DF
:103DF00013FA092303604FF0FF30F0E7F0B583B00A
:103E00000D461446FFF7A8FF00283DD0022C34D8F9
:103E1000012C06461FD0022C03680FD06F46CDE957
:103E200000350A2420463946ABBE0446631C18D030
:103E3000002C1FDB7560284603B0F0BD02AF0C24D8
:103E400047F8083D20463946ABBE0446611C0CD0FD
:103E500025443368E3E740682D180ED433686F4675
:103E6000DDE7FFF795FF0446E2E7FFF791FF421C0D
:103E70000446EDD14FF0FF35DDE7FFF7CDF916230E
:103E800003604FF0FF35D6E7FFF7C6F9092303605B
:103E90004FF0FF35CFE700BFFFF7B0BFF0B585B0FB
:103EA0000C461646FFF758FF50B303680396CDE95A
:103EB00001340546052401AF20463946ABBE044611
:103EC000631C16D0002C18DB6A68301B0244A64223
:103ED0006A6001D005B0F0BDFFF79EF913250646D4
:103EE000002428462146ABBE05462046356005B075
:103EF000F0BDFFF74DFF0446E4E74FF0FF30E9E780
:103F0000FFF78AF9092303604FF0FF30E2E700BFB3
:103F100070B582B00446FFF71FFF28B3013C012CA7
:103F2000064611D902AD336845F8043D0224204607
:103F30002946ABBE0446631C204610D010B94FF092
:103F4000FF33336002B070BD0B4B9A681B699A4215
:103F5000E8D14FF0FF330360002002B070BDFFF7DF
:103F600017FF0028EBD0EDE7FFF756F909230360B0
:103F70004FF0FF30E6E700BFCC0800200E4A136880
:103F800010B5ABB118446946884209D80B490C4CAE
:103F90000968A14201D0884202D81060184610BDBD
:103FA000FFF73AF90C2303604FF0FF33184610BDBA
:103FB000044B1360E6E700BFBC0800205408002053
:103FC000ADDEFECA9809002070B50D46FFF7C4FEAD
:103FD000B8B16B684FF4806243F4005306466B60DF
:103FE0006A640C2420463146ABBE0446621C20465F
:103FF00002D02861002070BDFFF7CAFE431CF8D133
:1040000070BDFFF709F9092303604FF0FF3070BD61
:1040100038B5582205460C4608460021FFF7EAFB52
:104020002846002100F012F8431C05460CD06368B6
:1040300043F4014363602146FFF7C6FF0446284668
:10404000FFF766FF204638BD0446FBE72DE9F04741
:10405000334E96B082468846002402E00134142C88
:1040600038D056F834506B1C4FEAC407F6D108F428
:104070002063B3F5206FE94645D0C8F3004518F03A
:10408000020F40F2016318BF45F0020518EA030F62
:1040900018BF45F0040518F0080F18BF25F00405F7
:1040A000504618BF45F00805CDF800A0FCF7C8FE43
:1040B000CDE90150012528464946ABBE0546002DF5
:1040C00012DB3744002346F834507B60204616B09C
:1040D000BDE8F087FFF7A0F84FF0FF341823036026
:1040E000204616B0BDE8F087FFF796F81324064681
:1040F000002720463946ABBE044634602C46204695
:1041000016B0BDE8F08749465046FFF781FF013001
:10411000B3D0FFF781F811232C460360D6E700BF28
:10412000CC0800202DE9F043074683B0884630488C
:1041300000211646FFF78AFF002105463246384621
:10414000FFF758FB691C51D02846FFF705FE0C24E9
:10415000814620464946ABBE0446621C3BD0032C38
:1041600030DDE01EB0422DDD04220DEB02012846B9
:10417000FFF71CFE032825DD9DF80430532B21D1C9
:104180009DF80530482B1DD19DF80630462B19D1DE
:104190009DF80730422B15D1414601222846FFF7F2
:1041A0002DFE00280EDB324639462846FFF7FEFD7D
:1041B00004462846FFF7ACFE631C10D0204603B02F
:1041C000BDE8F0832846FFF7A3FE4FF0FF342046FA
:1041D00003B0BDE8F083FFF7DBFD0446BFE7FFF760
:1041E000D7FD0446204603B0BDE8F0832C46E5E742
:1041F0000449000830B50C4D0C4C0020012383B05D
:10420000014628601A4601A82360FFF78BFF0028AB
:1042100007DD9DF8043003F0010203F002032A6079
:10422000236003B030BD00BF580800205C080020A8
:1042300010B5044C2068002800DB10BDFFF7DAFF42
:10424000206810BD580800202DE9F04F85B0374F89
:10425000019703234FF0000803934FF00109CDF8B5
:10426000088001AE48463146ABBE8146304D314CE8
:10427000C5F8009043464FF0FF3244F83320013335
:10428000142BFAD1DFF8B490D9F80030002B3DDBC5
:104290004BB9294F3A68013242D02A68C4E9002359
:1042A00005B0BDE8F08F4FF0030B042301974FF0EA
:1042B0000108CDF80CB0029340463146ABBE8246B1
:1042C0005246DFF87CA001970823CDF80CB0CAF85D
:1042D0000020029340463146ABBE0646164FD9F841
:1042E00000303E6001361DD02A68226000229342D1
:1042F000626010DB3BB1DAF800303A68A36000235B
:10430000C4E90332636105B0BDE8F08FFFF772FFC7
:10431000D9F80030BCE7FFF76DFFD9F80030E9E7C6
:10432000DFF81CA0DAF800203A60DDE71C4900083D
:10433000C4080020CC080020C00800205C08002031
:10434000C80800204FF0FF3100F000B830B583B04E
:104350000D460191FFF76CFF002814BF202418249C
:10436000062D0CBF054B064B00936D462046294693
:10437000ABBE0446204603B030BD00BF23000200A0
:104380002600020010B5002304468181C281C0E9E5
:10439000003383604366C0E9043383611946082211
:1043A0005C30FFF727FA07480749084A084BE362E1
:1043B000C4E90740C4E9091204F15800BDE81040FF
:1043C000FFF762BCA5440008C94400080545000881
:1043D00025450008014900F03BB800BF7D450008B5
:1043E00010B504461248FFF753FCA26BD2B904F58E
:1043F0003B731048C4F8E8320321C4F8E022E063BC
:10440000C4F8E41260680421FFF7BCFF012209210F
:10441000A068FFF7B7FF02221221E068FFF7B2FFA2
:104420000123A3630248BDE81040FFF733BC00BF7F
:104430007C090020D54300080148FFF729BC00BFD4
:10444000900900200148FFF725BC00BF900900201B
:104450002DE9F84310F538771FD0884606464FF00F
:104460000009D7E90154013D11D4A389012B05F1BD
:10447000FF352146304606D9B4F90E30013302D05B
:10448000C04749EA00096B1C04F16804EDD13F689C
:10449000002FE6D14846BDE8F883B9464846BDE856
:1044A000F88300BF10B50C46B1F90E1000F08EF97C
:1044B000002803DB236D0344236510BDA38923F487
:1044C0008053A38110BD00BF2DE9F0411646B1F91C
:1044D0000C201F46D3050C460546B1F90E1007D532
:1044E0000022022300F05CF9B4F90C20B4F90E109C
:1044F00022F48052A2813B4632462846BDE8F04174
:1045000000F014B810B50C46B1F90E1000F048F9DF
:10451000A389421C0EBF23F4805343F480532065CB
:10452000A38110BDB1F90E1000F016B870B50D469C
:10453000084C114606461A46284600232360FFF71A
:10454000ADFC431C00D070BD2368002BFBD0336052
:1045500070BD00BF9409002038B5074C0023054604
:1045600008462360FFF7D4FC431C00D038BD236805
:10457000002BFBD02B6038BD9409002070B50029BA
:1045800048D005460C4610B1836B002B48D0626EB4
:10459000B4F90C30D00740D4990530D521462846CF
:1045A00000F054F8E36A064633B1E16928469847BB
:1045B0000028B8BF4FF0FF36A3891A063CD4216B00
:1045C00041B104F14003994202D02846FFF768FA4E
:1045D00000232363616C21B12846FFF761FA0023B1
:1045E0006364FFF729FF636E0022DB07A2811FD5FA
:1045F000A06DFFF74BFBFFF725FF304670BDA06DA8
:10460000FFF746FBB4F90C30002BC7D1666E16F0ED
:10461000010616D00026304670BD002BFAD0BDE74B
:10462000FFF7DEFE626EB4F90C30D007F5D4B3E7C5
:10463000A06DFFF72FFBDBE721692846FFF730FA73
:10464000BDE7A06DFFF726FB304670BDB1F90C3019
:104650009AB22DE9F0410C461107804644D46268B5
:1046600043F40063002AA38159DDA56A002D53D0CD
:1046700000229BB2D8F80060E169C8F8002013F46A
:10468000805240F0838001234046A847421C4AD014
:10469000A389A56AE1695B0705D56268236B801A67
:1046A0000BB1E36BC01A024600234046A847471CE3
:1046B00045D0B4F90C302269226023F40063002253
:1046C000A381DB04626000D52065216BC8F800601F
:1046D00011B304F14003994202D04046FFF7E0F9DC
:1046E00000202063BDE8F0812669AEB12568266010
:1046F00092070CBF63690023AD1BA3600AE02B4641
:104700003246676AE1694046B8470028A5EB0005D4
:1047100006442BDD002DF2DC0020BDE8F081E26BC9
:10472000002AA2DCF8E7D8F80030002BB0D01D2B0F
:1047300001D0162B2CD1C8F800600020EDE7D8F886
:1047400000101D291AD8154BB4F90C20CB40DB43BF
:1047500013F0010314D1256922F40062C4E9005367
:10476000D504A281B1D50029AFD1ADE7A38943F02B
:104770004003A3814FF0FF30BDE8F081B4F90C2075
:1047800042F04002A2814FF0FF30C6E7206D82E781
:10479000A38943F04003A381BFE700BF010040208D
:1047A00070B50D46084C114606461A4628460023A9
:1047B0002360FFF771FB431C00D070BD2368002B02
:1047C000FBD0336070BD00BF9409002070B50D466A
:1047D000084C114606461A46284600232360FFF778
:1047E000E5FA431C00D070BD2368002BFBD033607A
:1047F00070BD00BF94090020F8B500BFF8BC08BC2C
:104800009E467047F8B500BFF8BC08BC9E4670478E
:104810000000000000000000010203040607080970
:1048200000000000010203042E2E2F4472697665F9
:1048300072732F53544D3332463478785F48414C6D
:104840005F4472697665722F5372632F73746D3390
:1048500032663478785F68616C5F636F7274657814
:104860002E6300002E2E2F447269766572732F53CB
:10487000544D3332463478785F48414C5F44726916
:104880007665722F5372632F73746D33326634788A
:10489000785F68616C5F6770696F2E63000000006D
:1048A0002E2E2F447269766572732F53544D333216
:1048B000463478785F48414C5F4472697665722F60
:1048C0005372632F73746D3332663478785F686126
:1048D0006C5F7263632E63002E2E2F5372632F6DF5
:1048E00061696E2E63000000706F770000000000A9
:1048F000000000000000304300000000000030C352
:10490000180000203A73656D69686F7374696E678B
:104910002D66656174757265730000003A747400E9
:0849200028C2FF7F0100000026
:08492800C5380008E501000894
:04493000C1010008B9
:1049340001000000100000000024F4000100000049
:104944001800002000000000000000000403002004
:104954006C030020D40300200000000000000000CD
:104964000000000000000000000000000000000043
:104974000000000000000000000000000000000033
:104984000000000000000000000000000000000023
:104994000000000000000000000000000000000013
:1049A4000000000000000000000000000000000003
:1049B40000000000000000000000000000000000F3
:1049C40000000000000000000000000000000000E3
:1049D40000000000000000000000000000000000D3
:1049E40000000000000000000000000000000000C3
:1049F40001000000000000000E33CDAB34126DE660
:104A0400ECDE05000B0000000000000000000000C8
:104A14000000000000000000000000000000000092
:104A24000000000000000000000000000000000082
:104A34000000000000000000000000000000000072
:104A44000000000000000000000000000000000062
:104D74000000000000000000400400204004002067
:104D8400480400204804002050040020500400205F
:104D9400580400205804002060040020600400200F
:104DA40068040020680400207004002070040020BF
:104DB400780400207804002080040020800400206F
:104DC400880400208804002090040020900400201F
:104DD4009804002098040020A0040020A0040020CF
:104DE400A8040020A8040020B0040020B00400207F
:104DF400B8040020B8040020C0040020C00400202F
:104E0400C8040020C8040020D0040020D0040020DE
:104E1400D8040020D8040020E0040020E00400208E
:104E2400E8040020E8040020F0040020F00400203E
:104E3400F8040020F80400200005002000050020EC
:104E4400080500200805002010050020100500209A
:104E5400180500201805002020050020200500204A
:104E640028050020280500203005002030050020FA
:104E740038050020380500204005002040050020AA
:104E8400480500204805002050050020500500205A
:104E9400580500205805002060050020600500200A
:104EA40068050020680500207005002070050020BA
:104EB400780500207805002080050020800500206A
:104EC400880500208805002090050020900500201A
:104ED4009805002098050020A0050020A0050020CA
:104EE400A8050020A8050020B0050020B00500207A
:104EF400B8050020B8050020C0050020C00500202A
:104F0400C8050020C8050020D0050020D0050020D9
:104F1400D8050020D8050020E0050020E005002089
:104F2400E8050020E8050020F0050020F005002039
:104F3400F8050020F80500200006002000060020E7
:104F44000806002008060020100600201006002095
:104F54001806002018060020200600202006002045
:104F640028060020280600203006002030060020F5
:104F740038060020380600204006002040060020A5
:104F84004806002048060020500600205006002055
:104F94005806002058060020600600206006002005
:104FA40068060020680600207006002070060020B5
:104FB4007806002078060020800600208006002065
:104FC4008806002088060020900600209006002015
:104FD4009806002098060020A0060020A0060020C5
:104FE400A8060020A8060020B0060020B006002075
:104FF400B8060020B8060020C0060020C006002025
:10500400C8060020C8060020D0060020D0060020D4
:10501400D8060020D8060020E0060020E006002084
:10502400E8060020E8060020F0060020F006002034
:10503400F8060020F80600200007002000070020E2
:105044000807002008070020100700201007002090
:105054001807002018070020200700202007002040
:1050640028070020280700203007002030070020F0
:1050740038070020380700204007002040070020A0
:105084004807002048070020500700205007002050
:105094005807002058070020600700206007002000
:1050A40068070020680700207007002070070020B0
:1050B4007807002078070020800700208007002060
:1050C4008807002088070020900700209007002010
:1050D4009807002098070020A0070020A0070020C0
:1050E400A8070020A8070020B0070020B007002070
:1050F400B8070020B8070020C0070020C007002020
:10510400C8070020C8070020D0070020D0070020CF
:10511400D8070020D8070020E0070020E00700207F
:10512400E8070020E8070020F0070020F00700202F
:10513400F8070020F80700200008002000080020DD
:10514400080800200808002010080020100800208B
:10515400180800201808002020080020200800203B
:1051640028080020280800203008002030080020EB
:105174003808002038080020FFFFFFFF000002006D
:1051840070090020ADDEFECAFFFFFFFFFFFFFFFF37
:0400000508001FC50B
:00000001FF
