:020000040800F2
:1000000000A00020BD370008393700083B37000842
:100010003D3700083F370008413700080000000066
:10002000000000000000000000000000433700084E
:10003000453700080000000047370008493700082E
:100040000D3800080D3800080D3800080D3800087C
:100050000D3800080D3800080D3800080D3800086C
:100060000D3800080D3800080D3800080D3800085C
:100070000D3800080D3800080D3800080D3800084C
:100080000D3800080D3800080D3800080D3800083C
:100090000D3800080D3800080D3800080D3800082C
:1000A0000D3800080D3800080D3800080D3800081C
:1000B0000D3800080D3800080D3800080D3800080C
:1000C0000D3800080D3800080D3800080D380008FC
:1000D0000D3800080D3800080D3800080D380008EC
:1000E0000D3800080D3800080D3800080D380008DC
:1000F0000D3800080D3800080D3800080D380008CC
:100100000000000000000000000000000D380008A2
:100110000D3800080D3800080D3800080D380008AB
:100120000D3800080D3800080D3800080D3800089B
:100130000D3800080D380008000000000000000025
:100140000D3800080D3800080D38000800000000C8
:10015000000000000000000000000000000000009F
:1001600000000000000000000D3800080D380008F5
:100170000D38000800000000000000000000000032
:08018000000000000D3800082A
:1001880010B5054C237833B9044B13B10448AFF3C9
:1001980000800123237010BDDC0100200000000056
:1001A800903B000808B5034B1BB103490348AFF364
:1001B800008008BD00000000E0010020903B00081E
:1001C80081F0004102E000BF83F0004330B54FEA00
:1001D80041044FEA430594EA050F08BF90EA020F6D
:1001E8001FBF54EA000C55EA020C7FEA645C7FEA00
:1001F800655C00F0E2804FEA5454D4EB5555B8BF23
:100208006D420CDD2C4480EA020281EA030382EA93
:10021800000083EA010180EA020281EA0303362D25
:1002280088BF30BD11F0004F4FEA01314FF4801CF8
:100238004CEA113102D0404261EB410113F0004F0A
:100248004FEA03334CEA133302D0524263EB4303C1
:1002580094EA050F00F0A780A4F10104D5F1200E5F
:100268000DDB02FA0EFC22FA05F2801841F10001BA
:1002780003FA0EF2801843FA05F359410EE0A5F18E
:1002880020050EF1200E012A03FA0EFC28BF4CF0BF
:10029800020C43FA05F3C01851EBE37101F0004575
:1002A80007D54FF0000EDCF1000C7EEB00006EEB82
:1002B8000101B1F5801F1BD3B1F5001F0CD349080C
:1002C8005FEA30004FEA3C0C04F101044FEA445263
:1002D80012F5800F80F09A80BCF1004F08BF5FEAEA
:1002E800500C50F1000041EB045141EA050130BDCA
:1002F8005FEA4C0C404141EB010111F4801FA4F16D
:100308000104E9D191F0000F04BF01460020B1FAC1
:1003180081F308BF2033A3F10B03B3F120020CDAF9
:100328000C3208DD02F1140CC2F10C0201FA0CF0D7
:1003380021FA02F10CE002F11402D8BFC2F1200C3C
:1003480001FA02F120FA0CFCDCBF41EA0C019040F2
:10035800E41AA2BF01EB0451294330BD6FEA04043B
:100368001F3C1CDA0C340EDC04F11404C4F1200226
:1003780020FA04F001FA02F340EA030021FA04F338
:1003880045EA030130BDC4F10C04C4F1200220FA8F
:1003980002F001FA04F340EA0300294630BD21FACD
:1003A80004F0294630BD94F0000F83F4801306BF93
:1003B80081F480110134013D4EE77FEA645C18BF87
:1003C8007FEA655C29D094EA050F08BF90EA020F1E
:1003D80005D054EA000C04BF1946104630BD91EA16
:1003E800030F1EBF0021002030BD5FEA545C05D119
:1003F8004000494128BF41F0004130BD14F5800458
:100408003CBF01F5801130BD01F0004545F0FE41CB
:1004180041F470014FF0000030BD7FEA645C1ABF00
:10042800194610467FEA655C1CBF0B46024650EA37
:10043800013406BF52EA033591EA030F41F4002163
:1004480030BD00BF90F0000F04BF0021704730B5E9
:100458004FF4806404F132044FF000054FF00001BE
:1004680050E700BF90F0000F04BF0021704730B57F
:100478004FF4806404F1320410F0004548BF404254
:100488004FF000013EE700BF42004FEAE2014FEAA9
:1004980031014FEA02701FBF12F07F4393F07F4F84
:1004A80081F06051704732F07F4208BF704793F087
:1004B8007F4F04BF41F40021704730B54FF460749A
:1004C80001F0004521F000411CE700BF50EA01029D
:1004D80008BF704730B54FF000050AE050EA010246
:1004E80008BF704730B511F0004502D5404261EBB6
:1004F80041014FF4806404F132045FEA915C3FF4F7
:10050800D8AE4FF003025FEADC0C18BF03325FEA93
:10051800DC0C18BF033202EBDC02C2F1200300FA44
:1005280003FC20FA02F001FA03FE40EA0E0021FA69
:1005380002F11444BDE600BF70B54FF0FF0C4CF457
:10054800E06C1CEA11541DBF1CEA135594EA0C0F09
:1005580095EA0C0F00F0DEF82C4481EA030621EA44
:100568004C5123EA4C5350EA013518BF52EA03357F
:1005780041F4801143F4801338D0A0FB02CE4FF031
:100588000005E1FB02E506F00042E0FB03E54FF061
:100598000006E1FB03569CF0000F18BF4EF0010E59
:1005A800A4F1FF04B6F5007F64F5407404D25FEA55
:1005B8004E0E6D4146EB060642EAC62141EA555108
:1005C8004FEAC52040EA5E504FEACE2EB4F1FD0C4A
:1005D80088BFBCF5E06F1ED8BEF1004F08BF5FEAC8
:1005E800500E50F1000041EB045170BD06F000467A
:1005F80046EA010140EA020081EA0301B4EB5C0427
:10060800C2BFD4EB0C0541EA045170BD41F480111E
:100618004FF0000E013C00F3AB8014F1360FDEBF43
:10062800002001F0004170BDC4F10004203C35DA1F
:100638000C341BDC04F11404C4F1200500FA05F3A2
:1006480020FA04F001FA05F240EA020001F0004243
:1006580021F0004110EBD37021FA04F642EB0601B9
:100668005EEA430E08BF20EAD37070BDC4F10C04E3
:10067800C4F1200500FA04F320FA05F001FA04F2A7
:1006880040EA020001F0004110EBD37041F1000193
:100698005EEA430E08BF20EAD37070BDC4F120059E
:1006A80000FA05F24EEA020E20FA04F301FA05F206
:1006B80043EA020321FA04F001F0004121FA04F2AE
:1006C80020EA020000EBD3705EEA430E08BF20EA7E
:1006D800D37070BD94F0000F0FD101F000464000B8
:1006E80041EB010111F4801F08BF013CF7D041EA3A
:1006F800060195F0000F18BF704703F0004652003E
:1007080043EB030313F4801F08BF013DF7D043EA0E
:100718000603704794EA0C0F0CEA135518BF95EAC4
:100728000C0F0CD050EA410618BF52EA4306D1D14B
:1007380081EA030101F000414FF0000070BD50EA6A
:10074800410606BF1046194652EA430619D094EAF4
:100758000C0F02D150EA013613D195EA0C0F05D1DE
:1007680052EA03361CBF104619460AD181EA030132
:1007780001F0004141F0FE4141F470014FF00000EA
:1007880070BD41F0FE4141F4780170BD70B54FF085
:10079800FF0C4CF4E06C1CEA11541DBF1CEA135505
:1007A80094EA0C0F95EA0C0F00F0A7F8A4EB0504E7
:1007B80081EA030E52EA03354FEA013100F08880DE
:1007C8004FEA03334FF0805545EA131343EA1263A7
:1007D8004FEA022245EA111545EA10654FEA00265C
:1007E8000EF000419D4208BF964244F1FD0404F515
:1007F800407402D25B084FEA3202B61A65EB030571
:100808005B084FEA32024FF480104FF4002CB6EB2D
:10081800020E75EB030E22BFB61A754640EA0C00AD
:100828005B084FEA3202B6EB020E75EB030E22BFED
:10083800B61A754640EA5C005B084FEA3202B6EB2E
:10084800020E75EB030E22BFB61A754640EA9C00ED
:100858005B084FEA3202B6EB020E75EB030E22BFBD
:10086800B61A754640EADC0055EA060E18D04FEA7B
:10087800051545EA16754FEA06164FEAC30343EA1B
:1008880052734FEAC2025FEA1C1CC0D111F4801FE8
:100898000BD141EA00014FF000004FF0004CB6E7E1
:1008A80011F4801F04BF01430020B4F1FD0C88BF80
:1008B800BCF5E06F3FF6AFAEB5EB030C04BFB6EB8B
:1008C800020C5FEA500C50F1000041EB045170BD7E
:1008D8000EF0004E4EEA113114EB5C04C2BFD4EBAB
:1008E8000C0541EA045170BD41F480114FF0000E2F
:1008F800013C90E645EA060E8DE60CEA135594EAAB
:100908000C0F08BF95EA0C0F3FF43BAF94EA0C0FAD
:100918000AD150EA01347FF434AF95EA0C0F7FF422
:1009280025AF104619462CE795EA0C0F06D152EA76
:1009380003353FF4FDAE1046194622E750EA41065A
:1009480018BF52EA43067FF4C5AE50EA41047FF46B
:100958000DAF52EA43057FF4EBAE12E74FEA4102CE
:1009680012F5001215D211D56FF47873B3EB6252F9
:1009780012D94FEAC12343F0004343EA505311F020
:10098800004F23FA02F018BF404270474FF00000B2
:10099800704750EA013005D111F0004008BF6FF0F0
:1009A800004070474FF00000704700BF10B5044684
:1009B8000E4B18784FF47A73B3FBF0F30C4A1068B7
:1009C800B0FBF3F000F0B2F868B90F2C01D90120A0
:1009D8000AE0002221464FF0FF3000F061F8034B97
:1009E8005C60002000E0012010BD00BF0000002076
:1009F8000800002008B5074A136843F01003136085
:100A0800032000F02FF80020FFF7D0FF02F048FE87
:100A1800002008BD00200240034A1168034B1B78E0
:100A28000B441360704700BF08020020000000203C
:100A3800014B1868704700BF0802002038B504460B
:100A4800FFF7F6FF0546B4F1FF3F02D0044B1B78D1
:100A58001C44FFF7EDFF401BA042FAD338BD00BF8E
:100A68000000002010B50446C31E042B0FD80A4A04
:100A7800D36823F4E0631B041B0C240204F4E06431
:100A8800234343F0BF6343F40033D36010BDBC215C
:100A9800024802F0B1FDEAE700ED00E03842000844
:100AA80070B505460C4616460F2A25D80F2C28D8AF
:100AB8001B4BDB68C3F30223C3F10702042A28BFD8
:100AC8000422191D062921D9033B4FF0FF3101FAF1
:100AD80002F224EA02049C4001FA03F326EA030620
:100AE8003443002D14DB2401E4B205F1604505F51B
:100AF800614585F8004370BDD4210A4802F07CFDA9
:100B0800D4E7D521074802F077FDD1E70023DCE7D9
:100B180005F00F052401E4B2034B5C55EBE700BF79
:100B280000ED00E03842000814ED00E00138B0F1B3
:100B3800807F0AD2064B5860064AF02182F82310BB
:100B48000020986007221A6070470120704700BF94
:100B580010E000E000ED00E010B50446042800D0E5
:100B680038B9042C0BD0094A136823F00403136026
:100B780010BD40F2E111064802F03EFDF1E7034ADC
:100B8800136843F004031360F2E700BF10E000E0CD
:100B980038420008704708B5FFF7FCFF08BD0000A1
:100BA8002DE9F04782B006460C46B0F1904F16D0BA
:100BB800A44B984213D003F5806398420FD003F5F5
:100BC800806398420BD003F58063984207D003F501
:100BD8008063984203D0C3219B4802F00DFD23682F
:100BE8009AB212B11B0C1B041BB1C421964802F027
:100BF80003FD6368012B1ED9112B1CD0022B1AD0C0
:100C0800122B18D0914A934215D002F580129342C4
:100C180011D002F5801293420DD0A2F5F81293423A
:100C280009D002F58012934205D002F58012934252
:100C380001D0032B04D1A368022B06D800254AE073
:100C4800C521814802F0D8FCF5E7C6217E4802F0AC
:100C5800D3FCF3E7D6217C4802F0CEFC6DE0EA2114
:100C6800794802F0C9FC98E0042300E000238B4097
:100C780003430232764941F82230764B1A68FB4327
:100C880003EA0201606810F4803F01D047EA0201DC
:100C9800704A1160526803EA0201606810F4003F6C
:100CA80001D047EA02016B4A5160926803EA0201E7
:100CB800606810F4801F01D047EA0201654A91601C
:100CC800D2681340616811F4001F01D047EA02039B
:100CD800604AD3600135276837FA05F300F0AF8022
:100CE8004FF0010808FA05F818EA0707F2D0636818
:100CF800022B01D0122B30D1B6F1904F16D0514BA8
:100D08009E4213D003F580639E420FD003F58063A3
:100D18009E420BD003F580639E4207D003F58063A3
:100D28009E4203D0D521484802F066FC23690C2B6B
:100D380003D90E2B01D00F2B8CD1EA08083256F8B4
:100D4800220005F0070399000F238B4020EA0300D7
:100D580023698B40034346F8223032684FEA450A3C
:100D68004FF0030909FA0AF96FEA090909EA0202C8
:100D7800636803F0030303FA0AF3134333606368F9
:100D88005A1E012A03D9112B01D0122B17D1E3685F
:100D9800012B02D9032B7FF462AFB26809EA020281
:100DA800E36803FA0AF31343B360736823EA080895
:100DB8006368C3F30013AB4043EA08037360F36846
:100DC80009EA0309A36803FA0AF343EA0903F3608B
:100DD800636813F0805F3FF47DAF1F4B9A6942F060
:100DE80001029A619B6903F001030193019BAA0820
:100DF800911C174B53F8210005F0030399000F23AA
:100E08008B4020EA0300B6F1904F3FF42FAF0D4B13
:100E18009E420ED003F580639E420CD003F580639A
:100E28009E420AD003F580639E423FF41DAF05231E
:100E38001DE701231BE7022319E7032317E702B085
:100E4800BDE8F08700040048744200080000111053
:100E580000000140000401400010024070B5054642
:100E680014460E4621B1012C08D86CB9AE6270BD8B
:100E78004FF4D871054802F0BFFBF4E740F2B11116
:100E8800024802F0B9FBF0E7AE61F0E774420008EF
:100E980003689A6912F0020F01D000229A6203686F
:100EA8009A6912F0010F03D19A6942F001029A611E
:100EB800704700002DE9F04180460C4617461E4653
:100EC800069D0368224A934208D002F58062934245
:100ED80004D041F268211F4802F08EFBB6F1807FF2
:100EE80003D0B6F1007F00D02EBB1B4B9D4208D02B
:100EF800A3F5E0539D4204D0A3F580639D4200D042
:100F0800FDB9D8F800104B686A0D02F4806242F00F
:100F18007F7242F4583242F47F7242F0030223EAAD
:100F28000203C4F3090444EA074434432C431C4332
:100F38004C60BDE8F08141F26921064802F05CFB93
:100F4800D3E741F26A21034802F056FBD9E700BF14
:100F580000540040B04200080040008070B50446CC
:100F68000D46164603689B6913F0100F17D02368C7
:100F78009A6912F0200F14D1B5F1FF3FF7D025B1CF
:100F8800FFF756FD801BA842F1D9202384F8413091
:100F9800002384F8423084F8403003201EE000200B
:100FA8001CE01022DA6123682025DD612046FFF766
:100FB8006FFF2268536823F0FF7323F48B3323F405
:100FC800FF7323F0010353600423636484F84150E2
:100FD800002384F8423084F84030012070BD70B599
:100FE80004460D46164623689B6913F0020F1CD170
:100FF800324629462046FFF7B1FFC0B9B5F1FF3F99
:10100800F1D025B1FFF714FD801BA842EBD9636C22
:1010180043F020036364202384F84130002384F8DC
:10102800423084F84030032000E0002070BD0120E9
:10103800FCE7F8B505460F4616461C462B689B6923
:1010480037EA03030CBF01230023B34213D1B4F1E1
:10105800FF3FF3D02CB1FFF7EBFC069BC01AA04270
:10106800ECD9202385F84130002385F8423085F8F3
:101078004030032000E00020F8BD70B505460C465E
:1010880016462B689B6913F0200F19D1324621466A
:101098002846FFF763FFA8B924B1FFF7C9FC801BF6
:1010A800A042EED96B6C43F020036B64202385F8D3
:1010B8004130002385F8423085F84030032070BD68
:1010C8000020FCE70120FAE7002800F0AF8010B507
:1010D80004460368564A934208D002F58062934258
:1010E80004D040F2A311534802F086FAA368B3F57E
:1010F800806F60D2E368013B012B62D8236913B18A
:10110800B3F5004F63D16369FF2B66D8A369072B3A
:1011180069D8E36913B1B3F5002F6AD1236A13B113
:10112800B3F5003F6BD194F84130002B6DD02423E8
:1011380084F841302268136823F001031360636860
:10114800226823F0706313612268936823F40043D4
:101158009360E368012B5ED0A368226843F40443DC
:101168009360E368022B5CD02268536843F00073F5
:1011780043F4004353602268D36823F40043D360E8
:10118800236962691343A169226843EA0123D36092
:10119800E369216A22680B4313602268136843F0ED
:1011A8000103136000206064202384F84130206329
:1011B80084F8420010BD4FF4D2711E4802F01CFAA8
:1011C80098E740F2A5111B4802F016FA96E74FF48B
:1011D800D371184802F010FA95E740F2A7111548A4
:1011E80002F00AFA92E74FF4D471124802F004FAB6
:1011F8008FE740F2A9110F4802F0FEF98EE74FF48D
:10120800D5710C4802F0F8F98DE784F84030204693
:1012180002F0CAF88BE7A368226843F4004393609E
:101228009FE723684FF400625A609DE701207047EA
:1012380000540040B04200082DE9F04383B090F814
:101248004150EDB2202D40F0AD8090F84040012C87
:1012580000F0AD80984617460E4604464FF0010947
:1012680080F84090FFF7E4FB0546009019234A46B2
:101278004FF400412046FFF7DCFE002840F099803B
:10128800212384F84130102384F84230002363641A
:101298006762A4F82A806363638D9BB2FF2B0AD927
:1012A800FF222285474B00934FF08073314620463A
:1012B800FFF700FE1DE0628D92B22285414B00933C
:1012C8004FF00073D2B231462046FFF7F3FD10E02D
:1012D800636C042B6FD1012365E0628D92B2228585
:1012E800002300934FF00073D2B231462046FFF737
:1012F800E1FD638D9BB2002B32D02A460A99204625
:10130800FFF76DFE0028E3D1636A5A1C6262226807
:101318001B789362638D013B9BB26385238D013BF0
:101328009BB22385002BE4D1638D9BB2002BE0D0C8
:1013380000950A9B002280212046FFF77AFE0028AC
:101348003BD1638D9BB2FF2BC7D9FF222285002397
:1013580000934FF0807331462046FFF7ABFDC8E796
:101368002A460A992046FFF788FE034620B1636C97
:10137800042B24D1012316E022682021D1612068A2
:10138800426822F0FF7222F48B3222F4FF7222F0BC
:101398000102426084F84110002284F8422084F857
:1013A800402000E00223184603B0BDE8F083022382
:1013B800F9E70323F7E70323F5E70323F3E7032319
:1013C800F1E700BF002000802DE9F04784B0002439
:1013D800039490F84140E4B2202C40F094800468D3
:1013E800A46914F4004F40F0938090F84040012C19
:1013F80000F090801F4691468A460646012380F8F1
:101408004030242380F841300023436422E0CAF3AB
:10141800090343F0007343F4005322E0AB6913F06F
:10142800100F43D0CDF800803B46002220213046E3
:10143800FFF7FFFD002871D133681022DA613368A5
:101448002022DA61039B5A1C03924B4541D0039B2F
:101458004B4550D2F368012BD9D0CAF3090343F4A2
:10146800205332685360FFF7E3FA80463568AB696A
:1014780013F0200FD2D1AB6913F0100FCED196F82C
:101488004140E4B2A02CC9D0B7F1FF3FEED02FB154
:10149800FFF7CEFAA0EB0800B842E7D9202386F878
:1014A8004130002386F8403003232DE0CDF800803A
:1014B8003B46002220213046FFF7BBFD034658BBC0
:1014C80031682022CA6186F84120002286F840202F
:1014D8001AE03268536843F480435360CDF80080C3
:1014E8003B46002220213046FFF7A3FDC0B93368F0
:1014F8002022DA61ABE7202386F84130002386F802
:101508004030032300E00223184604B0BDE8F0870A
:101518000223F9E70223F7E70323F5E70323F3E7B9
:101528000323F1E738B504460D460368204A934281
:1015380007D002F58062934203D074211D4802F05F
:101548005BF815B1B5F5805F28D194F84130DBB26E
:10155800202B28D194F84030012B26D0012384F881
:101568004030242384F841302268136823F00103B3
:1015780013602268136823F4805313602268136889
:101588001D4315602268136843F00103136020238C
:1015980084F84130002084F8400005E075210548B2
:1015A80002F02AF8D1E7022038BD0220FCE700BF8C
:1015B80000540040E842000838B504460D46036868
:1015C8001E4A934207D002F58062934203D0A221BB
:1015D8001B4802F011F80F2D26D894F84130DBB2E1
:1015E800202B26D194F84030012B24D0012384F8F5
:1015F8004030242384F841302268136823F0010323
:1016080013602368196821F4706141EA05211960A3
:101618002268136843F001031360202384F84130E3
:10162800002084F8400005E0A321054801F0E4FF0C
:10163800D3E7022038BD0220FCE700BF0054004079
:10164800E8420008002800F08A8370B582B004469A
:10165800036813B113F00F0F2BD0236813F0010F99
:101668004FD063682BB1B3F5803F02D0B3F5A02FFC
:1016780025D1B44B5B6803F00C03042B2AD0B14B83
:101688005B6803F00C03082B1FD06368B3F5803F39
:101698007CD0002B40F0A68003F1804303F504338F
:1016A8001A6822F480321A601A6822F480221A60BA
:1016B80071E040F25711A44801F09EFFCDE740F2D7
:1016C8005D11A14801F098FFD3E79E4B5B6813F4C6
:1016D800803FDAD04FF4003393FAA3F3994B19689B
:1016E8004FF4003393FAA3F3B3FA83F303F01F0321
:1016F800012202FA03F30B4203D06368002B00F0C7
:101708003083236813F0020F00F0DA802369012B7D
:1017180000F2A08063691F2B00F2A280894B5B68EE
:1017280013F00C0F00F0A880864B5B6803F00C03E5
:10173800082B00F09B802369002B00F0098101220F
:1017480092FAA2F3B3FA83F303F1845303F58413F3
:101758009B001A60FFF76CF90546022393FAA3F37E
:10176800784B1968022393FAA3F3B3FA83F303F0CF
:101778001F03012202FA03F30B4240F0D380FFF764
:1017880057F9401B0228E8D90320F1E26D4A136893
:1017980043F4803313606B4AD36A23F00F03A168C4
:1017A8000B43D3626368002B36D0FFF741F9054637
:1017B8004FF4003393FAA3F3624B19684FF40033E4
:1017C80093FAA3F3B3FA83F303F01F03012202FA97
:1017D80003F30B4295D1FFF72BF9401B6428E7D997
:1017E8000320C5E2B3F5A02F09D0564B1A6822F49E
:1017F80080321A601A6822F480221A60CBE703F15B
:101808008043A3F53C331A6842F480221A601A68B0
:1018180042F480321A60BEE7FFF70AF905464FF432
:10182800003393FAA3F3474B19684FF4003393FA44
:10183800A3F3B3FA83F303F01F03012202FA03F3BD
:101848000B423FF45EAFFFF7F3F8401B6428E6D97C
:1018580003208DE240F295113B4801F0CDFE59E797
:101868004FF4CB71384801F0C7FE57E7354B5B683A
:1018780013F4803F7FF45FAF022393FAA3F3314B55
:101888001968022393FAA3F3B3FA83F303F01F034F
:10189800012202FA03F30B4204D02369934201D0D8
:1018A800012065E22748036823F0F8036169F822FC
:1018B80092FAA2F2B2FA82F201FA02F21343036038
:1018C800236813F0080F00F09880A369012B66D8ED
:1018D800A369002B69D0012191FAA1F2B2FA82F230
:1018E8001A4B13449B001960FFF7A2F80546022320
:1018F80093FAA3F293FAA3F293FAA3F2114A516A64
:1019080093FAA3F3B3FA83F303F01F03012202FA55
:1019180003F30B4271D1FFF78BF8401B0228E6D97D
:10192800032025E20748036823F0F8036169F822D9
:1019380092FAA2F2B2FA82F201FA02F213430360B7
:10194800BEE700BF00100240244300082081901029
:10195800012393FAA3F3B3FA83F303F1845303F552
:1019680084139B0000221A60FFF762F805460223E1
:1019780093FAA3F3B94B1968022393FAA3F3B3FAC2
:1019880083F303F01F03012202FA03F30B4297D0FB
:10199800FFF74EF8401B0228E9D90320E8E14FF48D
:1019A800EB71AF4801F028FE92E7012292FAA2F209
:1019B800B2FA82F2AB4B13449B0000221A60FFF785
:1019C80037F80546022393FAA3F293FAA3F293FA9F
:1019D800A3F2A24A516A93FAA3F3B3FA83F303F08A
:1019E8001F03012202FA03F30B4206D0FFF720F887
:1019F800401B0228E6D90320BAE1236813F0040F3C
:101A080000F0C080E368012B01D9052B26D1934B48
:101A1800DB6913F0805F27D1904BDA6942F080527E
:101A2800DA61DB6903F080530193019B01258E4B3A
:101A38001B6813F4807F19D0E368012B2AD0002B90
:101A480034D103F1804303F504331A6A22F001020A
:101A58001A621A6A22F004021A6220E040F2022195
:101A68007F4801F0C9FDD2E70025E0E77E4A136808
:101A780043F480731360FEF7DBFF06467A4B1B685E
:101A880013F4807FD8D1FEF7D3FF801B6428F5D9E3
:101A980003206DE1714A136A43F001031362E3689E
:101AA800002B41D0FEF7C4FF06462BE0052B09D0DA
:101AB8006A4B1A6A22F001021A621A6A22F00402B8
:101AC8001A62ECE7654B1A6A42F004021A621A6A53
:101AD80042F001021A62E2E7604B196A022393FAA4
:101AE800A3F3B3FA83F303F01F03012202FA03F30B
:101AF800194245D1FEF79CFF801B41F2883398427A
:101B080000F23181022393FAA3F293FAA3F3B3FA12
:101B180083F35B0943F00203022BDDD0022393FA1F
:101B2800A3F34E4B596AD9E7FEF782FF064615E044
:101B38004A4B196A022393FAA3F3B3FA83F303F027
:101B48001F03012202FA03F3194219D0FEF770FFAE
:101B5800801B41F28833984200F20781022393FAEE
:101B6800A3F293FAA3F3B3FA83F35B0943F00203F6
:101B7800022BDDD0022393FAA3F3384B596AD9E735
:101B8800002D73D1E369022B76D8E369002B00F0AE
:101B9800EE80324A526802F00C02082A00F0EA800D
:101BA800022B40F0B080236A13B1B3F5803F69D1AE
:101BB800636A4BB3B3F5802F26D0B3F5002F23D03B
:101BC800B3F5402F20D0B3F5801F1DD0B3F5A01F6B
:101BD8001AD0B3F5C01F17D0B3F5E01F14D0B3F572
:101BE800001F11D0B3F5101F0ED0B3F5201F0BD076
:101BF800B3F5301F08D0B3F5401F05D0B3F5501F1B
:101C080002D0B3F5601F43D14FF0807393FAA3F36A
:101C1800B3FA83F303F1845303F584139B00002282
:101C28001A60FEF705FF05464FF0007393FAA3F319
:101C38000A4B19684FF0007393FAA3F3B3FA83F3CE
:101C480003F01F03012202FA03F3194226D0FEF71C
:101C5800EFFE401B0228E7D9032089E0001002406C
:101C6800244300082081901000700040424AD36944
:101C780023F08053D36185E740F246213F4801F0C5
:101C8800BBFC82E740F24F213C4801F0B5FC8FE7EE
:101C98004FF41471394801F0AFFCB5E736494B6889
:101CA80023F47413626A206A024313434B604FF0B3
:101CB800807393FAA3F3B3FA83F303F1845303F520
:101CC80084139B0001221A60FEF7B2FE04464FF00F
:101CD800007393FAA3F3284B19684FF0007393FA33
:101CE800A3F3B3FA83F303F01F03012202FA03F309
:101CF800194206D1FEF79CFE001B0228E7D90320F3
:101D080036E0002034E04FF0807393FAA3F3B3FA7F
:101D180083F303F1845303F584139B0000221A60B4
:101D2800FEF786FE04464FF0007393FAA3F3124BB6
:101D380019684FF0007393FAA3F3B3FA83F303F02F
:101D48001F03012202FA03F3194206D0FEF770FEC0
:101D5800001B0228E7D903200AE0002008E0012040
:101D68007047012004E0032002E0032000E0002087
:101D780002B070BD0120FBE70010024024430008B8
:101D880010B4174B5C6804F00C03082B26D104F43C
:101D980070124FF4701393FAA3F3B3FA83F322FA91
:101DA80003F31049C85C0E4BDB6A03F00F030F22E4
:101DB80092FAA2F2B2FA82F2D3400B441A7C14F4DB
:101DC800803F05D1084B03FB00F05DF8044B7047DA
:101DD800064BB3FBF2F300FB03F0F6E70348F4E726
:101DE80000100240A83B000800093D0000127A00DC
:101DF800002800F01B8170B504460D46036813F0F7
:101E08000F0F14D0022D18D88A4B1B6803F0070354
:101E1800AB4218D2874A136823F007032B43136099
:101E2800136803F00703AB420DD0012070BD40F2E8
:101E3800BA21814801F0E0FBE4E740F2BB217E488B
:101E480001F0DAFBE0E7236813F0020F18D0A3686B
:101E58007BB1802B0DD0902B0BD0A02B09D0B02BB1
:101E680007D0C02B05D0D02B03D0E02B01D0F02B0E
:101E78003ED1724A536823F0F003A1680B435360C4
:101E8800236813F0010F69D06368022B36D86368A2
:101E9800012B39D0022B4CD0022292FAA2F2674AC7
:101EA8001068022292FAA2F2B2FA82F202F01F023B
:101EB800012101FA02F2104200F0BA805F494A6833
:101EC80022F0030213434B60FEF7B2FD06465B4B5C
:101ED8005B6803F00C036268B3EB820F3ED0FEF739
:101EE800A7FD801B41F288339842F0D903209DE773
:101EF80040F2D221504801F07FFBBAE740F2D921E5
:101F08004D4801F079FBC2E74FF4003292FAA2F291
:101F18004A4A10684FF4003292FAA2F2B2FA82F2F8
:101F280002F01F02012101FA02F20242C6D1012089
:101F38007CE74FF0007292FAA2F2404A10684FF024
:101F4800007292FAA2F2B2FA82F202F01F020121A2
:101F580001FA02F21042B1D1012067E7354B1B6844
:101F680003F00703AB420CD9324A136823F0070386
:101F78002B431360136803F00703AB4201D0012021
:101F880054E7236813F0040F14D0E3685BB1B3F58A
:101F9800806F08D0B3F5A06F05D0B3F5C06F02D03D
:101FA800B3F5E06F36D1254A536823F4E063E1685E
:101FB8000B435360236813F0080F15D023695BB1F6
:101FC800B3F5806F08D0B3F5A06F05D0B3F5C06F37
:101FD80002D0B3F5E06F23D1184A536823F4605355
:101FE800216943EAC1035360FFF7CAFE134B5B68DC
:101FF80003F0F003F02292FAA2F2B2FA82F2D3408E
:102008000F4AD35CD8400F4B18600020FEF7CEFC77
:1020180000200BE740F21531074801F0EDFAC2E75E
:102028004FF44771044801F0E7FAD5E701207047FB
:102038000120FBE600200240244300080010024073
:102048002042000808000020014B1868704700BFB4
:1020580008000020F0B583B004460368B3F54D3F8F
:1020680080F0A281236813F4803F54D063684BB199
:10207800B3F5807F06D0B3F5007F03D0B3F5407F7A
:1020880040F09781964BDB6913F0805F40F09681B2
:10209800934BDA6942F08052DA61DB6903F08053CE
:1020A8000193019B01258F4B1B6813F4807F00F07F
:1020B80087818B4B1B6A13F4407322D0626802F449
:1020C80040729A421DD08648016A21F440764FF446
:1020D800803393FAA3F2B2FA82F2834F3A44920021
:1020E8004FF0010CC2F800C093FAA3F3B3FA83F3DC
:1020F8003B449B0000221A60066211F0010F40F079
:102108007481774A136A23F4407361680B4313623E
:10211800002D40F09681236813F0010F0AD0A368C0
:10212800032B00F293816E4A136B23F00303A1681B
:102138000B431363236813F0020F12D0E3684BB10B
:10214800B3F5803F06D0B3F5003F03D0B3F5403F69
:1021580040F08181624A136B23F44033E1680B43FA
:102168001363236813F0040F12D023694BB1B3F53E
:10217800802F06D0B3F5002F03D0B3F5402F40F0E1
:102188006F81574A136B23F4402321690B43136370
:10219800236813F0200F0BD0E36913B1102B40F024
:1021A80064814F4A136B23F01003E1690B431363F7
:1021B800236813F4003F0DD0A36BB3F5800F02D052
:1021C800002B40F05781464A536823F48003A16BE3
:1021D8000B435360236813F0400F0BD0236A13B1ED
:1021E800202B40F04C813E4A136B23F02003216AD8
:1021F8000B431363236813F0080F12D063694BB1C4
:10220800B3F5801F06D0B3F5001F03D0B3F5401F08
:1022180040F03B81324A136B23F4401361690B434E
:102228001363236813F0100F12D0A3694BB1B3F5F1
:10223800800F06D0B3F5000F03D0B3F5400F40F080
:102248002A81274A136B23F44003A1690B431363C4
:10225800236813F4007F0CD0E36A1BB1B3F5000FB9
:1022680040F01F811E4A536823F40003E16A0B43C0
:102278005360236813F0800F3AD0636A43B3B3F511
:10228800807F25D0B3F5887F22D0B3F5907F1FD00B
:10229800B3F5987F1CD0B3F5A07F19D0B3F5A87F0C
:1022A80016D0B3F5B07F13D0B3F5B87F10D0B3F51F
:1022B800C07F0DD0B3F5C87F0AD0B3F5D07F07D063
:1022C800B3F5D87F04D040F26911084801F094F9B9
:1022D800034AD36A23F4F873616A0B43D36207E0B5
:1022E8000010024000700040008190105C4300081C
:1022F800236813F4807F31D0A36A43B3B3F5005F3A
:1023080025D0B3F5085F22D0B3F5105F1FD0B3F521
:10231800185F1CD0B3F5205F19D0B3F5285F16D02D
:10232800B3F5305F13D0B3F5385F10D0B3F5405F25
:102338000DD0B3F5485F0AD0B3F5505F07D0B3F5B9
:10234800585F04D04FF4BD71614801F055F9614AF6
:10235800D36A23F47853A16A0B43D362236813F436
:10236800805F0CD0236B1BB1B3F5807F40F09F805A
:10237800584A136B23F48073216B0B431363236850
:1023880013F4005F00F0A180636B1BB1B3F5007F0D
:1023980040F093804F4A136B23F40073616B0B4337
:1023A8001363002003B0F0BD7D21494801F024F9F2
:1023B80058E68321464801F01FF963E6002572E6D6
:1023C800454A136843F480731360FEF731FB0646F1
:1023D800414B1B6813F4807F7FF46BAEFEF728FB3C
:1023E800801B6428F4D90320DCE7FEF721FB0646AE
:1023F80015E0384B196A022393FAA3F3B3FA83F36F
:1024080003F01F03012202FA03F30B427FF479AEB3
:10241800FEF70EFB801B41F28833984253D8022303
:1024280093FAA3F293FAA3F3B3FA83F35B0943F0A5
:102438000203022BDDD0022393FAA3F3254B596A3A
:10244800D9E7D36923F08053D36164E6CA212048D1
:1024580001F0D2F867E6D5211D4801F0CDF879E6FC
:10246800E1211B4801F0C8F88BE6EC21184801F07F
:10247800C3F896E6FA21164801F0BEF8A3E64FF431
:102488008771134801F0B8F8ADE640F22F111048F3
:1024980001F0B2F8BEE640F239110D4801F0ACF88F
:1024A800CFE640F249110A4801F0A6F8DAE64FF4FF
:1024B800CD71074801F0A0F85AE74FF4D6710448E7
:1024C80001F09AF866E703206CE700206AE700BF8E
:1024D8005C4300080010024000700040F8B5054653
:1024E8000F4616461C4639E02CB1FEF7A1FA069BAA
:1024F800C01AA04232D32A68536823F0E00353601D
:102508006B68B3F5827F0BD0AB6AB3F5005F14D06C
:10251800012385F85D30002385F85C30032025E031
:10252800AB68B3F5004F02D0B3F5806FECD12A68E1
:10253800136823F040031360E6E72A68136823F45E
:10254800005313602A68136843F400531360DFE7ED
:102558000123B34209D0B4F1FF3FC5D12B689B6872
:1025680037EA0303F4D00023F3E70020F8BDF0B501
:1025780083B007460C4615461E4602E0B6F1FF3FFB
:1025880010D13A6893682340AB423FD0B4F5C06F8E
:10259800F4D1002DF2D1137BDBB28DF807309DF812
:1025A8000730EBE72EB1FEF743FA089BC01AB0429A
:1025B800E7D33A68536823F0E00353607B68B3F5C8
:1025C800827F0BD0BB6AB3F5005F14D0012387F874
:1025D8005D30002387F85C30032018E0BB68B3F552
:1025E800004F02D0B3F5806FECD13A68136823F03E
:1025F80040031360E6E73A68136823F40053136056
:102608003A68136843F400531360DFE7002003B00F
:10261800F0BD70B582B004460D46164600920B46D2
:1026280000224FF4C051FFF7A2FFB8B900962B461D
:10263800002280212046FFF751FFB8B900962B46AB
:1026480000224FF4C0612046FFF791FF034650B1C6
:10265800236E43F020032366032304E0236E43F034
:10266800200323660323184602B070BD236E43F08F
:10267800200323660323F6E7002800F0148110B531
:1026880004460368894A93420CD0A2F578429342E3
:1026980008D002F58062934204D040F21B118448AE
:1026A80000F0AAFF63681BB1B3F5827F40F0B380E6
:1026B800A36833B1B3F5806F03D0B3F5004F40F092
:1026C800B080E368B3F5706F24D0B3F5606F21D0A4
:1026D800B3F5506F1ED0B3F5406F1BD0B3F5306F14
:1026E80018D0B3F5206F15D0B3F5106F12D0B3F52D
:1026F800006F0FD0B3F5E06F0CD0B3F5C06F09D001
:10270800B3F5A06F06D0B3F5806F03D0B3F5407F63
:1027180040F08D80A369B3F5007F04D01BB1B3F5F9
:10272800802F40F08A80636B082B02D0002B40F08A
:102738008A80E3696BB1082B0BD0102B09D0182BBA
:1027480007D0202B05D0282B03D0302B01D0382BD5
:102758007FD1236A13B1802B40F08180636A13B163
:10276800102B40F08280636A43B9236913B1022BAE
:1027780040F081806369012B00F283800023A3620B
:1027880094F85D30002B00F08280022384F85D30DD
:102798002268136823F040031360E368B3F5E06F21
:1027A8007BD90022B3F5706F04D0B3F5E06F01D088
:1027B8000021A162216B21B9B3F5E06F70D9022322
:1027C80023636368A1680B4321690B4361690B4369
:1027D800A16901F400710B43E1690B43216A0B43C2
:1027E800A06A216803430B60638B03F00403616AEA
:1027F8000B43616B0B43E1680B43216813434B6048
:102808002268D36923F40063D36100202066012382
:1028180084F85D3010BD4FF48E71254800F0ECFE51
:1028280046E740F21D11224800F0E6FE49E74FF462
:102838008F711F4800F0E0FE6CE740F21F111C4842
:1028480000F0DAFE6FE74FF49071194800F0D4FEFB
:102858006FE740F22111164800F0CEFE79E74FF4F9
:102868009171134800F0C8FE78E740F22311104830
:1028780000F0C2FE77E74FF493710D4800F0BCFEFC
:1028880078E740F227110A4800F0B6FE76E784F8A8
:102898005C30204600F0DCFE77E74FF4805281E799
:1028A800012323638DE70120704700BF00300140FA
:1028B800984300082DE9F04182B004460D461746BA
:1028C8001E46836813B1B3F5004F19D194F85C30F4
:1028D800012B00F0D880012384F85C30FEF7A8F8BB
:1028E800804694F85D30DBB2012B0FD00220012323
:1028F80084F85D30002384F85C3002B0BDE8F081D4
:102908004FF4FF71614800F077FEDFE7002D00F01B
:10291800B080002F00F0AF80032384F85D300023DF
:102928002366A563A787E7872364A4F84430A4F83F
:1029380046302365E364A368B3F5004F1BD02368D2
:102948001A6812F0400F03D11A6842F040021A6068
:10295800E368B3F5E06F32D963681BB1E38F9BB2CC
:10296800012B13D1236835F8022BDA60E38F013B82
:102978009BB2E3870AE02268136843F4804313603C
:10298800DDE7002E79D0B6F1FF3F10D1E38F9BB27F
:10299800002B59D023689A6812F0020FF1D035F84D
:1029A800022BDA60E38F013B9BB2E387EEE7FEF789
:1029B8003FF8A0EB0800B042E8D3032097E763682C
:1029C8001BB1E38F9BB2012B22D1E38F9BB2012B6A
:1029D80008D9236835F8022BDA60E38F023B9BB2F3
:1029E800E38715E023682A781A73E38F013B9BB2CB
:1029F800E38701350CE02A781A73E38F013B9BB219
:102A0800E387013504E0002E39D0B6F1FF3F13D13A
:102A1800E38F9BB2C3B123689A6812F0020FF2D019
:102A2800E28F92B2012AE6D935F8022BDA60E38FF9
:102A3800023B9BB2E387EBE7FDF7FAFFA0EB080048
:102A4800B042E5D3032052E7424631462046FFF71D
:102A5800E0FD08B120232366A36833B901932368F6
:102A6800DA6801929B680193019B236E4BB90020A1
:102A78003DE701203BE7012039E7032037E7032042
:102A880035E7012033E7022037E700BF9843000805
:102A98000171704741717047F0B585B004460E4624
:102AA80017460A9A01A9184600F013FF23689D6982
:102AB80001AB3A4631462046A84705B0F0BD2DE99E
:102AC800F04782B004460D46164659EC108B9A46DC
:102AD80010EE100A4946FDF741FF07465046FDF73C
:102AE800C1FC42464B46FDF727FD804689460AFB56
:102AF80007F0FDF7B7FC02460B4640464946FDF78E
:102B080063FBFDF72BFF81464FF00A08CDF80080E4
:102B18003B46324629462046FFF7BEFF23685F69D9
:102B2800A168E2682E23324429442046B847A168A8
:102B3800E268CDF800804B4606EB420205EB410106
:102B48002046FFF7A9FF02B0BDE8F0878160C260A8
:102B5800704700234F2B06DCC218202182F8621030
:102B680091740133F6E77047F0B585B004460E4618
:102B7800174604F1C0054FF0FF33012294F8BC104A
:102B88002846FEF721FC0028F3D106F0F0033201B5
:102B9800D2B23B4394F8B4100B4394F8B70043EA1D
:102BA80000068DF80C608DF80D303A430A43104347
:102BB8008DF80E008DF80F2094F8BC104FF0FF33FD
:102BC8000093042303AA2846FEF736FB0546D4F8EB
:102BD800B800FDF733FF284605B0F0BD08B5002260
:102BE800FFF7C2FF08BD10B5044690F8B23080F870
:102BF800B4300C21FFF7F2FF94F8B63084F8B73000
:102C080010BD10B5044690F8B33080F8B4300821F0
:102C1800FFF7E4FF637C84F8B73010BD38B504468D
:102C28000D46FFF735FF45B994F8B33084F8B43052
:102C380000212046FFF7D2FF38BD94F8B23084F85F
:102C4800B430F5E738B504460D46FFF723FF3DB924
:102C5800637C84F8B73000212046FFF7BFFF38BDFA
:102C680094F8B63084F8B730F5E708B590F8B52091
:102C7800FFF77AFF08BD000082B02DE9F041044655
:102C8800884606A981E80C00012505714571254B88
:102C9800036005740026467450273A4631461230C0
:102CA80000F04DFE3A46314604F1620000F047FE5E
:102CB800082384F8B23084F8B36084F8B43084F818
:102CC800B550042384F8B63084F8B7300523C4F827
:102CD800B8307E2384F8BC302A4631462046FFF7B8
:102CE80035FF4C2206A904F1C00000F01DFE84F84F
:102CF800BC8030212046FFF771FF02212046FFF7F4
:102D08006DFF0C212046FFF769FF29462046FFF793
:102D180065FF2046FFF71DFF2046BDE8F04102B0E1
:102D2800704700BFD03B0008F8B505460C4617466B
:102D3800012124E064F07F01C9B22846FFF74EFF65
:102D480029E004F12C0149B261F07F01C9B228469B
:102D5800FFF744FF24E0A4F1140149B261F07F01B8
:102D6800C9B22846FFF73AFF1EE02E19B17C284663
:102D7800FFF77BFFB37C86F8623000210134BC4248
:102D880021DA2B199A7C93F862309A4219D00029DB
:102D9800EBD0132CCEDD2646A4F11403132BD0D987
:102DA800A6F12803132BD6D93C3E132EDDD804F107
:102DB800180149B261F07F01C9B22846FFF70EFF3A
:102DC800D3E70121DAE7F8BD10B504461422002143
:102DD800FFF7AAFF3C2228212046FFF7A5FF28225B
:102DE80014212046FFF7A0FF50223C212046FFF780
:102DF8009BFF10BD10B501EB81018C0022441978AE
:102E080031B14F2A04DC8418A17401320133F6E78A
:102E1800037C03B910BDFFF7D7FFFBE710B501EB43
:102E280081018C0022444F2A01DC02449374037C04
:102E380003B910BDFFF7C8FFFBE708B50022818B77
:102E4800006AFEF70BF808BD38B504460D46FFF7D3
:102E58001FFE2DB90022A18D206BFDF7FFFF38BDA5
:102E68000122A18D206BFDF7F9FFF8E708B5FFF700
:102E780011FE08BD10B584B0044603691A681368CA
:102E880043F0400313600022818A8069FDF7E6FF62
:102E98000022A18B206AFDF7E1FF64230393039BC3
:102EA800013B0393002BFAD10122A18B206AFDF785
:102EB800D5FF0022A18CA06AFDF7D0FF04A9212329
:102EC80001F8053D1D4C4FF47A7301222046FFF7A7
:102ED800F1FC04A9C02301F8063D4FF47A730122DE
:102EE8002046FFF7E7FC04A9062301F8073D4FF445
:102EF8007A7301222046FFF7DDFC04A9132301F8A9
:102F0800083D4FF47A7301222046FFF7D3FC04A949
:102F1800202301F8093D4FF47A7301222046FFF778
:102F2800C9FC04A90C2301F80A3D4FF47A73012265
:102F38002046FFF7BFFC04B010BD00BF58020020B8
:102F48002DE9F8430446894690461F460126067136
:102F580046711A4D05F1080340F8343B4FF4FC72F2
:102F6800002100F0ECFC202384F8343084F83A6225
:102F7800C4F81090A4F81480A761BDF82030A3838A
:102F8800099B2362BDF82830A3840B9BA362BDF87C
:102F98003030A3850D9B2363002205212046FFF7CF
:102FA800D5FD04F50B7605F124030FCB07C6338056
:102FB8002046FFF75FFF2046BDE8F883EC3B00089A
:102FC80008B5FFF757FF08BDB0F836320933A0F847
:102FD80036320223A0F8343290F8383203B97047F9
:102FE80030B583B004460022818A8069FDF736FF38
:102FF8000022A18CA06AFDF731FF02A9802301F805
:10300800013D104D4FF47A7301222846FFF752FC18
:1030180002A9402301F8023D4FF47A7301222846A1
:10302800FFF748FC0122A18CA06AFDF717FF4FF4B7
:103038007A734FF4FC7204F134012846FFF73AFC26
:1030480003B030BD5802002008B50023B3F5FC7F5B
:1030580005DAC218002182F834100133F6E7FFF7C9
:10306800B3FF08BD70B504461D46A0F83412A0F899
:1030780036220AE02B780A2B25D0B4F936320833E9
:10308800B4F93222934228D801352B782BB30A2B76
:103098000BD0002384F83A3223685E692B78B4F9A0
:1030A8003622B4F934122046B047B4F83432063325
:1030B8001BB2A4F834320633B4F930229342D9D97A
:1030C8006B780A2BD6D02046FFF77EFF687800F091
:1030D800DFFB0028D1D00135CFE770BD002921DB07
:1030E800002A1FDB53291DDC2F2A1BDC30B4D41027
:1030F800542505FB041102F00702012404FA02F228
:10310800D2B23BB1084490F834301A4380F83420E6
:1031180030BC7047084490F8343023EA020280F843
:103128003420F5E770472DE9F04F83B001908B46C6
:10313800924699460C9E0D9FDDF83880002527E0C1
:10314800DB1006FB035319F80300614204F0070281
:1031580001F0070158BF4A420123934003405BB284
:10316800B3FA83F35B09B8F1000F08BF83F00103DA
:1031780004EB0A0205EB0B010198FFF7AFFF0134DE
:10318800BC4204DA2346002CDADAE31DD8E701351D
:10319800B54201DA0024F3E703B0BDE8F08F000080
:1031A80070B584B0B0F93642002C0DDBB0F934525A
:1031B800002D09DB0635B0F93062B54204D8083471
:1031C800B0F93252AC4201D904B070BD0446B0F92E
:1031D8002C52B0F92E6203EB43004300002002900A
:1031E80008200190062000900848034432442944EE
:1031F8002046FFF798FF94F83A321BB9012384F868
:103208003A32E1E72046FFF7DFFEF7E7203C000807
:10321800F0B58DB0444B5A6942F400125A615A69AC
:1032280002F400120192019A5A6942F400225A618A
:103238005A6902F400220292029A5A6942F4800200
:103248005A615A6902F480020392039A5A6942F455
:1032580000325A615A6902F400320492049A5A6997
:1032680042F480225A615A6902F480220592059A32
:103278005A6942F480125A615B6903F48013069319
:10328800069B2A4E00224FF4E0513046FDF7E6FD3A
:103298004FF6FF770797032508950024099407A997
:1032A8002348FDF77DFC07970895099407A921484D
:1032B800FDF776FC40F2576307930895099407A930
:1032C8001D48FDF76DFC41F6FF73079308950994B7
:1032D80007A94FF09040FDF763FC40F27F33079356
:1032E8000895099407A93046FDF75AFC4FF4E053B6
:1032F80007930123089309940A9407A93046FDF718
:103308004FFC4FF4804307930894099407A930466B
:10331800FDF746FC07970895099407A90748FDF7A4
:103328003FFC0DB0F0BD00BF001002400004004893
:10333800001000480008004800140048000C00482D
:1033480008B51548154B0360154B4360002383608F
:103358000122C260036143618361C3610362FDF7B7
:10336800B3FE50B900210C48FEF7DCF850B9002133
:103378000948FEF721F950B908BD4221094800F073
:1033880049F8EFE74921074800F044F8EFE75021F2
:10339800044800F03FF8EFE70C020020005400401A
:1033A8000E090020D04300080268174B9A4200D04B
:1033B8007047F0B587B04FF4004301931227029786
:1033C8000126039603250495042405940DEB0401B6
:1033D8004FF09040FDF7E4FB80230193029703969A
:1033E800049505940DEB04010848FDF7D9FB084B3B
:1033F800DA6942F40012DA61DB6903F4001300931E
:10340800009B07B0F0BD00BF005400400004004816
:1034180000100240FEE7000000B59FB0022314939D
:1034280001221892102219921B9300231C934FF427
:1034380060131D9314A8FEF705F948BB0F230F93DB
:1034480002211091002311934FF48062129213937A
:103458000FA8FEF7CDFCF8B92023009300230793AB
:103468006846FEF7F7FDD8B9FEF7EEFD0E4BA3FB55
:1034780000308009FDF75AFB0420FDF76DFB0022A0
:1034880011464FF0FF30FDF70BFB1FB05DF804FB52
:103498009D210648FFF7BEFFAB210448FFF7BAFF9E
:1034A800B2210248FFF7B6FFD34D6210E04300088F
:1034B8002DE9F0412DED028BA6B0FDF79BFAFFF741
:1034C800ABFFFFF7A5FE00F099F8FFF739FF4FF4BF
:1034D8000F7000F098F90446434B05934FF480624F
:1034E800049203934FF48052029201934FF40062C6
:1034F80000924FF480423D49FFF722FD9FED388B43
:103508000A23B0EE480AF0EE680A1422194620464B
:10351800FFF7D5FA0A25009501231E2219462046F1
:10352800FFF7BAFA23689F69314E334601221146E4
:103538002046B84723689F6933462A4629462046CD
:10354800B84713AF4C222B49384600F0EDF94FF439
:10355800867000F058F98046442215A9684600F0A4
:10356800E3F997E80C007E214046FFF785FB2B46E0
:10357800B0EE480AF0EE680A002211464046FFF70E
:103588009EFA4FF47A70FDF759FA23681B682046B3
:10359800984723689F6933462A4629462046B847F4
:1035A80023689B68204698474FF47A70FDF746FADF
:1035B80023685B682046984723689F6933462A46F4
:1035C80029462046B8472368DB68012120469847EA
:1035D8004FF47A70FDF732FAFEE700BFAFF30080D0
:1035E800333333333333FB3F0004004858020020A1
:1035F800F04300080C0200207047000008B511488D
:10360800114B03604FF482734360002383604FF4CF
:10361800E062C260036143614FF40072826110226C
:10362800C2610362436283620722C26203630823A2
:103638004363FFF721F800B908BD47210348FFF7A6
:10364800E9FEF9E75802002000380040FC43000872
:103658000268114B9A4200D0704700B587B003F555
:10366800EC33DA6942F48042DA61DB6903F48043BF
:103678000093009B4FF420430193022302930023FD
:103688000393032304930523059301A90348FDF736
:1036980087FA07B05DF804FB0038004000040048D2
:1036A80000B583B0214B9A6942F001029A619A6988
:1036B80002F001020092009ADA6942F08052DA615F
:1036C800DB6903F080530193019B0320FDF7CAF9DE
:1036D800002211466FF00B00FDF7E2F900221146B7
:1036E8006FF00A00FDF7DCF9002211466FF00900BF
:1036F800FDF7D6F9002211466FF00400FDF7D0F966
:10370800002211466FF00300FDF7CAF900221146A6
:103718006FF00100FDF7C4F9002211464FF0FF30A9
:10372800FDF7BEF903B05DF804FB00BF00100240CE
:103738007047FEE7FEE7FEE7FEE770477047704711
:1037480008B5FDF769F9FDF726FA08BD1549D1F85E
:10375800883043F47003C1F88830134B1A6842F07C
:1037680001021A605868114A02405A601A6822F029
:10377800847222F480321A601A6822F480221A6055
:103788005A6822F4FE025A60DA6A22F00F02DA62FC
:10379800186B074A02401A6300229A604FF00063D0
:1037A8008B60704700ED00E0001002400CC07FF80D
:1037B800CCFC00FFDFF834D0002103E00C4B5B5851
:1037C800435004310B480C4B42189A42F6D30B4A2B
:1037D80002E0002342F8043B094B9A42F9D3FFF771
:1037E800B5FF00F031F8FFF763FEFEE700A0002008
:1037F800A445000800000020DC010020DC010020B6
:10380800C0020020FEE710B5002814BF04460124BA
:10381800204600F06FF830B900F006F808B900F05B
:103828000BF88047F4E710BD024B1868BFF35B8FB5
:10383800704700BFF801002008B5062000F01AF90B
:10384800012000F09FF9000070B50D4E0D4CA41B2F
:10385800A4100025A54209D10B4E0C4C00F094F998
:10386800A41BA4100025A54205D170BD56F825302B
:1038780098470135EEE756F8253098470135F2E7C5
:103888009C4500089C4500089C450008A045000888
:1038980010B5044600F020F82044407800F00800F5
:1038A80010BD931E222B10B50C4604D900230B70B3
:1038B8001C46204610BD0A2A09D1002807DA2D2304
:1038C8000B7040420121214400F0F0F8F1E700219B
:1038D800F9E7FFF7E6BF0000044B054A1B681B6ABF
:1038E800002B08BF1346D3F8EC0070470C000020EB
:1038F80070000020024B0146186800F029B800BF8C
:103908000C00002082B001B901A942B14BB1137873
:103918000B601278101C18BF012002B070471046C7
:10392800FBE76FF00100F8E710B5431E0A44914227
:1039380000D110BD11F8014B03F8014FF7E702441D
:103948000346934200D1704703F8011BF9E70000D2
:1039580070B5CD1C25F0030508350C2D38BF0C2596
:10396800002D064601DBA94203D90C233360002051
:1039780070BD00F0E6F8214A1468214691B9204C40
:1039880023681BB9304600F03DF8206029463046D0
:1039980000F038F8431C24D10C233360304600F083
:1039A800D1F8E4E70B685B1B18D40B2B0FD90B601D
:1039B800CD50CC18304600F0C5F804F10B00231D9B
:1039C80020F00700C31AD3D05A42E250D0E78C4205
:1039D8004B6816BF636013600C46EBE70C464968FA
:1039E800CCE7C41C24F00304A04205D0211A3046B9
:1039F80000F008F80130CFD02560DBE7FC0100209B
:103A08000002002038B5064C00230546084623600E
:103A180000F0AAF8431C02D1236803B12B6038BD1B
:103A2800BC0200201F2938B504460D4604D91623C8
:103A380003604FF0FF3038BD426C12B152F82130AC
:103A48004BB9204600F030F82A4601462046BDE82A
:103A5800384000F017B8012B0AD0591C03D116239F
:103A680003600120E7E7002442F8254028469847EC
:103A78000020E0E7024B01461868FFF7D3BF00BFFC
:103A88000C00002038B5074C0023054608461146AF
:103A9800236000F061F8431C02D1236803B12B6056
:103AA80038BD00BFBC02002000F04EB8F0B51D4B79
:103AB8008BB005460C466E4603F1200C1868596811
:103AC800374603C7083363453E46F7D118681B7964
:103AD8003B71931E222B38604FF0000304D92370EA
:103AE8001C4620460BB0F0BD661EB5FBF2F00AAFCF
:103AF80002FB10553D44591C15F8285C06F8015F77
:103B0800054668B9605423442246191B101B81429C
:103B1800E7DD1178187802F8010B03F80119F4E7CA
:103B28000B46E2E71644000849B1FF2A85BF8A23FD
:103B380003600A704FF0FF3098BF012070470846B5
:103B48007047704770470000024B58221A604FF0C8
:103B5800FF307047BC020020024B58221A604FF019
:103B6800FF307047BC020020044A05491368002B47
:103B780008BF0B461844106018467047040200201E
:103B8800C0020020FEE700BFF8B500BFF8BC08BCC3
:103B98009E467047F8B500BFF8BC08BC9E46704703
:103BA80002030405060708090A0B0C0D0E0F101076
:103BB8000102030405060708090A0B0C0D0E0F1075
:103BC80000000000000000005B2B0008EF2B00083D
:103BD8000B2C0008252C00084D2C0008252E000869
:103BE800FD2D000800000000000000005130000812
:103BF800C92F0008432E0008512E0008752E000812
:103C0800A93100086D3000080000000054003000A1
:103C1800000000000100000000000000000000009B
:103C2800000000000000000000000000000000008C
:103C3800000000000000000000000000000000007C
:103C4800000000000000000000000000000000006C
:103C5800000000000000000000000000000000005C
:103C6800000000000000000000000000000000004C
:103C7800000000000000000000000000000000003C
:103C8800000000000000000000000000000000002C
:103C9800000000000000000000000000000000001C
:103CA800000000000000000000000000000000000C
:103CB80000000000000000000000000000000000FC
:103CC80000000000000000000000000000000000EC
:103CD80000000000000000000000000000000000DC
:103CE8005F000000000700070000147F147F140025
:103CF800242A6B2A120023130864620036495620CE
:103D08005000000007000000001C22410000004194
:103D1800221C00000A040E040A0008083E080800D5
:103D28000040300000000808080808000060600033
:103D380000004030080601003E5149453E0000425F
:103D48007F4000007249494946002141494D3300EE
:103D58001814127F10002745454539003E49494946
:103D680032004121110907003649494936002649E0
:103D780049493E00000014000000004034000000E3
:103D880008142241000014141414140000412214D1
:103D980008000201590906003E415D4926007C12CF
:103DA80011127C007F49494936003E4141412200B9
:103DB8007F4141413E007F49494941007F0909014E
:103DC80003003E41415173007F0808087F0000410D
:103DD8007F4100002040413F01007F08142241003C
:103DE8007F40404060007F021C027F007F04081073
:103DF8007F003E4141413E007F09090906003E41DE
:103E080051215E007F091929460026494949320097
:103E180003017F0103003F4040403F001F20402036
:103E28001F003F4038403F00631408146300030438
:103E380078040300635149456300007F4141000055
:103E48000106083040000041417F000004020102E1
:103E5800040040404040400000010204000020549B
:103E6800547840007F2844443800384444442800AB
:103E7800384444287F0038545454180000087E09F8
:103E8800020018A4A49C78007F0804047800004469
:103E98007D4000002040403D00007F102844000085
:103EA80000417F4000007C04780478007C0804040A
:103EB8007800384444443800FC1824241800182496
:103EC8002418FC007C0804040800485454542400B6
:103ED80004043F4424003C4040207C001C20402037
:103EE8001C003C4030403C004428102844004C90C2
:103EF80090907C004464544C440000083641000013
:103F0800000077000000004136080000080408108F
:103F180008003C2623263C007F11094830007C0419
:103F28000504000000403000000000780A09000085
:103F380040300040300040004000400000027F0256
:103F4800000000227F2200003E5555412200130840
:103F5800640260007C027F48300000081400000002
:103F68007F087F4830007E18192442007F11090815
:103F780070007F40C0407F007F128A700000000000
:103F8800060100000004030000000601000601000D
:103F9800040300040300000C0C00000000080808DB
:103FA8000000080808080800000000000000781158
:103FB8002711780070087C502000000014080000C9
:103FC8007C107C5020007C10122944007F120A705B
:103FD80000007C40C0407C0000000000000023443A
:103FE8003904030024493209040020413F0100003C
:103FF8005D2222225D007E0202020100000077009D
:104008000000004A552900007C55544500003E7FB9
:1040180063773E003E494941220008140008140015
:104028000808080818000000000000003E5F4B5513
:104038003E0000457C45000000040A04000044449A
:104048005F44440000417F41000000447D4000007F
:104058007C04040200007C10103C4000060F7F0125
:104068007F000000080000003855545518007C10E7
:10407800207C010038545444280014080014080017
:1040880020403D0000006649494933000854545413
:10409800200000457C4100007C1211127C007F4901
:1040A800494930007F49494936007F010101010033
:1040B800C07E417FC0007F494949410077087F0899
:1040C80077000049494936007F1008047F007F10B7
:1040D80009047F007F08142241007C0201017F004F
:1040E8007F020C027F007F0808087F003E414141A3
:1040F8003E007F0101017F007F09090906003E415A
:104108004141220001017F010100074848483F0062
:104118000E117F110E006314081463007F40407F66
:10412800C000070808087F007F407F407F007F406D
:104138007F40FF00017F484830007F4830007F0003
:104148007F4848483000224149493E007F083E41A7
:104158003E00462919097F002054545478007C54A5
:10416800545420007C54545428007C040404000057
:10417800C078447CC0003854545418006C107C102B
:104188006C000054545428007C2010087C007C20CB
:1041980012087C007C1010284400700804047C007D
:1041A8007C0810087C007C1010107C0038444444C3
:1041B80038007C0404047C007C141414080038447F
:1041C8004444280004047C0404000C5050503C0073
:1041D8003844FC4438004428102844007C40407C83
:1041E800C0000C1010107C007C407C407C007C409F
:1041F8007C40FC00047C505020007C5020007C0057
:104208007C50502000002844545438007C10384416
:104218003800483414147C0000000000000000003E
:104228000102030406070809000000000102030454
:104238002E2E2F447269766572732F53544D333284
:10424800463378785F48414C5F4472697665722FCF
:104258005372632F73746D3332663378785F686195
:104268006C5F636F727465782E6300002E2E2F4486
:104278007269766572732F53544D333246337878AA
:104288005F48414C5F4472697665722F5372632FA1
:1042980073746D3332663378785F68616C5F67700A
:1042A800696F2E63000000002E2E2F447269766518
:1042B80072732F53544D3332463378785F48414CEC
:1042C8005F4472697665722F5372632F73746D330E
:1042D80032663378785F68616C5F6932632E630099
:1042E8002E2E2F447269766572732F53544D3332D4
:1042F800463378785F48414C5F4472697665722F1F
:104308005372632F73746D3332663378785F6861E4
:104318006C5F6932635F65782E6300002E2E2F4430
:104328007269766572732F53544D333246337878F9
:104338005F48414C5F4472697665722F5372632FF0
:1043480073746D3332663378785F68616C5F72635B
:10435800632E63002E2E2F447269766572732F5375
:10436800544D3332463378785F48414C5F44726924
:104378007665722F5372632F73746D333266337898
:10438800785F68616C5F7263635F65782E630000B5
:104398002E2E2F447269766572732F53544D333223
:1043A800463378785F48414C5F4472697665722F6E
:1043B8005372632F73746D3332663378785F686134
:1043C8006C5F7370692E63002E2E2F5372632F69F2
:1043D80032632E63000000002E2E2F5372632F6D60
:1043E80061696E2E63707000486920477579733172
:1043F80029210A002E2E2F5372632F7370692E63A2
:10440800000000004300504F534958002E0030313F
:1044180032333435363738396162636465666768C4
:10442800696A6B6C6D6E6F7071727374757677787C
:10443800797A0000202020202020202020282828E9
:104448002828202020202020202020202020202054
:10445800202020208810101010101010101010109C
:1044680010101010040404040404040404041010BC
:104478001010101010414141414141010101010159
:104488000101010101010101010101010101011005
:10449800101010101042424242424202020202022E
:1044A80002020202020202020202020202020210D6
:1044B80010101020000000000000000000000000A4
:1044C80000000000000000000000000000000000E4
:1044D80000000000000000000000000000000000D4
:1044E80000000000000000000000000000000000C4
:1044F80000000000000000000000000000000000B4
:1045080000000000000000000000000000000000A3
:104518000000000000000000000000000000000093
:104528000000000000000000000000000000000083
:104538000000000000000000000000000000000073
:104548000000000000000000000000000000000063
:104558000000000000000000000000000000000053
:104568000000000000000000000000000000000043
:104578000000000000000000000000000000000033
:104588000000000000000000000000000000000023
:04459800000000001F
:04459C00AD01000865
:0445A0008901000885
:1045A400010000001000000000127A00100000203A
:1045B400000000005C4500087C4500083C450008FC
:1045C40000000000000000000000000000000000E7
:1045D40000000000000000000000000000000000D7
:1045E40000000000000000000000000000000000C7
:1045F40000000000000000000000000000000000B7
:1046040000000000000000000000000000000000A6
:104614004300000000000000000000000000000053
:104624000000000000000000000000000000000086
:104634004300000000000000000000000000000033
:104644000000000000000000000000000000000066
:104654004300000000000000000000000000000013
:104664000000000000000000000000000000000046
:1046740043000000000000000000000000000000F3
:104684000000000000000000000000000000000026
:1046940043000000000000000000000000000000D3
:1046A4000000000000000000000000000000000006
:1046B40043000000000000000000000000000000B3
:1046C40000000000000000000000000000000000E6
:1046D4004300000000000000000000000000000093
:1046E40000000000000000000000000000000000C6
:1046F400313B00080D390008000000003B4400086D
:104704001444000815440008154400081544000822
:104714001544000815440008154400081544000811
:104724001544000815440008FFFFFFFFFFFFFFFFCB
:10473400FFFFFFFFFFFF0000010041534349490011
:104744000000000000000000000000000000000065
:1047540000000000000000000000415343494900EC
:104764000000000000000000000000000000000045
:0C47740000000000000000000000000039
:04000005080037BDFB
:00000001FF
